:100000000C947F000C94EA000C9419010C949C0051
:100010000C949C000C949C000C949C000C949C00F0
:100020000C949C000C949C000C949C000C949C00E0
:100030000C949C000C949E000C949C000C949C00CE
:100040000C949C000C949C000C949C000C949C00C0
:100050000C949C000C949C000C949C000C949C00B0
:100060000C949C000C949C000C949C000C949C00A0
:100070000C949C000C949C000C949C0007634236EA
:10008000B79BD8A71A39685618AEBAAB558C1D3C29
:10009000B7CC5763BD6DEDFD753EF6177231BF00ED
:1000A0000000803F08000000BE922449123EABAA27
:1000B000AA2ABECDCCCC4C3E00000080BEABAAAA82
:1000C000AA3E00000000BF000000803F00000000CA
:1000D00000084178D3BB4387D1133D190E3CC3BD03
:1000E0004282AD2B3E68EC8276BED98FE1A93E4CB0
:1000F00080EFFFBE01C4FF7F3F000000000011241D
:100100001FBECFEFD8E0DEBFCDBF12E0A0E0B1E070
:10011000E4EEF3E202C005900D92AA33B107D9F7DD
:1001200022E0AAE3B2E001C01D92A034B207E1F7D9
:100130000E94C10A0C94DF110C9400008F939F93CE
:1001400081E090E090933B0280933A029F918F91DF
:100150001895F89483EF8AB98FEF84B98EEF81B93F
:100160001BB88DB383608DBBE9E6F0E080818B60C6
:10017000808378948DEA91E00C9480089B01882319
:10018000A9F089B190E086239323892B69F08FE34E
:100190009CE90197F1F700C0000089B190E02823A5
:1001A000392381E0232BA9F480E013C049B150E04A
:1001B00046235323452B69F48FE39CE90197F1F71C
:1001C00000C0000089B190E02823392381E0232B6F
:1001D00059F708951F920F920FB60F9211242F9383
:1001E0003F934F935F936F937F938F939F93AF93BF
:1001F000BF93EF93FF9364E070E081E00E94BE0044
:10020000882331F081E090E090933D0280933C029E
:10021000FF91EF91BF91AF919F918F917F916F91DE
:100220005F914F913F912F910F900FBE0F901F90B4
:1002300018951F920F920FB60F9211242F933F9390
:100240004F935F936F937F938F939F93AF93BF93DE
:10025000EF93FF9368E070E080E00E94BE00882387
:1002600031F082E090E090933D0280933C02FF9158
:10027000EF91BF91AF919F918F917F916F915F911E
:100280004F913F912F910F900FBE0F901F90189597
:10029000FC018FEF9FEF9783868315861486168661
:1002A000708B67870895CF93DF93EC018F859889D2
:1002B00060E204960E94B8098F8598894FEF50E05C
:1002C0006FEF70E004960E94AC098FE39CE9019700
:1002D000F1F700C000008F85988960E004960E94C5
:1002E000B8099FE728E381E0915020408040E1F782
:1002F00000C000008F85988960E204960E94B809CA
:100300008F85988950E040E070E060E004960E949C
:10031000AC098FE39CE90197F1F700C00000DF9181
:10032000CF910895CF93DF93EC018F85988964E096
:1003300004960E94B8098F8598894FEF50E06FEFBF
:1003400070E004960E94AC098FE39CE90197F1F7F5
:1003500000C000008F85988960E004960E94B8096B
:100360009FE728E381E0915020408040E1F700C002
:1003700000008F85988964E004960E94B8098F85F3
:10038000988950E040E070E060E004960E94AC097B
:100390008FE39CE90197F1F700C00000DF91CF9156
:1003A00008956F927F928F929F92AF92BF92CF9259
:1003B000DF92EF92FF920F931F93CF93DF9300D0C2
:1003C00000D0CDB7DEB77C01D62EC72E5A01490129
:1003D000062F172F66246394712CF7018785908967
:1003E00089549F4F0E94700A69837A838B839C8310
:1003F00069817A818B819C810E94780B69837A83E1
:10040000CB010E942D08C701662009F442C00E945A
:10041000530189819A818A159B0514F4892B11F463
:10042000772041F083EB91E00E9480080150110990
:100430007724739417FF0EC0F7018785908904967F
:100440000E94BC0966246394803209F4612C0D2D4E
:100450001C2D712C89819A81881599050CF0BDCFCE
:10046000892B09F4BACF87EB91E00F900F900F9092
:100470000F90DF91CF911F910F91FF90EF90DF9040
:10048000CF90BF90AF909F908F907F906F900C9483
:1004900080080E949201BDCFEF92FF920F931F93AD
:1004A000CF93DF9300D000D000D0CDB7DEB77C0172
:1004B000DC018D919D910D90BC91A02D89839A8333
:1004C000AB83BC8320E030E044E052E4BC01CD01CA
:1004D0000E94730B811156C080E090E0A8EFB1EC50
:1004E000F70180839183A283B38320E030E040E072
:1004F00052E4D7016D917D918D919C910E94070BE3
:1005000020E030E040E85CE369837A838B839C835E
:1005100069817A818B819C810E94280C8B018E835A
:100520009D8320E030E040EE5EE369831A838B8395
:100530009C8369817A818B819C810E94230C18168F
:1005400094F520E030E040E15FE369817A818B81BE
:100550009C810E94730B181634F1D70115961C92DA
:100560001E9214978EEB91E026960FB6F894DEBF9C
:100570000FBECDBFDF91CF911F910F91FF90EF90F4
:100580000C94800820E030E040E052EC69817A81F0
:100590008B819C810E94730B8111A7CF80E090E03A
:1005A000A0E0B2E49DCF20E030E040E15FE30983CA
:1005B0001A83BE81BB83ED81EC8369817A818B8153
:1005C0009C810E94230C87FD16C020E030E040E3B0
:1005D0005FE369817A818B819C810E94730B18167D
:1005E00054F081E090E0D70115969C938E93149778
:1005F00083EC91E0B9CF20E030E040E35FE3098392
:100600001A83BE81BB83ED81EC8369817A818B8102
:100610009C810E94230C87FD16C020E030E040E55D
:100620005FE369817A818B819C810E94730B18162C
:1006300054F082E090E0D70115969C938E93149726
:1006400087EC91E091CF20E030E040E55FE3098363
:100650001A83BE81BB83ED81EC8369817A818B81B2
:100660009C810E94230C87FD16C020E030E040E70B
:100670005FE369817A818B819C810E94730B1816DC
:1006800054F083E090E0D70115969C938E931497D5
:100690008BEC91E069CF20E030E040E75FE3098335
:1006A0001A83BE81BB83ED81EC8369817A818B8162
:1006B0009C810E94230C87FF0CC020E030E040E8C2
:1006C0005DE369817A818B819C810E94730B18168E
:1006D00054F084E090E0D70115969C938E93149784
:1006E00082ED91E041CF20E030E040E85DE3098316
:1006F0001A83BE81BB83ED81EC8369817A818B8112
:100700009C810E94230C87FD16C020E030E040E46D
:100710005EE369817A818B819C810E94730B18163C
:1007200054F085E090E0D70115969C938E93149732
:1007300086ED91E019CF20E030E040E45EE30983EC
:100740001A83BE81BB83ED81EC8369817A818B81C1
:100750009C810E94230C87FD16C020E030E040EA17
:100760005EE369817A818B819C810E94730B1816EC
:1007700054F086E090E0D70115969C938E931497E1
:1007800083EE91E0F1CE20E030E040EA5EE30983C1
:100790001A83BE81BB83ED81EC8369817A818B8171
:1007A0009C810E94230C87FD16C020E030E040EEC3
:1007B0005EE369817A818B819C810E94730B18169C
:1007C00054F087E090E0D70115969C938E93149790
:1007D0008FED91E0C9CE89EE91E0C6CECF93DF9345
:1007E000EC018F85988960E204960E94B8098F8594
:1007F00098894FEF50E06FEF70E004960E94AC09CB
:100800002FEF89EF90E0215080409040E1F700C049
:1008100000008F85988960E004960E94B8098F8552
:10082000988950E040E070E060E004960E94AC09D6
:10083000AFEFB9EF20E0A150B0402040E1F700C099
:10084000000020E030E040E85FE3688179818A8140
:100850009B810E94070B688379838A839B83CE01E7
:10086000DF91CF910C944C02CF93DF93EC018F85F5
:10087000988964E004960E94B8098F8598894FEFA3
:1008800050E06FEF70E004960E94AC092FEF89EF03
:1008900090E0215080409040E1F700C000008F853B
:1008A000988960E004960E94B8098F85988950E085
:1008B00040E070E060E004960E94AC09AFEFB9EF51
:1008C00020E0A150B0402040E1F700C0000020E04F
:1008D00030E040E85FE3688179818A819B810E94F2
:1008E000060B688379838A839B83CE01DF91CF9146
:1008F0000C944C02EC011B861A868A859B858130FC
:10090000910521F18230910529F10097C1F70091FD
:100910003C0210913D020130110551F002301105E9
:1009200091F0012B51F787EF91E00E948008E5CF0D
:100930008DEF91E00E94800810923D0210923C02DF
:100940001B870A87DACF86E092E0F4CFCE010E94BF
:100950005805D3CFCE010E94F905CFCFEF92FF9279
:100960000F931F93CF93DF9300D000D000D0CDB76B
:10097000DEB78D839E83ED81FE8184819581029710
:1009800009F049C08D819E810E943404ED81FE8171
:100990008785908989549F4F0E94700A7B018C0142
:1009A00020E030E040EF51E46983FA828B831C83BE
:1009B00069817A818B819C810E94730B87FFE2CFD2
:1009C00083EB91E00E94800881E090E0ED81FE8160
:1009D0009783868320E030E040EA51E4E982FA829E
:1009E0000B831C8369817A818B819C810E94730BAC
:1009F00087FF04C0ED81FE811782168226960FB60E
:100A0000F894DEBF0FBECDBFDF91CF911F910F9144
:100A1000FF90EF9008958D819E810E94EE03ED81FD
:100A2000FE818785908989549F4F0E94700A7B01BF
:100A30008C0120E030E040EF51E46983FA828B833F
:100A40001C8369817A818B819C810E94730B87FF53
:100A5000E2CFB6CFCF93DF93EC018E819F810E94CE
:100A60002D08E885F985E830F105F8F4EF51FE4EE0
:100A70000C94950C8EEB91E0DF91CF910C94800853
:100A800083EC91E0F9CF87EC91E0F6CF8BEC91E02D
:100A9000F3CF82ED91E0F0CF86ED91E0EDCF83EEE4
:100AA00091E0EACF8FED91E0E7CFDF91CF9108950C
:100AB0000F931F93CF93DF93EC01EC85FD85E93015
:100AC000F10590F4E751FE4E0C94950C8EE092E007
:100AD0000E94800800913C0210913D0201301105F6
:100AE00041F00230110581F0DF91CF911F910F91FC
:100AF00008958DEF91E00E94800810923D021092BF
:100B00003C021D870C87F0CF86E092E0F4CF89E1AC
:100B100092E00E948008188219821A821B82CE01FC
:100B20000E944C0283E090E09D878C87DDCF8EE1B0
:100B300092E00E94800880E090E0A0E8B1E4888321
:100B40009983AA83BB83EBCF0E94AE048C819D81E5
:100B50009987888784E090E0E7CF8E819F81892BF9
:100B600021F484E292E00E9480088E819F810197A7
:100B700021F48AE292E00E94800886E090E0D4CFDF
:100B80000E94340426E030E04EE150E063E070E083
:100B9000CE010E94D10187E090E0C6CF87EB91E0C3
:100BA0000E948008CE010E942A0588E090E0BCCF18
:100BB00000913C0210913D020130110569F00230B4
:100BC000110509F091CF86E092E00E948008109212
:100BD0003D0210923C0288CF8DEF91E00E94800888
:100BE00010923D0210923C028FEF9FEF9F838E8305
:100BF00088CFFC018685811104C080E392E00C94CB
:100C000080080895EF92FF920F931F93CF93DF9385
:100C1000EC017C0189E0E80EF11C60E470E0C701A2
:100C20000E9434098E010F5F1F4F64E0C8010E94CB
:100C30006609229668EE73E0CE010E94FA0968E325
:100C400070E0C7010E94340968E0C8010E9466098B
:100C500068EE73E0CE010E94FA09C7010E945E09A6
:100C600060E0C8010E94660960E177E2CE01DF9191
:100C7000CF911F910F91FF90EF900C94FA09EF9292
:100C8000FF920F931F93CF93DF93EC018B010E9490
:100C900088067E018FEFE81AF80A60E0C7010E941B
:100CA00062091C821E821D8218861F82CE0109964F
:100CB0000E944109CE0189549F4F0E94080AFE01FB
:100CC000E854FF4F81E0808384E090E09283818349
:100CD00068E070E0CE0185549F4F0E94AF080A8300
:100CE0001B8360E0C7010E946609CE01DF91CF91AE
:100CF0001F910F91FF90EF900C940206089580EAE7
:100D0000809300011092B90080E28093B8000895AA
:100D1000FC0180E88083CF010C947F06982F9370AC
:100D2000891305C0880F806A8093000108958FEFB2
:100D30000895FA0194EA24E89093BC008091BC00E5
:100D400087FFFCCF809100018093BB002093BC0003
:100D50008091BC0087FFFCCF8091B900883161F79A
:100D600084EA8093BC008091BC0087FFFCCF809117
:100D700000018093BB0084E88093BC008091BC009C
:100D800087FFFCCF7093BB0084E88093BC00809108
:100D9000BC0087FFFCCF6093BB0084E88093BC005D
:100DA0008091BC0087FFFCCF8091BC0087FFFCCF07
:100DB00084EA8093BC008091BC0087FFFCCF8091C7
:100DC00000018F5F8093BB0084E88093BC0080911A
:100DD000BC0087FFFCCF84E88093BC008091BC00FE
:100DE00087FFFCCF8091BB00808384E98093BC00A7
:100DF00080E0089594EA34E89093BC008091BC00B0
:100E000087FFFCCF809100018093BB003093BC0032
:100E10008091BC0087FFFCCF8091B900883161F7D9
:100E200084EA8093BC008091BC0087FFFCCF809156
:100E300000018093BB0084E88093BC008091BC00DB
:100E400087FFFCCF7093BB0084E88093BC00809147
:100E5000BC0087FFFCCF6093BB0084E88093BC009C
:100E60008091BC0087FFFCCF84EA8093BC00809116
:100E7000BC0087FFFCCF809100018F5F8093BB0097
:100E800084E88093BC008091BC0087FFFCCF84EC99
:100E9000211105C084E98093BC0080E008952130D1
:100EA00009F484E88093BC009091BC0097FFFCCFCC
:100EB000FA019091BB0091932150AF01E9CF94EAE0
:100EC00024E89093BC008091BC0087FFFCCF809108
:100ED00000018093BB002093BC008091BC0087FF81
:100EE000FCCF8091B900883161F784EA8093BC001F
:100EF0008091BC0087FFFCCF809100018093BB00F4
:100F000084E88093BC008091BC0087FFFCCF709385
:100F1000BB0084E88093BC008091BC0087FFFCCFBD
:100F20006093BB0084E88093BC008091BC0087FF85
:100F3000FCCF4093BB0084E88093BC008091BC0050
:100F400087FFFCCF84E98093BC0080E00895FB011B
:100F5000260F372F311DDC018C918150990B862B88
:100F60009F2B2817390718F09C012F5F3F4F822FC6
:100F70008E1B24EA34E82093BC009091BC0097FFBC
:100F8000FCCF909100019093BB003093BC009091F6
:100F9000BC0097FFFCCF9091B900983161F794EABB
:100FA0009093BC009091BC0097FFFCCF9091000102
:100FB0009093BB0094E89093BC009091BC0097FF85
:100FC000FCCFF093BB0094E89093BC009091BC00E0
:100FD00097FFFCCFE093BB0094E89093BC00909106
:100FE000BC0097FFFCCF982F24E8911104C094E92E
:100FF0009093BC000895FA0131913093BB00209387
:10100000BC003091BC0037FFFCCF9150AF01EDCF59
:10101000DF92EF92FF920F931F93CF93DF93D82E1F
:10102000D92F7B018A01C22F2C2FA801B7018D2D4A
:101030009D2F0E94A707282F30E0E20EF31EC81B49
:10104000020F131FC111F0CF80E0DF91CF911F91EC
:101050000F91FF90EF90DF9008950F931F93CF9320
:10106000DF93CDB7DEB72A970FB6F894DEBF0FBE79
:10107000CDBF182F092F80913E02811107C08FE349
:1010800092E00E94BF0981E080933E020F931F937C
:1010900086E392E09F938F938E010F5F1F4F1F9304
:1010A0000F930E940E0F0F900F900F900F900F90C4
:1010B0000F90F80161918F018FE392E00E94CD09BA
:1010C0008FE097E20197F1F700C00000F8018081FE
:1010D0008111EFCF6AE08FE392E00E94CD098FE0AB
:1010E00097E20197F1F700C000002A960FB6F89436
:1010F000DEBF0FBECDBFDF91CF911F910F9108953D
:101100000F931F93CF93DF938C0180913E02811147
:1011100007C08FE392E00E94BF0981E080933E0206
:10112000E80169918FE392E00E94CD098FE097E298
:101130000197F1F700C0000088818111F2CF6AE0C9
:101140008FE392E00E94CD098FE097E20197F1F7DB
:1011500000C00000DF91CF911F910F910895FC0115
:1011600081E08083728361830895FC01F8948DB3DC
:1011700083608DBBA9E6B0E08C918B608C937894F2
:1011800081E080830895FC0189B190E02181328162
:1011900082239323892B79F08FE39CE90197F1F760
:1011A00000C0000029B130E08181928128233923D9
:1011B00081E0232B09F480E00895CF93DF93EC01C5
:1011C0000E94C308882339F08881882321F018827F
:1011D000DF91CF91089589B190E029813A818223EE
:1011E0009323892B11F481E0888380E0F1CFCF93A2
:1011F000DF9300D000D0CDB7DEB76D527109660F16
:10120000771F660F771FFC01E60FF71F20E030E025
:1012100040E854E460817181828193810E94280CAE
:101220009B01AC0160E074E284EF9AE40E949B0CA5
:1012300069837A838B839C8369817A818B819C818A
:101240000E949A0D69837A838B839C8369817A815A
:101250008B819C810E94780BCB010F900F900F9097
:101260000F90DF91CF9108950E94F7088093B3000B
:101270008093B40082E68093B00085E08093B10053
:10128000089528E9E1E0F1E0DC0101900D922A9552
:10129000E1F7FC01E856FF4F29E030E0318320837D
:1012A000DC01A656BF4F24E1E9E9F1E001900D927F
:1012B0002A95E1F762E570E00C94340962E570E08C
:1012C0000C943409FC01608362B90895FC016083C9
:1012D00062B908958F929F92AF92BF92CF92DF92A0
:1012E000EF92FF920F931F93CF93DF9300D0CDB770
:1012F000DEB77A836983D42EC52EB22EA32E780151
:1013000010E000E088E0982E94E0892E0E151F056D
:101310007CF00F900F90DF91CF911F910F91FF9074
:10132000EF90DF90CF90BF90AF909F908F900895F7
:1013300092B86D2D7C2DCE0101960E94FA0982B8DB
:101340006B2D7A2DCE0101960E94FA090F5F1F4F77
:10135000DDCFFC0180810895FC01618372834383AA
:10136000548367BD48BD81EA84BD81E085BD089591
:10137000FC01608365B90895FC0180810895109295
:10138000C5008FEC8093C4001092C00088E1809368
:10139000C10086E08093C2000895FC018091C000E6
:1013A00085FFFCCF60836093C60008958091C000E4
:1013B00087FFFCCF8091C6000895FC017183608394
:1013C0000895DC01ED91FC9111821082109285004C
:1013D00010928400709389006093880080E4809369
:1013E000800085E0809381001092820082E28093E9
:1013F0006F000895CF93DF93EC010E94E109E8812B
:10140000F98180819181892BE1F3DF91CF9108955A
:101410000C94950A0895CF93DF9300D000D0CDB7F8
:10142000DEB722B160E00E949E0A9C0150E040E0DD
:1014300029833A834B835C83CA01B9010E940D0D55
:101440002AE939E949E85BE369837A838B839C83E2
:1014500069817A818B819C810E94280C69837A83BF
:101460008B839C8369817A818B819C810F900F9003
:101470000F900F90DF91CF910895CF93DF9300D01D
:1014800000D0CDB7DEB70E940B0A2DED34E246E95D
:101490005FEB69837A838B839C8369817A818B81FB
:1014A0009C810E944A0D2DE637EE4FEE51E4698390
:1014B0007A838B839C8369817A818B819C810E9452
:1014C000280C69837A838B839C8369817A818B81E1
:1014D0009C810F900F900F900F90DF91CF91089506
:1014E000CF93DF9300D000D0CDB7DEB70E943D0A86
:1014F0002CE53FE842E250E469837A838B839C8346
:1015000069817A818B819C810E949B0C69837A839B
:101510008B839C8369817A818B819C810F900F9052
:101520000F900F90DF91CF91089510927C0086E884
:1015300080937A00089510927A00089580917C003B
:10154000807E80937C0080917C006770682B609324
:101550007C0080917A00806480937A0080917A0088
:1015600084FFFCCF80917A00806180937A00209183
:1015700078008091790090E0982F8827820F911D44
:101580000895CDB7DEB7C35DD1090FB6F894DEBFBD
:101590000FBECDBF0E94A9006AE372E0CE010196A2
:1015A0000E943F06BE016F5F7F4FCE0181549F4F67
:1015B0000E944801CE0181549F4F0E947A04CE01BF
:1015C00088549F4F0E94700AC053DF4F6883C05DEC
:1015D000D040CF52DF4F7883C15DD040CE52DF4F35
:1015E0008883C25DD040CD52DF4F9883C35DD04029
:1015F000C053DF4F688179818A819B81C05DD04073
:101600000E94780BCB010E942D08D9CF5058BB27E0
:10161000AA270E941E0B0C94E90B0E94DB0B38F0EA
:101620000E94E20B20F039F49F3F19F426F40C9449
:10163000D80B0EF4E095E7FB0C94D20BE92F0E9437
:10164000FA0B58F3BA17620773078407950720F05F
:1016500079F4A6F50C941C0C0EF4E0950B2EBA2F21
:10166000A02D0B01B90190010C01CA01A0011124A8
:10167000FF27591B99F0593F50F4503E68F11A1654
:10168000F040A22F232F342F4427585FF3CF4695E5
:1016900037952795A795F0405395C9F77EF41F1607
:1016A000BA0B620B730B840BBAF09150A1F0FF0FD1
:1016B000BB1F661F771F881FC2F70EC0BA0F621FBD
:1016C000731F841F48F4879577956795B795F795AD
:1016D0009E3F08F0B0CF9395880F08F09927EE0F42
:1016E0009795879508950E94AE0B08F481E00895C0
:1016F0000E947F0B6894B1110C941D0C08950E94F8
:10170000020C88F09F5798F0B92F9927B751B0F085
:10171000E1F0660F771F881F991F1AF0BA95C9F775
:1017200014C0B13091F00E941C0CB1E008950C94EB
:101730001C0C672F782F8827B85F39F0B93FCCF39E
:10174000869577956795B395D9F73EF490958095F2
:10175000709561957F4F8F4F9F4F0895990F0008A7
:10176000550FAA0BE0E8FEEF16161706E807F90773
:10177000C0F012161306E407F50798F0621B730B0E
:10178000840B950B39F40A2661F0232B242B252B8F
:1017900021F408950A2609F4A140A6958FEF811D32
:1017A000811D089597F99F6780E870E060E00895D3
:1017B0009FEF80EC089500240A9416161706180669
:1017C0000906089500240A94121613061406050645
:1017D0000895092E0394000C11F4882352F0BB0FD6
:1017E00040F4BF2B11F460FF04C06F5F7F4F8F4F39
:1017F0009F4F089557FD9058440F551F59F05F3F74
:1018000071F04795880F97FB991F61F09F3F79F022
:1018100087950895121613061406551FF2CF4695A4
:10182000F1DF08C0161617061806991FF1CF869526
:101830007105610508940895E894BB27662777270A
:10184000CB0197F908950E94AE0B08F48FEF08952D
:101850000E943B0C0C94E90B0E94DB0B38F00E94B9
:10186000E20B20F0952311F00C94D20B0C94D80BC2
:1018700011240C941D0C0E94FA0B70F3959FC1F378
:10188000950F50E0551F629FF001729FBB27F00D2E
:10189000B11D639FAA27F00DB11DAA1F649F662783
:1018A000B00DA11D661F829F2227B00DA11D621FD2
:1018B000739FB00DA11D621F839FA00D611D221F8C
:1018C000749F3327A00D611D231F849F600D211D70
:1018D000822F762F6A2F11249F5750409AF0F1F0F3
:1018E00088234AF0EE0FFF1FBB1F661F771F881F5C
:1018F00091505040A9F79E3F510580F00C94D20BB7
:101900000C941D0C5F3FE4F3983ED4F386957795D5
:101910006795B795F795E7959F5FC1F7FE2B880F01
:10192000911D9695879597F90895EE0FFF1F0590E5
:10193000F491E02D09940E94AF0C0C94E90B0E94E5
:10194000E20B58F00E94DB0B40F029F45F3F29F0D6
:101950000C94D20B51110C941D0C0C94D80B0E94BA
:10196000FA0B68F39923B1F3552391F3951B550BAB
:10197000BB27AA2762177307840738F09F5F5F4F62
:10198000220F331F441FAA1FA9F335D00E2E3AF0A1
:10199000E0E832D091505040E695001CCAF72BD0B9
:1019A000FE2F29D0660F771F881FBB1F261737070A
:1019B0004807AB07B0E809F0BB0B802DBF01FF273C
:1019C00093585F4F3AF09E3F510578F00C94D20B3C
:1019D0000C941D0C5F3FE4F3983ED4F38695779505
:1019E0006795B795F7959F5FC9F7880F911D9695F5
:1019F000879597F90895E1E0660F771F881FBB1F51
:101A0000621773078407BA0720F0621B730B840BFD
:101A1000BA0BEE1F88F7E0950895E89409C097FB8C
:101A20003EF490958095709561957F4F8F4F9F4FB5
:101A30009923A9F0F92F96E9BB279395F6958795F9
:101A400077956795B795F111F8CFFAF4BB0F11F4BC
:101A500060FF1BC06F5F7F4F8F4F9F4F16C0882363
:101A600011F096E911C0772321F09EE8872F762F99
:101A700005C0662371F096E8862F70E060E02AF0DA
:101A80009A95660F771F881FDAF7880F96958795C6
:101A900097F90895FA01EE0FFF1F309621053105E1
:101AA000A1F16115710561F48038BFE39B0749F12D
:101AB00068949038810561F08038BFEF9B0741F052
:101AC00099234AF5FF3FE1053105210519F1E89415
:101AD0000894E795D901AA2329F4AB2FBE2FF85F0C
:101AE000D0F310C0FF5F70F4A695E0F7F73950F01F
:101AF00019F0FF3A38F49F779F930DD00F9007FCB1
:101B00009058089546F00C94D80B60E070E080E89F
:101B10009FE308954FE79F775F934F933F932F93F2
:101B20000E94920E2F913F914F915F910E94280C3D
:101B30000C94C60D0E94020CE8F09E37E8F096392E
:101B4000B8F49E3848F4672F782F8827985FF9CF2C
:101B500086957795679593959539D0F3B62FB170A3
:101B60006B0F711D811D20F487957795679593956F
:101B70000C94F80D0C94130E0C941D0C29F416F013
:101B80000C94D20B0C941C0C0C94D80B0E94020CDD
:101B9000A8F39638A0F707F80F92E8942BE33AEAF7
:101BA00048EB5FE70E943E0C0F920F920F924DB7E9
:101BB0005EB70F920E94DA0EECE7F0E00E94210E71
:101BC0004F915F91EF91FF91E595EE1FFF1F49F057
:101BD000FE57E0684427EE0F441FFA95E1F7419560
:101BE000550B0E94540E0F9007FE0C94480E08955A
:101BF000882371F4772321F09850872B762F07C024
:101C0000662311F499270DC09051862B70E060E097
:101C10002AF09A95660F771F881FDAF7880F969536
:101C2000879597F908959F3F31F0915020F487955B
:101C300077956795B795880F911D9695879597F934
:101C40000895DF93CF931F930F93FF92EF92DF924C
:101C50007B018C01689406C0DA2EEF010E943B0CD8
:101C6000FE01E894A5912591359145915591A6F3F2
:101C7000EF010E941E0BFE019701A801DA9469F79B
:101C8000DF90EF90FF900F911F91CF91DF9108951A
:101C90009B01AC0160E070E080E89FE30C949B0C3A
:101CA0000C94D20B0C94130E0E94020CD8F39923BF
:101CB000C9F3940F511DA3F39150504094F059F083
:101CC000882332F0660F771F881F91505040C1F76C
:101CD0009E3F51052CF7880F911D9695879597F992
:101CE00008955F3FACF0983E9CF0BB2786957795B2
:101CF0006795B79508F4B1609395C1F7BB0F58F796
:101D000011F460FFE8CF6F5F7F4F8F4F9F4FE3CF9E
:101D10000C941D0C16F00C94130E0C94D80B6894B4
:101D20000C94D20B0E94020CA8F39923C1F3AEF3DA
:101D3000DF93CF931F930F93FF92C92FDD27882343
:101D40002AF02197660F771F881FDAF720E030E02E
:101D500040E85FEB9FE3883920F0803E38F0219621
:101D60008F770E94070BE4EAF0E004C00E94070BA3
:101D7000E1EDF0E00E94210E8B01BE01EC01FB2E93
:101D80006F5771097595771F880B990B0E940F0D7E
:101D900028E132E741E35FE30E943B0CAF2D98015D
:101DA000AE01FF900F911F91CF91DF910E941E0B0A
:101DB0000C94E90BFA01DC01AA0FBB1F9B01AC01DB
:101DC000BF5728F4222733274427507820C0B75123
:101DD00090F4AB2F0024469537952795011CA395C9
:101DE000D2F3002071F0220F331F441FB395DAF3B2
:101DF0000ED00C94060B61307105A0E88A07B94635
:101E000030F49B01AC0166277727882790783096BD
:101E100021F020833183428353830895AEE0B0E004
:101E2000E4E1FFE00C94B6110D891E8986E08C83F5
:101E30001A8309838FEF9FE79E838D83AE01475EF0
:101E40005F4F6F89788DCE0101960E94310F2F81EF
:101E50003885020F131FF80110822E96E4E00C94CF
:101E6000D211AFE0B0E0E7E3FFE00C94A8117C01F1
:101E70003B018A01DC0117961C921E92169713965D
:101E80008C9181FFBEC19AE0292EFE0131964F014F
:101E9000D70113969C91F30193FD859193FF819156
:101EA0003F01882309F444C1853239F493FD8591BB
:101EB00093FF81913F01853229F4B70190E00E94A0
:101EC0001A11E6CFB12C412C512CBFE1B51538F0D9
:101ED0008B3209F188F4803201F1833221F157FC11
:101EE0003AC020ED280F2A3040F556FE1FC0B29CA4
:101EF000200D1124B22E06C08D3291F0803379F777
:101F0000689450F8F30193FD859193FF81913F010F
:101F10008111DBCF20C0689451F8689452F8F2CF59
:101F2000689453F8EFCF689454F8ECCF429C200D9E
:101F30001124422E689455F8E5CF8E3229F456FCD0
:101F4000F7C0689456F8DECF8C3619F4689457F8C9
:101F5000D9CF8836B9F2982F9F7D95549330C0F031
:101F6000833681F18337A1F1833509F05BC0D80155
:101F7000CD90DD908D016B2D70E056FC02C06FEFAF
:101F80007FEFC6010E9404115C01689457F80AC0F3
:101F90000C5F1F4FEFE3E983AA24A394B12C6401E3
:101FA000E89457F853FE29C0342CA114B10451F51C
:101FB000332009F46DCFB70180E290E00E941A113E
:101FC0003A94F6CFD8018C9189830E5F1F4FE4CFEE
:101FD000F801C190D1908F016B2D70E056FC02C0CA
:101FE0006FEF7FEFC6010E940F115C01D9CFB701DF
:101FF00080E290E00E941A114A944A141B0409F0EE
:10200000B0F7D2CFF60157FC859157FE81916F0151
:10201000B70190E00E941A1131103A94B1E0AB1A66
:10202000B108C3CF843619F0893609F071C0F801C0
:1020300057FE67C061917191819191918F01E52D5A
:10204000EF76DE2E97FF09C090958095709561958B
:102050007F4F8F4F9F4F6894D7F82AE030E0A4015C
:102060000E944A11C82EC818AC2C5D2CD6FE0CC09C
:10207000E89450F8CB1440F4D4FE05C0D2FC03C061
:102080005D2D5E7E552EAB2C54FE93C0FE01EC0DF3
:10209000F11D8081803309F085C0652D697E562E43
:1020A000752D7870372E53FC93C050FE8DC0BC2C1C
:1020B000A41410F4B40CBA1854FE90C0B70180E315
:1020C00090E00E941A1152FE07C088E751FC88E593
:1020D00090E0B7010E941A11CB1408F48BC0CA9487
:1020E000D12C8FEFC81AD80AC80CD91CD6018E91F2
:1020F0006D01B70190E00E941A118C149D04B1F794
:1021000057CF61917191072E000C880B990B96CFD8
:10211000D52CE894D4F82AE0853729F1F52DF97FFC
:10212000DF2E8037A1F058F48835A1F08F36D1F03A
:10213000F701868197812F96E2E10C94C4118837CC
:10214000B9F7D4FE02C06894D2F820E10CC06894BC
:10215000D4F8F7CF54FE03C02F2F2660D22E20E1F3
:1021600032E002C028E030E0F801D7FE15C041910E
:102170005191619171914C875D876E877F878F0147
:10218000A4016C857D858E859F850E944A11C82E8D
:10219000C818E894D7F868CF81919191AC0170E0AC
:1021A00060E0E9CF52FC02C0A3947ACFA394A39439
:1021B00077CF852D867809F473CFF6CFB70180E20B
:1021C00090E00E941A11A394A414C0F3312C74CF90
:1021D000342C3A18A41408F46FCFF8CF852D8678E4
:1021E00009F47ACF8BE251FE80E257FC8DE2B70111
:1021F00090E070CFB70180E390E00E941A11BA948A
:102200006BCF8FEF9FEF97CFFC010590615070402F
:102210000110D8F7809590958E0F9F1F0895FC01AF
:102220006150704001900110D8F7809590958E0F05
:102230009F1F08950F931F93CF93DF93182F092F9C
:10224000EB018B8181FD09C01FEF0FEF812F902FD4
:10225000DF91CF911F910F91089582FF14C02E81BD
:102260003F818C819D81281739073CF4E881F981F1
:10227000CF0101969983888310838E819F81019677
:102280009F838E83E3CFE885F985812F0995892B7C
:10229000A1F3DACFFA01AA27283051F1203181F1D8
:1022A000E8946F936E7F6E5F7F4F8F4F9F4FAF4F5E
:1022B000B1E03ED0B4E03CD0670F781F891F9A1F71
:1022C000A11D680F791F8A1F911DA11D6A0F711D25
:1022D000811D911DA11D20D009F468943F912AE031
:1022E000269F11243019305D3193DEF6CF01089519
:1022F000462F4770405D4193B3E00FD0C9F7F6CF4A
:10230000462F4F70405D4A3318F0495D31FD405211
:10231000419302D0A9F7EACFB4E0A69597958795A7
:1023200077956795BA95C9F7009761057105089586
:102330009B01AC010A2E0694579547953795279532
:10234000BA95C9F7620F731F841F951FA01D0895CA
:102350002F923F924F925F926F927F928F929F92B5
:10236000AF92BF92CF92DF92EF92FF920F931F93A3
:10237000CF93DF93CDB7DEB7CA1BDB0B0FB6F89454
:10238000DEBF0FBECDBF09942A88398848885F8494
:102390006E847D848C849B84AA84B984C884DF8005
:1023A000EE80FD800C811B81AA81B981CE0FD11DE9
:1023B0000FB6F894DEBF0FBECDBFED010895F894BF
:1023C000FFCF3A0540054305460549054C054F0535
:1023D0005205660587059705A405AD057405C0057A
:0423E000CE05D80549
:1023E400A00000DC427B14E942A4F0F6425CCF0278
:1023F400430A970A437BD412435C8F1B435CCF246C
:1024040043299C2E43000039430000444366A64FF1
:102414004300005C437B146943A4F07643A4D08258
:10242400430A978A437BD49243A4909B43A4D0A4A9
:1024340043719DAE43B8FEB8430000C44366A6CFC3
:10244400430000DC437B14E943A4F0F64300D002CC
:1024540044AE970A441FD5124400901B44A4D024D0
:1024640044719D2E445CFF38445CFF43440AA74FEB
:102474004400005C44000000003E003E004A004569
:10248400004600430041003E004100430064656291
:102494007574004849540050524F434845004E4F0C
:1024A4005244004E4F5244455354005355444553EF
:1024B4005400535544005355444F55455354004E0E
:1024C4004F52444F55455354006D6175766169739D
:1024D40020616E676C6500415543554E00494E546A
:1024E40045525550540045585445524E45004154A8
:1024F40054454E4452455F310048415554004452BE
:102504004F4954005045544954004752414E4400E9
:0A25140044454255540025640000C0
:00000001FF
