:100000000C947F000C94EA000C9419010C949C0051
:100010000C949C000C949C000C949C000C949C00F0
:100020000C949C000C949C000C949C000C949C00E0
:100030000C949C000C949E000C949C000C949C00CE
:100040000C949C000C949C000C949C000C949C00C0
:100050000C949C000C949C000C949C000C949C00B0
:100060000C949C000C949C000C949C000C949C00A0
:100070000C949C000C949C000C949C0007634236EA
:10008000B79BD8A71A39685618AEBAAB558C1D3C29
:10009000B7CC5763BD6DEDFD753EF6177231BF00ED
:1000A0000000803F08000000BE922449123EABAA27
:1000B000AA2ABECDCCCC4C3E00000080BEABAAAA82
:1000C000AA3E00000000BF000000803F00000000CA
:1000D00000084178D3BB4387D1133D190E3CC3BD03
:1000E0004282AD2B3E68EC8276BED98FE1A93E4CB0
:1000F00080EFFFBE01C4FF7F3F000000000011241D
:100100001FBECFEFD8E0DEBFCDBF12E0A0E0B1E070
:10011000E4E8F1E202C005900D92A232B107D9F7EE
:1001200022E0A2E2B2E001C01D92A832B207E1F7DC
:100130000E944A090C94C0100C9400008F939F9366
:1001400081E090E090932302809322029F918F910F
:100150001895F89483EF8AB98FEF84B98EEF81B93F
:100160001BB88DB383608DBBE9E6F0E080818B60C6
:10017000808378948DEA91E00C9409079B01882391
:10018000A9F089B190E086239323892B69F08FE34E
:100190009CE90197F1F700C0000089B190E02823A5
:1001A000392381E0232BA9F480E013C049B150E04A
:1001B00046235323452B69F48FE39CE90197F1F71C
:1001C00000C0000089B190E02823392381E0232B6F
:1001D00059F708951F920F920FB60F9211242F9383
:1001E0003F934F935F936F937F938F939F93AF93BF
:1001F000BF93EF93FF9364E070E081E00E94BE0044
:10020000882331F081E090E09093250280932402CE
:10021000FF91EF91BF91AF919F918F917F916F91DE
:100220005F914F913F912F910F900FBE0F901F90B4
:1002300018951F920F920FB60F9211242F933F9390
:100240004F935F936F937F938F939F93AF93BF93DE
:10025000EF93FF9368E070E080E00E94BE00882387
:1002600031F082E090E09093250280932402FF9188
:10027000EF91BF91AF919F918F917F916F915F911E
:100280004F913F912F910F900FBE0F901F90189597
:10029000FC01118610861286748763870895CF93B8
:1002A000DF93EC018B859C8560E204960E944108F7
:1002B0008B859C854FEF50E06FEF70E004960E94B5
:1002C00035088FE19EE40197F1F700C000008B85AF
:1002D0009C8560E004960E9441089FE728E381E046
:1002E000915020408040E1F700C000008B859C8544
:1002F00060E204960E9441088B859C8550E040E0B6
:1003000070E060E004960E9435088FE493EC01975A
:10031000F1F700C00000DF91CF910895CF93DF93F4
:10032000EC018B859C8564E004960E9441088B85D6
:100330009C854FEF50E06FEF70E004960E94350807
:100340008FE39CE90197F1F700C000008B859C8545
:1003500060E004960E9441089FE728E381E0915005
:1003600020408040E1F700C000008B859C8564E060
:1003700004960E9441088B859C8550E040E070E027
:1003800060E004960E9435088FE493EC0197F1F742
:1003900000C00000DF91CF910895CF93DF9300D08C
:1003A00000D000D0CDB7DEB77C01D62EC72E4A01D3
:1003B00059016D837E8366246394712CF7018385D4
:1003C000948589549F4F0E94F90869837A838B83AF
:1003D0009C8369817A818B819C810E945F0A8B0159
:1003E000CB010E94B606C701662041F10E944F0171
:1003F0000815190514F0772059F083EB91E00E945D
:1004000009078D819E8101979E838D837724739444
:10041000ED81FE81F7FF0EC0F70183859485049678
:100420000E94450866246394803209F4612CDD82C1
:10043000CE82712C0A151B050CF6FFCF0E948E018F
:10044000D7CFEF92FF920F931F93CF93DF9300D0FC
:1004500000D000D0CDB7DEB77C01DC018D919D913D
:100460000D90BC91A02D89839A83AB83BC8320E03F
:1004700030E044E052E4BC01CD010E945A0A8111EF
:1004800056C080E090E0A8EFB1ECF7018083918343
:10049000A283B38320E030E040E052E4D7016D91C5
:1004A0007D918D919C910E94EE0920E030E040E822
:1004B0005CE369837A838B839C8369817A818B81F6
:1004C0009C810E940F0B8B018E839D8320E030E086
:1004D00040EE5EE369831A838B839C8369817A8112
:1004E0008B819C810E940A0B181694F520E030E065
:1004F00040E15FE369817A818B819C810E945A0A85
:10050000181634F1D70115961C921E92149787EB9A
:1005100091E026960FB6F894DEBF0FBECDBFDF91F7
:10052000CF911F910F91FF90EF900C94090720E05D
:1005300030E040E052EC69817A818B819C810E949D
:100540005A0A8111A7CF80E090E0A0E0B2E49DCFED
:1005500020E030E040E15FE309831A83BE81BB8382
:10056000ED81EC8369817A818B819C810E940A0BE9
:1005700087FD16C020E030E040E35FE369817A81C7
:100580008B819C810E945A0A181654F081E090E0F9
:10059000D70115969C938E9314978CEB91E0B9CF6D
:1005A00020E030E040E35FE309831A83BE81BB8330
:1005B000ED81EC8369817A818B819C810E940A0B99
:1005C00087FD16C020E030E040E55FE369817A8175
:1005D0008B819C810E945A0A181654F082E090E0A8
:1005E000D70115969C938E93149780EC91E091CF50
:1005F00020E030E040E55FE309831A83BE81BB83DE
:10060000ED81EC8369817A818B819C810E940A0B48
:1006100087FD16C020E030E040E75FE369817A8122
:100620008B819C810E945A0A181654F083E090E056
:10063000D70115969C938E93149784EC91E069CF23
:1006400020E030E040E75FE309831A83BE81BB838B
:10065000ED81EC8369817A818B819C810E940A0BF8
:1006600087FF0CC020E030E040E85DE369817A81DB
:100670008B819C810E945A0A181654F084E090E005
:10068000D70115969C938E9314978BEC91E041CFF4
:1006900020E030E040E85DE309831A83BE81BB833C
:1006A000ED81EC8369817A818B819C810E940A0BA8
:1006B00087FD16C020E030E040E45EE369817A8186
:1006C0008B819C810E945A0A181654F085E090E0B4
:1006D000D70115969C938E9314978FEC91E019CFC8
:1006E00020E030E040E45EE309831A83BE81BB83EF
:1006F000ED81EC8369817A818B819C810E940A0B58
:1007000087FD16C020E030E040EA5EE369817A812F
:100710008B819C810E945A0A181654F086E090E062
:10072000D70115969C938E9314978CED91E0F1CEA2
:1007300020E030E040EA5EE309831A83BE81BB8398
:10074000ED81EC8369817A818B819C810E940A0B07
:1007500087FD16C020E030E040EE5EE369817A81DB
:100760008B819C810E945A0A181654F087E090E011
:10077000D70115969C938E93149788ED91E0C9CE7E
:1007800082EE91E0C6CECF93DF93EC018B859C8502
:1007900060E204960E9441088B859C854FEF50E0F3
:1007A0006FEF70E004960E9435082FEF89EF90E01C
:1007B000215080409040E1F700C000008B859C856F
:1007C00060E004960E9441088B859C8550E040E0E3
:1007D00070E060E004960E943508AFEFB9EF20E0CA
:1007E000A150B0402040E1F700C0000020E030E020
:1007F00040E85FE3688179818A819B810E94EE09EC
:10080000688379838A839B83CE01DF91CF910C9497
:100810002102CF93DF93EC018B859C8564E00496E5
:100820000E9441088B859C854FEF50E06FEF70E090
:1008300004960E9435082FE380E091E0215080402B
:100840009040E1F700C000008B859C8560E0049635
:100850000E9441088B859C8550E040E070E060E09C
:1008600004960E943508AFE3B0E021E0A150B0400B
:100870002040E1F700C0000020E030E040E85FE306
:10088000688179818A819B810E94ED0968837983DF
:100890008A839B83CE01DF91CF910C942102EC01DE
:1008A0001F821E828E819F818130910511F18230DD
:1008B000910539F10097C1F78091240290912502AA
:1008C0008130910551F08230910581F0892B51F7EB
:1008D00080EF91E00E940907E5CF86EF91E00E944A
:1008E00009071092250210922402DCCF8FEF91E0CD
:1008F000F6CF87E092E00E940907CE010E948904AA
:10090000D1CF81E192E00E940907CE010E948A04C2
:10091000C9CF08950895EF92FF920F931F93CF933D
:10092000DF93EC017C0189E0E80EF11C60E470E0EB
:10093000C7010E94BD078E010F5F1F4F64E0C80111
:100940000E94EF07229668EE73E0CE010E948308B2
:1009500068E370E0C7010E94BD0768E0C8010E941B
:10096000EF0768EE73E0CE010E948308C7010E9482
:10097000E70760E0C8010E94EF0760E177E2CE017F
:10098000DF91CF911F910F91FF90EF900C9483080E
:10099000EF92FF920F931F93CF93DF93EC018B01A4
:1009A0000E9411057E018FEFE81AF80A60E0C70186
:1009B0000E94EB071C821E821D8218861F82CE01B8
:1009C00009960E94CA07CE0189549F4F0E94910840
:1009D000FE01E854FF4F81E0808384E090E0928341
:1009E000818368E070E0CE0185549F4F0E943807F4
:1009F0000A831B8360E0C7010E94EF07CE01DF91ED
:100A0000CF911F910F91FF90EF900C948B0408955C
:100A100080EA809300011092B90080E28093B800D0
:100A20000895FC0180E88083CF010C940805982F7D
:100A30009370891305C0880F806A80930001089520
:100A40008FEF0895FA0194EA24E89093BC00809116
:100A5000BC0087FFFCCF809100018093BB002093F6
:100A6000BC008091BC0087FFFCCF8091B900883129
:100A700061F784EA8093BC008091BC0087FFFCCFC3
:100A8000809100018093BB0084E88093BC0080913A
:100A9000BC0087FFFCCF7093BB0084E88093BC0050
:100AA0008091BC0087FFFCCF6093BB0084E88093FB
:100AB000BC008091BC0087FFFCCF8091BC0087FF09
:100AC000FCCF84EA8093BC008091BC0087FFFCCF00
:100AD000809100018F5F8093BB0084E88093BC000D
:100AE0008091BC0087FFFCCF84E88093BC0080919C
:100AF000BC0087FFFCCF8091BB00808384E980939A
:100B0000BC0080E0089594EA34E89093BC008091A2
:100B1000BC0087FFFCCF809100018093BB00309325
:100B2000BC008091BC0087FFFCCF8091B900883168
:100B300061F784EA8093BC008091BC0087FFFCCF02
:100B4000809100018093BB0084E88093BC00809179
:100B5000BC0087FFFCCF7093BB0084E88093BC008F
:100B60008091BC0087FFFCCF6093BB0084E880933A
:100B7000BC008091BC0087FFFCCF84EA8093BC005E
:100B80008091BC0087FFFCCF809100018F5F809334
:100B9000BB0084E88093BC008091BC0087FFFCCF41
:100BA00084EC211105C084E98093BC0080E00895A5
:100BB000213009F484E88093BC009091BC0097FF39
:100BC000FCCFFA019091BB0091932150AF01E9CF86
:100BD00094EA24E89093BC008091BC0087FFFCCF8E
:100BE000809100018093BB002093BC008091BC00E9
:100BF00087FFFCCF8091B900883161F784EA809348
:100C0000BC008091BC0087FFFCCF809100018093E5
:100C1000BB0084E88093BC008091BC0087FFFCCFC0
:100C20007093BB0084E88093BC008091BC0087FF78
:100C3000FCCF6093BB0084E88093BC008091BC0033
:100C400087FFFCCF4093BB0084E88093BC00809179
:100C5000BC0087FFFCCF84E98093BC0080E008954E
:100C6000FB01260F372F311DDC018C918150990B30
:100C7000862B9F2B2817390718F09C012F5F3F4FB9
:100C8000822F8E1B24EA34E82093BC009091BC0094
:100C900097FFFCCF909100019093BB003093BC0074
:100CA0009091BC0097FFFCCF9091B900983161F70B
:100CB00094EA9093BC009091BC0097FFFCCF909178
:100CC00000019093BB0094E89093BC009091BC000D
:100CD00097FFFCCFF093BB0094E89093BC009091F9
:100CE000BC0097FFFCCFE093BB0094E89093BC005E
:100CF0009091BC0097FFFCCF982F24E8911104C07D
:100D000094E99093BC000895FA0131913093BB00AF
:100D10002093BC003091BC0037FFFCCF9150AF0155
:100D2000EDCFDF92EF92FF920F931F93CF93DF935C
:100D3000D82ED92F7B018A01C22F2C2FA801B701F1
:100D40008D2D9D2F0E943006282F30E0E20EF31EDD
:100D5000C81B020F131FC111F0CF80E0DF91CF91AC
:100D60001F910F91FF90EF90DF9008950F931F93C5
:100D7000CF93DF93CDB7DEB72A970FB6F894DEBFD7
:100D80000FBECDBF182F092F80912602811107C0F9
:100D900087E292E00E94480881E0809326020F9348
:100DA0001F938EE192E09F938F938E010F5F1F4FF1
:100DB0001F930F930E94EF0D0F900F900F900F90C5
:100DC0000F900F90F80161918F0187E292E00E94ED
:100DD00056088FE097E20197F1F700C00000F80194
:100DE00080818111EFCF6AE087E292E00E9456088D
:100DF0008FE097E20197F1F700C000002A960FB646
:100E0000F894DEBF0FBECDBFDF91CF911F910F9140
:100E100008950F931F93CF93DF938C018091260247
:100E2000811107C087E292E00E94480881E0809328
:100E30002602E801699187E292E00E9456088FE05D
:100E400097E20197F1F700C0000088818111F2CF8D
:100E50006AE087E292E00E9456088FE097E20197ED
:100E6000F1F700C00000DF91CF911F910F9108951D
:100E7000FC0181E08083728361830895FC01F89412
:100E80008DB383608DBBA9E6B0E08C918B608C93B1
:100E9000789481E080830895FC0189B190E02181FC
:100EA000328182239323892B79F08FE39CE9019788
:100EB000F1F700C0000029B130E081819281282340
:100EC000392381E0232B09F480E00895CF93DF9349
:100ED000EC010E944C07882339F08881882321F097
:100EE0001882DF91CF91089589B190E029813A81EC
:100EF00082239323892B11F481E0888380E0F1CF52
:100F0000CF93DF9300D000D0CDB7DEB76D5271091B
:100F1000660F771F660F771FFC01E60FF71F20E0B3
:100F200030E040E854E460817181828193810E94C5
:100F30000F0B9B01AC0160E074E284EF9AE40E9425
:100F40007C0B69837A838B839C8369817A818B8113
:100F50009C810E947B0C69837A838B839C8369814B
:100F60007A818B819C810E945F0ACB010F900F9048
:100F70000F900F90DF91CF9108950E94800780938A
:100F8000B3008093B40082E68093B00085E0809344
:100F9000B100089528E9E1E0F1E0DC0101900D9253
:100FA0002A95E1F7FC01E856FF4F29E030E0318354
:100FB0002083DC01A656BF4F24E1E9E9F1E001906E
:100FC0000D922A95E1F762E570E00C94BD0762E5A9
:100FD00070E00C94BD07FC01608362B90895FC01C8
:100FE000608362B908958F929F92AF92BF92CF9221
:100FF000DF92EF92FF920F931F93CF93DF9300D076
:10100000CDB7DEB77A836983D42EC52EB22EA32E38
:10101000780110E000E088E0982E94E0892E0E150B
:101020001F057CF00F900F90DF91CF911F910F91D2
:10103000FF90EF90DF90CF90BF90AF909F908F90F8
:10104000089592B86D2D7C2DCE0101960E948308E3
:1010500082B86B2D7A2DCE0101960E9483080F5F16
:101060001F4FDDCFFC0180810895FC0161837283F5
:101070004383548367BD48BD81EA84BD81E085BD5B
:101080000895FC01608365B90895FC01808108958D
:101090001092C5008FEC8093C4001092C00088E1CC
:1010A0008093C10086E08093C2000895FC01809186
:1010B000C00085FFFCCF60836093C60008958091D7
:1010C000C00087FFFCCF8091C6000895FC017183AA
:1010D00060830895DC01ED91FC91118210821092E1
:1010E000850010928400709389006093880080E4EA
:1010F0008093800085E0809381001092820082E2DC
:1011000080936F000895CF93DF93EC010E946A08EB
:10111000E881F98180819181892BE1F3DF91CF9181
:1011200008950C941E090895CF93DF9300D000D04A
:10113000CDB7DEB722B160E00E9427099C0150E0E4
:1011400040E029833A834B835C83CA01B9010E9442
:10115000EE0B2AE939E949E85BE369837A838B83FB
:101160009C8369817A818B819C810E940F0B6983AA
:101170007A838B839C8369817A818B819C810F9098
:101180000F900F900F90DF91CF910895CF93DF9341
:1011900000D000D0CDB7DEB70E9494082DED34E228
:1011A00046E95FEB69837A838B839C8369817A81CB
:1011B0008B819C810E942B0C2DE637EE4FEE51E483
:1011C00069837A838B839C8369817A818B819C81FB
:1011D0000E940F0B69837A838B839C8369817A8158
:1011E0008B819C810F900F900F900F90DF91CF918A
:1011F0000895CF93DF9300D000D0CDB7DEB70E9423
:10120000C6082CE53FE842E250E469837A838B8389
:101210009C8369817A818B819C810E947C0B69838C
:101220007A838B839C8369817A818B819C810F90E7
:101230000F900F900F90DF91CF91089510927C0046
:1012400086E880937A00089510927A00089580913C
:101250007C00807E80937C0080917C006770682B8E
:1012600060937C0080917A00806480937A00809102
:101270007A0084FFFCCF80917A00806180937A00AD
:10128000209178008091790090E0982F8827820F34
:10129000911D0895CDB7DEB7CF5CD1090FB6F89494
:1012A000DEBF0FBECDBF0E94A90062E272E0CE0198
:1012B00001960E94C8048E0101541F4FBE016F5F4A
:1012C0007F4FC8010E944801C8010E944F0424E0DA
:1012D000C22ED12CB02EA12E8E01065F1F4F98E09A
:1012E000E92EF12C8B2D9A2D0E94C30321E0E21AE6
:1012F000F108C1F76EE270E0C8010E94BD078FEFF0
:1013000094E32CE0815090402040E1F700C00000C1
:10131000C8010E94E70781E0C81AD108902E812EEB
:10132000F1F69FEF29E688E1915020408040E1F7F7
:1013300000C0000084E0E82EF12C08E010E08B2DC6
:101340009A2D0E94090401501109C9F76EE270E05C
:10135000892D982D0E94BD079FEF24E38CE09150CA
:1013600020408040E1F700C00000892D982D0E94A8
:10137000E70791E0E91AF10801F7CE0188549F4F81
:101380000E94C608C453DF4F6883CC5CD040C3536F
:10139000DF4F7883CD5CD040C253DF4F8883CE5C73
:1013A000D040C153DF4F9883CF5CD040C453DF4F50
:1013B000688179818A819B81CC5CD0400E945F0AE0
:1013C000CB010E94B6062FE788E391E021508040D0
:1013D0009040E1F700C00000D0CF5058BB27AA27AB
:1013E0000E94050A0C94D00A0E94C20A38F00E949A
:1013F000C90A20F039F49F3F19F426F40C94BF0A6F
:101400000EF4E095E7FB0C94B90AE92F0E94E10A7B
:1014100058F3BA17620773078407950720F079F429
:10142000A6F50C94030B0EF4E0950B2EBA2FA02D0D
:101430000B01B90190010C01CA01A0011124FF2781
:10144000591B99F0593F50F4503E68F11A16F0407C
:10145000A22F232F342F4427585FF3CF469537957B
:101460002795A795F0405395C9F77EF41F16BA0B40
:10147000620B730B840BBAF09150A1F0FF0FBB1FEE
:10148000661F771F881FC2F70EC0BA0F621F731F37
:10149000841F48F4879577956795B795F7959E3F94
:1014A00008F0B0CF9395880F08F09927EE0F979525
:1014B000879508950E94950A08F481E008950E9496
:1014C000660A6894B1110C94040B08950E94E90A0D
:1014D00088F09F5798F0B92F9927B751B0F0E1F0F5
:1014E000660F771F881F991F1AF0BA95C9F714C0A5
:1014F000B13091F00E94030BB1E008950C94030BFE
:10150000672F782F8827B85F39F0B93FCCF38695DD
:1015100077956795B395D9F73EF49095809570953A
:1015200061957F4F8F4F9F4F0895990F0008550F7A
:10153000AA0BE0E8FEEF16161706E807F907C0F059
:1015400012161306E407F50798F0621B730B840B61
:10155000950B39F40A2661F0232B242B252B21F43B
:1015600008950A2609F4A140A6958FEF811D811DDB
:10157000089597F99F6780E870E060E008959FEF15
:1015800080EC089500240A9416161706180609061A
:10159000089500240A9412161306140605060895E9
:1015A000092E0394000C11F4882352F0BB0F40F471
:1015B000BF2B11F460FF04C06F5F7F4F8F4F9F4FB1
:1015C000089557FD9058440F551F59F05F3F71F033
:1015D0004795880F97FB991F61F09F3F79F087959A
:1015E0000895121613061406551FF2CF4695F1DF23
:1015F00008C0161617061806991FF1CF86957105B3
:10160000610508940895E894BB2766277727CB01E6
:1016100097F908950E94950A08F48FEF08950E94A3
:10162000220B0C94D00A0E94C20A38F00E94C90A08
:1016300020F0952311F00C94B90A0C94BF0A1124E0
:101640000C94040B0E94E10A70F3959FC1F3950F6F
:1016500050E0551F629FF001729FBB27F00DB11D36
:10166000639FAA27F00DB11DAA1F649F6627B00DC6
:10167000A11D661F829F2227B00DA11D621F739FAF
:10168000B00DA11D621F839FA00D611D221F749FBD
:101690003327A00D611D231F849F600D211D822F04
:1016A000762F6A2F11249F5750409AF0F1F088232B
:1016B0004AF0EE0FFF1FBB1F661F771F881F915058
:1016C0005040A9F79E3F510580F00C94B90A0C9444
:1016D000040B5F3FE4F3983ED4F3869577956795C6
:1016E000B795F795E7959F5FC1F7FE2B880F911D82
:1016F0009695879597F908950E94900B0C94D00ABF
:101700000E94C90A58F00E94C20A40F029F45F3FC3
:1017100029F00C94B90A51110C94040B0C94BF0AD3
:101720000E94E10A68F39923B1F3552391F3951BC5
:10173000550BBB27AA2762177307840738F09F5FF2
:101740005F4F220F331F441FAA1FA9F335D00E2E5F
:101750003AF0E0E832D091505040E695001CCAF7CC
:101760002BD0FE2F29D0660F771F881FBB1F26178F
:1017700037074807AB07B0E809F0BB0B802DBF0166
:10178000FF2793585F4F3AF09E3F510578F00C9435
:10179000B90A0C94040B5F3FE4F3983ED4F38695AA
:1017A00077956795B795F7959F5FC9F7880F911D56
:1017B0009695879597F90895E1E0660F771F881F42
:1017C000BB1F621773078407BA0720F0621B730BF5
:1017D000840BBA0BEE1F88F7E0950895E89409C0D2
:1017E00097FB3EF490958095709561957F4F8F4F54
:1017F0009F4F9923A9F0F92F96E9BB279395F6956A
:10180000879577956795B795F111F8CFFAF4BB0FE7
:1018100011F460FF1BC06F5F7F4F8F4F9F4F16C04B
:10182000882311F096E911C0772321F09EE8872FD5
:10183000762F05C0662371F096E8862F70E060E091
:101840002AF09A95660F771F881FDAF7880F96950A
:10185000879597F90895FA01EE0FFF1F309621053D
:101860003105A1F16115710561F48038BFE39B0773
:1018700049F168949038810561F08038BFEF9B078B
:1018800041F099234AF5FF3FE1053105210519F1A2
:10189000E8940894E795D901AA2329F4AB2FBE2F29
:1018A000F85FD0F310C0FF5F70F4A695E0F7F7394A
:1018B00050F019F0FF3A38F49F779F930DD00F90B6
:1018C00007FC9058089546F00C94BF0A60E070E061
:1018D00080E89FE308954FE79F775F934F933F938F
:1018E0002F930E94730D2F913F914F915F910E9412
:1018F0000F0B0C94A70C0E94E90AE8F09E37E8F061
:101900009639B8F49E3848F4672F782F8827985F67
:10191000F9CF86957795679593959539D0F3B62F3E
:10192000B1706B0F711D811D20F4879577956795B8
:1019300093950C94D90C0C94F40C0C94040B29F48E
:1019400016F00C94B90A0C94030B0C94BF0A0E9475
:10195000E90AA8F39638A0F707F80F92E8942BE36A
:101960003AEA48EB5FE70E94250B0F920F920F9225
:101970004DB75EB70F920E94BB0DECE7F0E00E94FE
:10198000020D4F915F91EF91FF91E595EE1FFF1FC3
:1019900049F0FE57E0684427EE0F441FFA95E1F73F
:1019A0004195550B0E94350D0F9007FE0C94290DA3
:1019B0000895882371F4772321F09850872B762F90
:1019C00007C0662311F499270DC09051862B70E053
:1019D00060E02AF09A95660F771F881FDAF7880F64
:1019E0009695879597F908959F3F31F0915020F48F
:1019F000879577956795B795880F911D96958795EB
:101A000097F90895DF93CF931F930F93FF92EF926F
:101A1000DF927B018C01689406C0DA2EEF010E94F0
:101A2000220BFE01E894A5912591359145915591A0
:101A3000A6F3EF010E94050AFE019701A801DA94BE
:101A400069F7DF90EF90FF900F911F91CF91DF9199
:101A500008959B01AC0160E070E080E89FE30C9486
:101A60007C0B0C94B90A0C94F40C0E94E90AD8F38C
:101A70009923C9F3940F511DA3F39150504094F052
:101A800059F0882332F0660F771F881F915050401D
:101A9000C1F79E3F51052CF7880F911D96958795AC
:101AA00097F908955F3FACF0983E9CF0BB27869570
:101AB00077956795B79508F4B1609395C1F7BB0F1B
:101AC00058F711F460FFE8CF6F5F7F4F8F4F9F4F44
:101AD000E3CF0C94040B16F00C94F40C0C94BF0A96
:101AE00068940C94B90A0E94E90AA8F39923C1F3F7
:101AF000AEF3DF93CF931F930F93FF92C92FDD2790
:101B000088232AF02197660F771F881FDAF720E0D5
:101B100030E040E85FEB9FE3883920F0803E38F00A
:101B200021968F770E94EE09E4EAF0E004C00E945B
:101B3000EE09E1EDF0E00E94020D8B01BE01EC0127
:101B4000FB2E6F5771097595771F880B990B0E94B3
:101B5000F00B28E132E741E35FE30E94220BAF2D57
:101B60009801AE01FF900F911F91CF91DF910E94DC
:101B7000050A0C94D00AFA01DC01AA0FBB1F9B01D5
:101B8000AC01BF5728F4222733274427507820C0C0
:101B9000B75190F4AB2F0024469537952795011C3B
:101BA000A395D2F3002071F0220F331F441FB39589
:101BB000DAF30ED00C94ED0961307105A0E88A07C4
:101BC000B94630F49B01AC016627772788279078C7
:101BD000309621F020833183428353830895AEE011
:101BE000B0E0E5EFFDE00C9497100D891E8986E0CA
:101BF0008C831A8309838FEF9FE79E838D83AE01C9
:101C0000475E5F4F6F89788DCE0101960E94120E5C
:101C10002F813885020F131FF80110822E96E4E001
:101C20000C94B310AFE0B0E0E8E1FEE00C94891052
:101C30007C013B018A01DC0117961C921E921697CB
:101C400013968C9181FFBEC19AE0292EFE01319638
:101C50004F01D70113969C91F30193FD859193FF5A
:101C600081913F01882309F444C1853239F493FD01
:101C7000859193FF81913F01853229F4B70190E06E
:101C80000E94FB0FE6CFB12C412C512CBFE1B515C2
:101C900038F08B3209F188F4803201F1833221F17E
:101CA00057FC3AC020ED280F2A3040F556FE1FC0E1
:101CB000B29C200D1124B22E06C08D3291F08033DB
:101CC00079F7689450F8F30193FD859193FF819122
:101CD0003F018111DBCF20C0689451F8689452F81D
:101CE000F2CF689453F8EFCF689454F8ECCF429C4D
:101CF000200D1124422E689455F8E5CF8E3229F438
:101D000056FCF7C0689456F8DECF8C3619F4689408
:101D100057F8D9CF8836B9F2982F9F7D95549330D4
:101D2000C0F0833681F18337A1F1833509F05BC0C0
:101D3000D801CD90DD908D016B2D70E056FC02C076
:101D40006FEF7FEFC6010E94E50F5C01689457F8C2
:101D50000AC00C5F1F4FEFE3E983AA24A394B12CC0
:101D60006401E89457F853FE29C0342CA114B1043F
:101D700051F5332009F46DCFB70180E290E00E9465
:101D8000FB0F3A94F6CFD8018C9189830E5F1F4FD9
:101D9000E4CFF801C190D1908F016B2D70E056FC1B
:101DA00002C06FEF7FEFC6010E94F00F5C01D9CF38
:101DB000B70180E290E00E94FB0F4A944A141B0492
:101DC00009F0B0F7D2CFF60157FC859157FE81910B
:101DD0006F01B70190E00E94FB0F31103A94B1E01F
:101DE000AB1AB108C3CF843619F0893609F071C037
:101DF000F80157FE67C061917191819191918F01B6
:101E0000E52DEF76DE2E97FF09C0909580957095B1
:101E100061957F4F8F4F9F4F6894D7F82AE030E04D
:101E2000A4010E942B10C82EC818AC2C5D2CD6FE25
:101E30000CC0E89450F8CB1440F4D4FE05C0D2FC9A
:101E400003C05D2D5E7E552EAB2C54FE93C0FE016B
:101E5000EC0DF11D8081803309F085C0652D697E10
:101E6000562E752D7870372E53FC93C050FE8DC0C2
:101E7000BC2CA41410F4B40CBA1854FE90C0B701D2
:101E800080E390E00E94FB0F52FE07C088E751FC00
:101E900088E590E0B7010E94FB0FCB1408F48BC0DB
:101EA000CA94D12C8FEFC81AD80AC80CD91CD601F5
:101EB0008E916D01B70190E00E94FB0F8C149D0480
:101EC000B1F757CF61917191072E000C880B990BD8
:101ED00096CFD52CE894D4F82AE0853729F1F52D52
:101EE000F97FDF2E8037A1F058F48835A1F08F36C6
:101EF000D1F0F701868197812F96E2E10C94A5102D
:101F00008837B9F7D4FE02C06894D2F820E10CC03B
:101F10006894D4F8F7CF54FE03C02F2F2660D22E3A
:101F200020E132E002C028E030E0F801D7FE15C021
:101F300041915191619171914C875D876E877F8747
:101F40008F01A4016C857D858E859F850E942B1055
:101F5000C82EC818E894D7F868CF81919191AC0148
:101F600070E060E0E9CF52FC02C0A3947ACFA39462
:101F7000A39477CF852D867809F473CFF6CFB70178
:101F800080E290E00E94FB0FA394A414C0F3312CD4
:101F900074CF342C3A18A41408F46FCFF8CF852DE1
:101FA000867809F47ACF8BE251FE80E257FC8DE20D
:101FB000B70190E070CFB70180E390E00E94FB0F83
:101FC000BA946BCF8FEF9FEF97CFFC0105906150D4
:101FD00070400110D8F7809590958E0F9F1F08953F
:101FE000FC016150704001900110D8F780959095E8
:101FF0008E0F9F1F08950F931F93CF93DF93182F7A
:10200000092FEB018B8181FD09C01FEF0FEF812F9D
:10201000902FDF91CF911F910F91089582FF14C0EF
:102020002E813F818C819D81281739073CF4E881FE
:10203000F981CF0101969983888310838E819F81D6
:1020400001969F838E83E3CFE885F985812F0995DB
:10205000892BA1F3DACFFA01AA27283051F12031D8
:1020600081F1E8946F936E7F6E5F7F4F8F4F9F4F2C
:10207000AF4FB1E03ED0B4E03CD0670F781F891F6E
:102080009A1FA11D680F791F8A1F911DA11D6A0F3C
:10209000711D811D911DA11D20D009F468943F91EF
:1020A0002AE0269F11243019305D3193DEF6CF01EE
:1020B0000895462F4770405D4193B3E00FD0C9F7B4
:1020C000F6CF462F4F70405D4A3318F0495D31FD21
:1020D0004052419302D0A9F7EACFB4E0A695979574
:1020E000879577956795BA95C9F70097610571054A
:1020F00008959B01AC010A2E069457954795379594
:102100002795BA95C9F7620F731F841F951FA01DED
:1021100008952F923F924F925F926F927F928F928B
:102120009F92AF92BF92CF92DF92EF92FF920F9366
:102130001F93CF93DF93CDB7DEB7CA1BDB0B0FB670
:10214000F894DEBF0FBECDBF09942A88398848882D
:102150005F846E847D848C849B84AA84B984C884C3
:10216000DF80EE80FD800C811B81AA81B981CE0FBA
:10217000D11D0FB6F894DEBF0FBECDBFED0108959F
:04218000F894FFCF01
:10218400A00000DC427B14E942A4F0F6425CCF02DA
:10219400430A970A437BD412435C8F1B435CCF24CE
:1021A40043299C2E43000039430000444366A64F54
:1021B4004300005C437B146943A4F07643A4D082BB
:1021C400430A978A437BD49243A4909B43A4D0A40C
:1021D40043719DAE43B8FEB8430000C44366A6CF26
:1021E400430000DC437B14E943A4F0F64300D0022F
:1021F40044AE970A441FD5124400901B44A4D02433
:1022040044719D2E445CFF38445CFF43440AA74F4D
:102214004400005C44000000003E003E004A0045CB
:10222400004600430041003E0041004300646562F3
:10223400757400484954004E4F5244004E4F524466
:102244004553540053554445535400535544005387
:1022540055444F55455354004E4F52444F554553E2
:1022640054006D61757661697320616E676C6500F9
:10227400415543554E00494E54455255505400451E
:10228400585445524E4500444554454354494F4ED5
:10229400005452414E534D495353494F4E00256407
:0222A400000038
:00000001FF
