:100000000C9496000C9401010C9430010C94B300F4
:100010000C94B3000C94B3000C94B3000C94B30094
:100020000C94B3000C94B3000C94B3000C94B30084
:100030000C94B3000C94B5000C94B3000C94B30072
:100040000C94B3000C94B3000C94B3000C94B30064
:100050000C94B3000C94B3000C94B3000C94B30054
:100060000C94B3000C94B3000C94B3000C94B30044
:100070000C94B3000C94B3000C94B300084AD73B23
:100080003BCE016E84BCBFFDC12F3D6C74319ABD67
:1000900056833DDA3D00C77F11BED9E4BB4C3E918B
:1000A0006BAAAABE000000803F07634236B79BD808
:1000B000A71A39685618AEBAAB558C1D3CB7CC5749
:1000C00063BD6DEDFD753EF6177231BF0000008017
:1000D0003F08000000BE922449123EABAAAA2ABEE5
:1000E000CDCCCC4C3E00000080BEABAAAAAA3E00FC
:1000F000000000BF000000803F0000000000084139
:1001000078D3BB4387D1133D190E3CC3BD4282ADAA
:100110002B3E68EC8276BED98FE1A93E4C80EFFF82
:10012000BE01C4FF7F3F00000000000011241FBE7D
:10013000CFEFD8E0DEBFCDBF14E0A0E0B1E0EAE44D
:10014000F1E402C005900D92A239B107D9F724E07D
:10015000A2E9B4E001C01D92AA39B207E1F70E94FA
:10016000CD160C948A200C9400008F939F9381E00D
:1001700090E090939304809392049F918F911895AF
:10018000F89483EF8AB98FEF84B98EEF81B91BB8E9
:100190008DB383608DBBE9E6F0E080818B60808366
:1001A000789481EB91E00C946F149B018823A9F063
:1001B00089B190E086239323892B69F08FE39CE932
:1001C0000197F1F700C0000089B190E0282339239E
:1001D00081E0232BA9F480E013C049B150E046230D
:1001E0005323452B69F48FE39CE90197F1F700C095
:1001F000000089B190E02823392381E0232B59F7AF
:1002000008951F920F920FB60F9211242F933F93D0
:100210004F935F936F937F938F939F93AF93BF930E
:10022000EF93FF9364E070E081E00E94D5008823A3
:1002300031F081E090E09093950480939404FF91D5
:10024000EF91BF91AF919F918F917F916F915F914E
:100250004F913F912F910F900FBE0F901F901895C7
:100260001F920F920FB60F9211242F933F934F932B
:100270005F936F937F938F939F93AF93BF93EF930E
:10028000FF9368E070E080E00E94D500882331F0A1
:1002900082E090E09093950480939404FF91EF9115
:1002A000BF91AF919F918F917F916F915F914F918E
:1002B0003F912F910F900FBE0F901F9018950F93A5
:1002C0001F93CF93DF93EC018B018FEF9FEF9E8302
:1002D0008D83198618861D861C861F861E86188AA1
:1002E000CE0143960E94A608098B1A8BDF91CF910D
:1002F0001F910F910895CF93DF93EC0189899A891B
:1003000060E204960E94D31589899A894FEF50E0E4
:100310006FEF70E004960E94C7158FE19EE401978D
:10032000F1F700C0000089899A8960E004960E9474
:10033000D3159FEF29EF80E0915020408040E1F7F6
:1003400000C0000089899A8960E204960E94D31552
:1003500089899A8950E040E070E060E004960E944C
:10036000C7158FE19EE40197F1F700C00000DF910F
:10037000CF910895CF93DF93EC0189899A8964E046
:1003800004960E94D31589899A894FEF50E06FEF48
:1003900070E004960E94C7158FE19EE40197F1F783
:1003A00000C0000089899A8960E004960E94D315F4
:1003B0009FEF29EF80E0915020408040E1F700C09E
:1003C000000089899A8964E004960E94D31589897E
:1003D0009A8950E040E070E060E004960E94C71502
:1003E0008FE19EE40197F1F700C00000DF91CF910B
:1003F00008953F924F925F926F927F928F929F9259
:10040000AF92BF92CF92DF92EF92FF920F931F9322
:10041000CF93DF9300D000D0CDB7DEB77C01D62ECE
:10042000C72E5A014901062F172F44244394512CFB
:1004300033243394F7018189928989549F4F0E9414
:10044000751669837A838B839C8369817A818B811A
:100450009C810E9454183B0169837A82C701442021
:10046000A9F00E947B0189819A818A159B058CF4F1
:10047000892B79F0C3010E941C1487EB91E00E9444
:100480006F14015011095524539405C00E94BA01FC
:10049000EACF5110F2CF17FF04C043240D2D1C2DBD
:1004A000512CE981FA81E815F90524F6EF2B11F2B8
:1004B0008BEB91E00F900F900F900F90DF91CF9109
:1004C0001F910F91FF90EF90DF90CF90BF90AF9072
:1004D0009F908F907F906F905F904F903F900C9483
:1004E0006F14CF93DF93EC0189899A8960E20496B7
:1004F0000E94D31589899A894FEF50E06FEF70E021
:1005000004960E94C7158FE493EC0197F1F700C0A1
:10051000000089899A8960E004960E94D315898930
:100520009A8950E040E070E060E004960E94C715B0
:100530008FE493EC0197F1F700C00000DF91CF91B9
:100540000895CF93DF93EC0189899A8964E004963A
:100550000E94D31589899A894FEF50E06FEF70E0C0
:1005600004960E94C7158FE493EC0197F1F700C041
:10057000000089899A8960E004960E94D3158989D0
:100580009A8950E040E070E060E004960E94C71550
:100590008FE493EC0197F1F700C00000DF91CF9159
:1005A0000895EF92FF920F931F93CF93DF9300D0A4
:1005B00000D000D0CDB7DEB77C01DC018D919D91DC
:1005C0000D90BC91A02D89839A83AB83BC8320E0DE
:1005D00030E040EC52E4BC01CD010E94DD178111F6
:1005E00054C080E090E0ACEBB2ECF70180839183E3
:1005F000A283B38320E030E04EEB52E4D7016D914B
:100600007D918D919C910E94FF1620E030E04EE399
:1006100053E469837A838B839C8369817A818B819C
:100620009C810E94E2178B018E839D8320E030E045
:1006300040EE5EE369831A838B839C8369817A81B0
:100640008B819C810E946319181684F520E030E0AC
:1006500040E15FE369817A818B819C810E94DD1793
:10066000181624F1D70114961C9282EC91E026967C
:100670000FB6F894DEBF0FBECDBFDF91CF911F91B3
:100680000F91FF90EF900C946F1420E030E04EEB50
:1006900052EC69817A818B819C810E94DD178111E6
:1006A000A9CF80E090E0AEEBB2E49FCF20E030E055
:1006B00040E15FE309831A83BE81BB83ED81EC8354
:1006C00069817A818B819C810E94631987FD13C0A7
:1006D00020E030E040E35FE369817A818B819C8197
:1006E0000E94DD1718163CF081E0D70114968C9318
:1006F00087EC91E0BCCF20E030E040E35FE309838A
:100700001A83BE81BB83ED81EC8369817A818B8101
:100710009C810E94631987FD13C020E030E040E512
:100720005FE369817A818B819C810E94DD171816B5
:100730003CF082E0D70114968C938BEC91E097CF3C
:1007400020E030E040E55FE309831A83BE81BB838C
:10075000ED81EC8369817A818B819C810E94631990
:1007600087FD13C020E030E040E75FE369817A81D4
:100770008B819C810E94DD1718163CF083E0D70125
:1007800014968C938FEC91E072CF20E030E040E73C
:100790005FE309831A83BE81BB83ED81EC836981AA
:1007A0007A818B819C810E94631987FF0CC020E0B5
:1007B00030E040E85DE369817A818B819C810E9411
:1007C000DD1718163CF084E0D70114968C9386ED63
:1007D00091E04DCF20E030E040E85DE309831A83EB
:1007E000BE81BB83ED81EC8369817A818B819C81A1
:1007F0000E94631987FD13C020E030E040E45EE30F
:1008000069817A818B819C810E94DD1718163CF0EA
:1008100085E0D70114968C938AED91E028CF20E0F3
:1008200030E040E45EE309831A83BE81BB83ED813F
:10083000EC8369817A818B819C810E94631987FD99
:1008400013C020E030E040EA5EE369817A818B8169
:100850009C810E94DD1718163CF086E0D7011496A3
:100860008C9387EE91E003CF20E030E040EA5EE336
:1008700009831A83BE81BB83ED81EC8369817A8110
:100880008B819C810E94631987FD13C020E030E0BA
:1008900040EE5EE369817A818B819C810E94DD1745
:1008A00018163CF087E0D70114968C9383EE91E004
:1008B000DECE8DEE91E0DBCEEC011B861A868A85BA
:1008C0009B858130910509F440C08230910509F47F
:1008D00040C00097B1F70091940410919504013045
:1008E000110551F00230110529F1012B41F78BEF71
:1008F00091E00E946F14E3CF81E092E00E946F14B8
:1009000010929504109294041B870A8710E000E06F
:1009100048E0B80189899A890E944E138FE493ECCC
:100920000197F1F700C000000F5F1F4F0431110560
:1009300079F7C5CF8AE092E00E946F141092950477
:10094000109294041B870A87BACFCE010E94F60545
:10095000B6CFCE010E94E107B2CFCF93DF93EC0177
:100960008D819E810E941C14EF81E83000F5F0E03B
:10097000E457FF4D0C94501A82EC91E0DF91CF9137
:100980000C946F1487EC91E0F9CF8BEC91E0F6CFEB
:100990008FEC91E0F3CF86ED91E0F0CF8AED91E01E
:1009A000EDCF87EE91E0EACF83EE91E0E7CFDF91E4
:1009B000CF910895CF93DF93EC01688579854D81C0
:1009C00089899A890E944E138FE493EC0197F1F77D
:1009D00000C00000688579856F5F7F4F4C818989F1
:1009E0009A890E944E138FE493EC0197F1F700C0AF
:1009F000000088859985029699878887DF91CF9135
:100A00000895DF92EF92FF920F931F93CF93DF939E
:100A100000D000D000D0CDB7DEB78D839E837B01A0
:100A20008D819E810E94A1028D819E810E94A102E2
:100A30008D819E810E94A1028D819E810E94A102D2
:100A400007E010E0D12CED81FE81818992898954E3
:100A50009F4F0E94751669837A838B839C8369817B
:100A60007A818B819C810E945418CB016E157F0581
:100A700024F4892B11F0DD24D3948D819E810E9472
:100A8000710201501109F9F68D2D26960FB6F894D2
:100A9000DEBF0FBECDBFDF91CF911F910F91FF90B1
:100AA000EF90DF900895CF92DF92EF92FF920F9335
:100AB0001F93CF93DF93CDB7DEB72A970FB6F89485
:100AC000DEBF0FBECDBF8D839E837B016A01AD81EA
:100AD000BE8151968D919C9160E204960E94D3153F
:100AE000ED81FE81818992894AEF50E06AEF70E0E2
:100AF00004960E94C715AD81BE8151968D919C913F
:100B000089549F4F0E94751669837A838B839C83D7
:100B100069817A818B819C810E9454188B01ED81BF
:100B2000FE818189928950E040E070E060E00496A7
:100B30000E94C7150C151D050CF448C0FFEF20E7F7
:100B400082E0F15020408040E1F700C00000AD811C
:100B5000BE811C968D919C911D9701961D969C932C
:100B60008E931C9720E030E040E85FE36D917D912B
:100B70008D919C910E94FF166F83788789879A8751
:100B8000ED81FE816083718382839383CF010E9414
:100B9000D102F2E0EF16F10408F099CFAD81BE81E9
:100BA0001C968D919C918E3B910509F090CF2A96D1
:100BB0000FB6F894DEBF0FBECDBFDF91CF911F916E
:100BC0000F91FF90EF90DF90CF900895012B09F4E3
:100BD000B5CFB6018D819E810E940105882309F45D
:100BE000ADCFED81FE81F682E582E1CF0F931F93B9
:100BF000CF93DF93EC01EE85FF85E930F105E0F45A
:100C0000EC56FF4D0C94501A89899A89FC01628137
:100C1000738101E010E023E030E047E050E001960E
:100C20000E948515009194041091950401301105DE
:100C300041F002301105B1F0DF91CF911F910F917A
:100C4000089589899A8960E001960E94811581E062
:100C500092E00E946F1410929504109294041F87E2
:100C60000E87EACF89899A8960E001960E948115F2
:100C70008AE092E0EECF82E192E00E946F14188247
:100C800019821A821B82CE010E94D10289899A8917
:100C900068E001960E948115FFEF23ED80E3F1509B
:100CA00020408040E1F700C0000089899A8960E017
:100CB00001960E94811583E090E05AC087E192E09E
:100CC0000E946F1480E090E0ACE3B2E488839983E3
:100CD000AA83BB83CE010E94D10289899A8964E0EC
:100CE00001960E9481159FEFE3EDF0E39150E04003
:100CF000F040E1F7D8CF8FEF90E09E838D831D8683
:100D00001C8643E250E070E060E0CE010E94530593
:100D10008D819E818F3F910571F589899A8950E077
:100D200040E070E060E004960E94C7152FEF89E66E
:100D300098E1215080409040E1F700C000001D86FE
:100D40001C8642E850E061E070E0CE010E9453054D
:100D50008D819E818F3F910571F489899A8950E038
:100D600040E070E060E004960E94C71585E090E0E6
:100D70009F878E8761CFCE010E94DA04CE010E9448
:100D8000D1028C818F8384E090E0F2CF8D819E81AF
:100D9000892B21F48DE192E00E946F148D819E8158
:100DA000019721F483E292E00E946F1486E090E0C4
:100DB000DFCF89899A896CE370E009960E944F150C
:100DC000EFEFF3ED20E3E150F0402040E1F700C009
:100DD000000089899A8909960E94791589899A89DA
:100DE00064E001960E9481158FE79AE1E6E0815068
:100DF0009040E040E1F700C0000089899A8960E0F6
:100E000001960E948115FFE72AE186E0F15020401B
:100E10008040E1F700C00000E1CF2FE030E042E881
:100E200050E063E070E00E94F90187E090E0A0CF1D
:100E30008BEB91E00E946F1413E089899A8968E333
:100E400070E009960E944F159FEFE2E5F7E09150A0
:100E5000E040F040E1F700C0000089899A890996D6
:100E60000E9479152FEF82E597E021508040904055
:100E7000E1F700C00000115001F788E090E078CF62
:100E800080919404909195048130910521F18230F4
:100E90009105A9F1892B09F0CFCE89899A89FC01A6
:100EA0006281738103EC10E023E030E047E050E022
:100EB00001960E94851589899A8960E001960E94B1
:100EC0008115FFE72AE186E0F15020408040E1F7FC
:100ED00000C00000B1CE81E092E00E946F14109239
:100EE0009504109294048FEF90E09E838D83188276
:100EF00019821A821B82CE010E94D102DCCE8AE0C6
:100F000092E00E946F14109295041092940494CE73
:100F1000BF92CF92DF92EF92FF920F931F93CF93E6
:100F2000DF9300D0CDB7DEB78C01B12C7C0183E11B
:100F3000E80EF11C8A81883061F40F900F90DF91E8
:100F4000CF911F910F91FF90EF90DF90CF90BF90C6
:100F50000895CB2CD12CCC0CDD1CAE014E5F5F4F25
:100F6000B601F801818992890E9488128A8190E0F5
:100F70000E941C148FE493EC0197F1F700C000006D
:100F8000B6016F5F7F4FAE014F5F5F4FF801818900
:100F900092890E948812898190E00E941C148FE43B
:100FA00093EC0197F1F700C00000B3944A814830F8
:100FB00009F250E04F5F5F4F6981C7010E942B0922
:100FC000B9CFEF92FF920F931F93CF93DF93CDB7DB
:100FD000DEB76C970FB6F894DEBF0FBECDBF8C01A5
:100FE000FC018089882379F0813061F16C960FB61D
:100FF000F894DEBF0FBECDBFDF91CF911F910F914F
:10100000FF90EF900895C8010E948807F801818938
:10101000928962E088549F4F0E94E815F801818907
:10102000928968E001960E948115FFEF23ED80E32D
:10103000F15020408040E1F700C0000081E0F8015D
:10104000808BD4CFCE0141960E94FF0CB8016D5E1B
:101050007F4FCE0141960E94A510F80181899289A7
:1010600063E088549F4F0E94E815898D9A8DAB8D5F
:10107000BC8D80959095A095B095BF93AF939F93AD
:101080008F9389E292E09F938F93CE0101967C012A
:101090009F938F930E94B91DC7010E946F149FEF09
:1010A000E0E7F2E09150E040F040E1F700C00000DE
:1010B000F8018189928964E088549F4F0E94E81565
:1010C000F801138612860FB6F894DEBF0FBECDBFAF
:1010D0008DCFCF93DF93CDB7DEB7E0970FB6F894FF
:1010E000DEBF0FBECDBFFC0188E1DE015996019045
:1010F0000D928A95E1F788E1FB01DE0111960190DE
:101100000D928A95E1F7BE016F5F7F4FCE01499640
:101110000E94AA11811114C0BE016F5F7F4FCE01E2
:1011200049960E94BD1181110EC081E090E0E096C9
:101130000FB6F894DEBF0FBECDBFDF91CF910895FB
:1011400090E080E0F4CF8FEF9FEFF1CFAF92BF92AE
:10115000CF92DF92EF92FF920F931F93CF93DF9383
:10116000CDB7DEB7C059D1090FB6F894DEBF0FBEB8
:10117000CDBF8C0102960E94DC0C780186E0E80E5F
:10118000F11C680196E3C90ED11C5601C7010E94EB
:10119000B60CE6E0EE0EF11CEC14FD04B9F7750197
:1011A000C8018A599F4F6C015C01C7010E94B60CAF
:1011B00096E0E90EF11CCE14DF04B9F77501F801D1
:1011C000EA56FF4F6F01C7010E94B60CF6E0EF0E22
:1011D000F11CEC14FD04B9F7F801118210828E01A4
:1011E0000F591F4F7801F0E3EF0EF11CC8010E9468
:1011F000B60C0A5F1F4F0E151F05C1F78E010F5C5D
:101200001F4F680180E3C80ED11C7801C8010E94FD
:10121000B60C0A5F1F4F0C151D05C1F78E010F5F3D
:101220001F4FC8010E94B60C0A5F1F4FE016F1065F
:10123000C1F7C057DF4F0FB6F894DEBF0FBECDBF6A
:10124000DF91CF911F910F91FF90EF90DF90CF90A2
:10125000BF90AF900895CF92DF92EF92FF920F93DD
:101260001F93CF93DF9300D000D000D0CDB7DEB76F
:101270008C017A01683068F5E62FF0E0E356FF4D07
:1012800002966C010C94501ABA01C6010E94EA0C35
:10129000C6010E94F20C8823E1F0F80144815581D7
:1012A00062817381CE0101960E94A50C8091960403
:1012B00090919704019626E0289FD001299FB00DB8
:1012C0001124A00FB11FFE01319601900D922A95B5
:1012D000E1F78091960490919704019646E0489F2B
:1012E0009001499F300D1124020F131FF801208136
:1012F000222321F0909397048093960426960FB6AC
:10130000F894DEBF0FBECDBFDF91CF911F910F913B
:10131000FF90EF90DF90CF90089566277727641BAA
:10132000750BB3CFBA010E94EA0C662777276E19B6
:101330007F09C6010E94E20CABCFF194E194F10861
:10134000B701C6010E94EA0CB701F3CF66277727E1
:10135000641B750BF6CF2F923F924F925F926F9264
:101360007F928F929F92AF92BF92CF92DF92EF9235
:10137000FF920F931F93CF93DF93CDB7DEB7C05E7D
:10138000D1090FB6F894DEBF0FBECDBF4C0186E089
:10139000F4013696DE01A752BF4F01900D928A9557
:1013A000E1F7C401B401665D7F4FFC01248522236F
:1013B00001F140895189C352DF4F28813981CD5DC8
:1013C000D0404217530709F0E2C046855785C55201
:1013D000DF4F28813981CB5DD040421753074CF451
:1013E00026E03C96DE01A752BF4F01900D922A9550
:1013F000E1F7069686179707C1F6CE0101965C01C4
:101400008E010F531F4F3C01C152DF4F8883CF5DC8
:10141000D040C052DF4FB882C05ED040C3010E94AE
:10142000C11098E1690E711C60167106B9F72401AC
:10143000E6E04E0E511C1501712C612CFFEF6F1A66
:101440007F0ABE0167527F4FC2010E94C00C81110A
:101450003EC0F20180818823D1F136E0369DF00153
:10146000379DF00D1124E80DF91DC080D180E28078
:10147000F38004811581C752DF4F2881C95DD040B8
:10148000C652DF4F3881CA5DD040C552DF4F488118
:10149000CB5DD040C452DF4F5881CC5DD040C352A9
:1014A000DF4F6881CD5DD040C252DF4F7881CE5D85
:1014B000D040CE018F539F4F0E94DD1088E1FE0186
:1014C000EF53FF4FD10101900D928A95E1F786E02D
:1014D000480E511C98E1290E311CE8E06E1671048B
:1014E00009F0ACCF29E638E048E150E068E070E070
:1014F000C152DF4F8881CF5DD040C052DF4F98810D
:10150000C05ED0400E94391C86E0FE01E752FF4FCA
:10151000D401D69601900D928A95E1F7A501485520
:101520005F4F81E090E026E0F501368D332379F0BE
:10153000289FD001299FB00D1124A80DB91DD69662
:101540007E96322F01900D923A95E1F70196F8E1DF
:10155000AF0EB11C4A155B0539F7C052DF4F0FB60D
:10156000F894DEBF0FBECDBFDF91CF911F910F91D9
:10157000FF90EF90DF90CF90BF90AF909F908F90B3
:101580007F906F905F904F903F902F9008954217FB
:1015900053070CF02ECF26E024CF2F923F924F928C
:1015A0005F926F927F928F929F92AF92BF92CF92F3
:1015B000DF92EF92FF920F931F93CF93DF93CDB7FC
:1015C000DEB7CE54D1090FB6F894DEBF0FBECDBF43
:1015D0005C01DC01AA59BF4F86E0F501F696019047
:1015E0000D928A95E1F7F501712C612C86A988236B
:1015F00041F02FEF621A720A369638E063167104D2
:10160000A9F7CE0101960E94C110CE0149960E9411
:10161000C11088248394912C41E050E02D965FAF57
:101620004EAF2D9786149704ECF0C25BDF4F0FB6D8
:10163000F894DEBF0FBECDBFDF91CF911F910F9108
:10164000FF90EF90DF90CF90BF90AF909F908F90E2
:101650007F906F905F904F903F902F9008955FEF35
:10166000851A950A66E0689DF001699DF00D1124C8
:10167000EA0DFB1D87A9882391F386149704A9F22C
:1016800094012150310976E0729FF001739FF00DB3
:101690001124EA0DFB1D87A9882309F4D5C0140184
:1016A0008FEF281A380AC101A6E0A89FA001A99FC0
:1016B000500D1124F501E40FF51F2F96FFAFEEAF8B
:1016C0002F9747A9442309F4C6C0A89DC001A99D2E
:1016D000900D1124A501480F591F2B965FAF4EAFF7
:1016E0002B972A0156E3450E511C66E0629FD001FC
:1016F000639FB00D1124CD018A0D9B1DFC01F69650
:101700002B96AEADBFAD2B97D696CC90D20111964D
:10171000DC9011971296EC9012971396FC90139709
:1017200014960C91149715961C91DC01D6962C9169
:1017300031814281538164817581CE01C1960E94BD
:10174000DD1088E1FE01F196DE01119601900D9207
:101750008A95E1F72F96EEADFFAD2F97F6962F966F
:10176000AEADBFAD2F97D696CC90D180E280F380FE
:10177000048115812B96EEADFFAD2B9726A9D201E2
:1017800011963C91119712964C91129713965C9179
:10179000139714966C91149715967C91CE01C1966F
:1017A0000E94DD1088E1FE01F196DE01599601905C
:1017B0000D928A95E1F7EDB7FEB778970FB6F894DA
:1017C000FEBF0FBEEDBFADB7BEB7119688E1FE01FB
:1017D000799601900D928A95E1F72DB73EB7285181
:1017E00031090FB6F8943EBF0FBE2DBFADB7BEB7DF
:1017F000119688E1FE01319601900D928A95E1F7EC
:101800000E94CD110FB6F894DEBF0FBECDBF97FD7D
:1018100027C086E02D966EAD7FAD2D97869FD001B7
:10182000879FB00D1124AA0DBB1DAA59BF4FF2010D
:1018300001900D928A95E1F76F5F7F4F2D967FAFF4
:101840006EAF2D974101EECEC9010197B3010E9401
:101850003C1A9C0118CF0196B3010E943C1A24CF78
:101860002B96AEADBFAD2B97D7961C921401EACF45
:10187000CF92DF92EF92FF920F931F93CF93DF935C
:10188000FC01DC01AA59BF4F50E040E08C91882355
:1018900031F04F5F5F4F169648305105B9F7EA01B6
:1018A0002197DF01A859BF4F70E060E016E009E71B
:1018B0008081918164177507A9F497FD01969C01B9
:1018C0003595279597FF03C03195219531093183CF
:1018D0002083DF91CF911F910F91FF90EF90DF90C8
:1018E000CF9008951C9F90011D9F300D11242E0F45
:1018F0003F1FE901C659DF4F0990D881C02D1296CC
:10190000ED90FC9013976E01CE18DF0828593F4FD9
:10191000E90128813981ED90FC9011972E0D3F1D32
:10192000C29E7001C39EF00CD29EF00C11240E9D3D
:1019300090010F9D300D1124820F931F918380839E
:101940001696EB016F5F7F4FB3CFFC017383628309
:10195000558344836830710520F421E044305105FB
:1019600008F020E0208381E081830895FC018FEF5F
:101970009FEF9383828395838483108211820895DD
:10198000DC01FB0112962D913C911397828193818A
:101990002817390749F481E014964D915C91248110
:1019A00035814217530709F080E00895FC017183E7
:1019B0006083538342830895FC0111821082138255
:1019C00012820895FC0180819181860F971F918377
:1019D00080830895FC0182819381860F971F9383F2
:1019E00082830895FC0180819181089730F481E021
:1019F000228133812430310508F080E00895FC0114
:101A00008091010190910201A0910301B091040124
:101A100080839183A283B3838DE292E09583848354
:101A20008AE992E0978386838FEF9FEFDC018087BE
:101A30009187A287B38708959091C00095FFFCCF4E
:101A40008093C60008958F929F92BF92CF92DF92AB
:101A5000EF92FF920F931F93CF93DF938C014B0173
:101A60007A01D0E0C0E0FAE0CF2ED12CA8E0BA2E67
:101A7000CE15DF0564F0DF91CF911F910F91FF909C
:101A8000EF90DF90CF90BF909F908F900895CE0100
:101A9000B6010E943C1A892BA1F4B2B82FE748E3A3
:101AA00081E0215040408040E1F700C0000012B8C2
:101AB0009FE7E8E3F1E09150E040F040E1F700C03B
:101AC0000000F4012081F80180859185A285B3850D
:101AD000822728E030E0AC01BD0141705527662720
:101AE0007727B695A79597958795452B462B472B36
:101AF00041F0F0E28F27F3E89F27F8EBAF27FDEEE8
:101B0000BF272150310939F7F80180879187A287D3
:101B1000B387F40181914F010E941C0D2196A8CF3B
:101B20002F923F924F925F926F927F928F929F92ED
:101B3000AF92BF92CF92DF92EF92FF920F931F93DB
:101B4000CF93DF93CDB7DEB7C455D2400FB6F8942C
:101B5000DEBF0FBECDBF8C012B01DC016D917C91EE
:101B6000FB0101900020E9F73197AF01461B570BAD
:101B70000E94230DF80162817381FB010190002016
:101B8000E9F73197AF01461B570BC8010E94230D9F
:101B90007E01F1E0EF0EFF1E82E1E4E6F4E0D70102
:101BA00001900D928A95E1F7F70172968EEEDF01B2
:101BB0001D928A95E9F76201B6E6CB0ED11C12019F
:101BC0004201E6E98E0E911C9E012F5F3F4F3901C5
:101BD00056E4A52E53E0B52ED6018C91882381F1D1
:101BE00014962D913C91159742E94203C001439F01
:101BF000900D11248B539E4F9F938F9312962D918E
:101C00003C91AEE6A29FC001A39F900D1124815488
:101C10009F4F9F938F93BF92AF927F926F920E943C
:101C2000B91DB301C7010E94AE1DB6E0CB0ED11C99
:101C30000FB6F894DEBF0FBECDBFC814D90461F64D
:101C40006DE473E0C7010E94AE1DF7010190002012
:101C5000E9F73197AF014E195F09B701C8010E943A
:101C6000230D24E030E0CF5ADD4F39832883C1555E
:101C7000D240F12CE12C31EFD32E42E4C42ECE0120
:101C80004C96C95BDD4F99838883C754D240DE01EF
:101C9000AD5CBD4FC75BDD4FB983A883C954D2404B
:101CA000FE01EF5FFD4FC55BDD4FF983E883CB5449
:101CB000D24088E090E0CD5ADD4F99838883C355A8
:101CC000D24060E070E88CE393E42BE1E6E7F4E0D7
:101CD000D30101900D922A95E1F7C95BDD4FA881F0
:101CE000B981C754D240E5EE1D92EA95E9F720E0AC
:101CF00030E040E251E44B015C01C35BDD4F68839F
:101D0000CD54D240C25BDD4F9882CE54D240C15BED
:101D1000DD4F8883CF54D240C05BDD4FB882C055C1
:101D2000D240C35BDD4F688179818A819B81CD542C
:101D3000D2400E947019C35BDD4F6883CD54D240FE
:101D4000C25BDD4F7883CE54D240C15BDD4F8883C8
:101D5000CF54D240C05BDD4F9883C055D240C35BA7
:101D6000DD4F688179818A819B81CD54D2400E9468
:101D70005418C35BDD4F688379838A839B83CD547A
:101D8000D240C35BDD4F88819981CD54D2406AE057
:101D900070E00E943C1A9F938F93C35BDD4F888253
:101DA000CD54D240C25BDD4F9882CE54D240C15B4D
:101DB000DD4FA882CF54D240C05BDD4FB882C05502
:101DC000D240C35BDD4F688179818A819B81CD548C
:101DD000D2400E9454187F936F932EE733E03F93D5
:101DE0002F93C65BDD4F8881CA54D2408F93C75B67
:101DF000DD4F9881C954D2409F930E94B91D20E0C5
:101E000030E040E251E4C35BDD4FF882CD54D24074
:101E1000C25BDD4FE882CE54D240C15BDD4FD88239
:101E2000CF54D240C05BDD4FC882C055D240C35BA7
:101E3000DD4F688179818A819B81CD54D2400E9497
:101E40007019C35BDD4F6883CD54D240C25BDD4F58
:101E50007883CE54D240C15BDD4F8883CF54D240CB
:101E6000C05BDD4F9883C055D240C35BDD4F6881B6
:101E700079818A819B81CD54D2400E945418C35BE2
:101E8000DD4F688379838A839B83CD54D240C35BC3
:101E9000DD4F88819981CD54D2406AE070E00E9484
:101EA0003C1A9F938F93C35BDD4FF882CD54D24091
:101EB000C25BDD4FE882CE54D240C15BDD4FD88299
:101EC000CF54D240C05BDD4FC882C055D240C35B07
:101ED000DD4F688179818A819B81CD54D2400E94F7
:101EE00054187F936F93A9E8B3E0BF93AF93C45B9B
:101EF000DD4FF881CC54D240FF93C55BDD4F288184
:101F0000CB54D2402F930E94B91DBE016D5C7D4F12
:101F1000C3010E94AE1DBE016F5F7D4FC3010E94D1
:101F2000AE1DF30101900020E9F73197AF0146198A
:101F30005709B301C8010E94230D20E030E04CEDA9
:101F400052E4C35BDD4F8882CD54D240C25BDD4F8B
:101F50009882CE54D240C15BDD4FA882CF54D2408C
:101F6000C05BDD4FB882C055D240C35BDD4F688196
:101F700079818A819B81CD54D2400E94FF16CD5A2F
:101F8000DD4FA881B981C355D2401197CD5ADD4F9D
:101F9000B983A883C355D2400FB6F894DEBF0FBEF5
:101FA000CDBFAB2B09F091CE20E030E04CED52E4F8
:101FB000C35BDD4FF882CD54D240C25BDD4FE88277
:101FC000CE54D240C15BDD4FD882CF54D240C05BEB
:101FD000DD4FC882C055D240C35BDD4F6881798137
:101FE0008A819B81CD54D2400E94FF16F62EE72EA7
:101FF000D82EC92ECF5ADD4F28813981C155D24004
:1020000021503109CF5ADD4F39832883C155D24041
:10201000232B09F04ECED201D0966D0182E9A82E75
:102020009EE6B92E22EBE22E23E0F22EF10186A9E4
:102030008823A1F122AD33AD4A2D4203C001439F55
:10204000900D11248B539E4F9F938F9320AD31ADF4
:10205000B29EC001B39E900D112481549F4F9F9357
:102060008F93FF92EF927F926F920E94B91DF301BE
:1020700001900020E9F73197AF0146195709B301E4
:10208000C8010E94230D86E0280E311C0FB6F8947B
:10209000DEBF0FBECDBFC214D30441F6F801648188
:1020A0007581FB0101900020E9F73197AF01461BD4
:1020B000570BC8010E94230DD20111968C911197E4
:1020C0008F938C918F938FEF93E09F938F937F9259
:1020D0006F920E94B91DF30101900020E9F731973A
:1020E000AF0146195709B301C8010E94230DF80139
:1020F00066817781FB0101900020E9F73197AF01FC
:10210000461B570BC8010E94230D0F900F900F9094
:102110000F900F900F90CC5ADD4F0FB6F894DEBFA2
:102120000FBECDBFDF91CF911F910F91FF90EF9028
:10213000DF90CF90BF90AF909F908F907F906F90E7
:102140005F904F903F902F9008950F931F93CF93E0
:10215000DF938C01D62FC72F862F972F0E94AB09B4
:102160008D2F9C2F0E94CD0A8D2F9C2F0E94380C02
:102170006D2F7C2FC801DF91CF911F910F910C948F
:10218000900DCF93DF93EC010E94B60CCE01069622
:102190000E94B60C1D861C861F861E8680E090E07D
:1021A000A0E8BFEB8C8B9D8BAE8BBF8B888B998B04
:1021B000AA8BBB8BDF91CF9108954F925F926F9264
:1021C0007F928F929F92AF92BF92CF92DF92EF92C7
:1021D000FF920F931F93CF93DF93CDB7DEB7609736
:1021E0000FB6F894DEBF0FBECDBF5C0129833A83E2
:1021F0004B835C836D837E83CF82D886E986FA86A3
:102200000B871C870E94B60C85010A5F1F4FC8010F
:102210000E94B60C86E0FE013196D50101900D9228
:102220008A95E1F786E0FE013796D80101900D927C
:102230008A95E1F789859A852B813C81821B930BD6
:10224000D5011D969C938E931C970B851C852D8123
:102250003E81021B130B1F961C930E931E979C012D
:10226000990F440B550B2D873E874F87588BCA011A
:10227000B9010E948C184B016C01C801110FAA0B07
:10228000BB0B8D879E87AF87B88BBC01CD010E94A9
:102290008C187B018C019401A6018D869E86CF86C9
:1022A000D88A6D857E858F8598890E9470192B014B
:1022B0003C019701A801ED86FE860F87188B6D857E
:1022C0007E858F8598890E9470199B01AC014D868F
:1022D0005E866F86788A6D857E858F8598890E9457
:1022E000FF166D877E878F87988B6D857E858F859E
:1022F00098890E94E319D50154966D937D938D932F
:102300009C9357979401A601ED86FE860F87188B44
:102310006D857E858F8598890E947E17F501608B7B
:10232000718B828B938B60960FB6F894DEBF0FBED5
:10233000CDBFDF91CF911F910F91FF90EF90DF9074
:10234000CF90BF90AF909F908F907F906F905F9055
:102350004F900895CF93C1E0FB01208931894289D4
:102360005389FC0160897189828993890E94DD17F4
:102370008111C0E08C2FCF910895FB012089318914
:1023800042895389FC0160897189828993890E94FD
:10239000DD17881F8827881F0895CF93DF93CDB757
:1023A000DEB749895A892BA53CA5429FC001439FAE
:1023B000900D529F900D11246B897C8949A55AA5D7
:1023C000649F9001659F300D749F300D1124821B16
:1023D000930BDF91CF910895EF92FF920F931F938C
:1023E000CF93DF93EC017C0189E0E80EF11C60E4FF
:1023F00070E0C7010E944F158E010F5F1F4F64E010
:10240000C8010E948115229668EE73E0CE010E94F9
:10241000151668E370E0C7010E944F1568E0C80117
:102420000E94811568EE73E0CE010E941516C70167
:102430000E94791560E0C8010E94811560E177E291
:10244000CE01DF91CF911F910F91FF90EF900C94EF
:102450001516EF92FF920F931F93CF93DF93EC012A
:102460008B010E9477127E018FEFE81AF80A60E074
:10247000C7010E947D151C821E821D8218861F8244
:10248000CE0109960E945C15CE0189549F4F0E948F
:102490002316FE01E754FF4F81E0808384E090E043
:1024A0009283818368E070E0CE0184549F4F0E9444
:1024B0009E140A831B8360E0C7010E948115CE0130
:1024C0000E94EC11CE0188549F4FDF91CF911F9154
:1024D0000F91FF90EF900C94DA15089580EA8093A5
:1024E00000011092B90080E28093B8000895FC01C9
:1024F00080E88083CF010C946E12982F937089131B
:1025000005C0880F806A8093000108958FEF0895B9
:10251000FA0194EA24E89093BC008091BC0087FF04
:10252000FCCF809100018093BB002093BC00809180
:10253000BC0087FFFCCF8091B900883161F784EA45
:102540008093BC008091BC0087FFFCCF809100018C
:102550008093BB0084E88093BC008091BC0087FF1F
:10256000FCCF7093BB0084E88093BC008091BC00DA
:1025700087FFFCCF6093BB0084E88093BC00809110
:10258000BC0087FFFCCF8091BC0087FFFCCF84EAB2
:102590008093BC008091BC0087FFFCCF809100013C
:1025A0008F5F8093BB0084E88093BC008091BC0067
:1025B00087FFFCCF84E88093BC008091BC0087FF3C
:1025C000FCCF8091BB00808384E98093BC0080E0D5
:1025D000089594EA34E89093BC008091BC0087FF92
:1025E000FCCF809100018093BB003093BC008091B0
:1025F000BC0087FFFCCF8091B900883161F784EA85
:102600008093BC008091BC0087FFFCCF80910001CB
:102610008093BB0084E88093BC008091BC0087FF5E
:10262000FCCF7093BB0084E88093BC008091BC0019
:1026300087FFFCCF6093BB0084E88093BC0080914F
:10264000BC0087FFFCCF84EA8093BC008091BC0073
:1026500087FFFCCF809100018F5F8093BB0084E8EF
:102660008093BC008091BC0087FFFCCF84EC2111DB
:1026700005C084E98093BC0080E00895213009F40E
:1026800084E88093BC009091BC0097FFFCCFFA01D6
:102690009091BB0091932150AF01E9CF94EA24E8D7
:1026A0009093BC008091BC0087FFFCCF809100011B
:1026B0008093BB002093BC008091BC0087FFFCCFBF
:1026C0008091B900883161F784EA8093BC008091E1
:1026D000BC0087FFFCCF809100018093BB0084E8A1
:1026E0008093BC008091BC0087FFFCCF7093BB003F
:1026F00084E88093BC008091BC0087FFFCCF60938E
:10270000BB0084E88093BC008091BC0087FFFCCFB5
:102710004093BB0084E88093BC008091BC0087FF9D
:10272000FCCF84E98093BC0080E00895FB01260F74
:10273000372F311DDC018C918150990B862B9F2BFB
:102740002817390718F09C012F5F3F4F822F8E1BEF
:1027500024EA34E82093BC009091BC0097FFFCCFA2
:10276000909100019093BB003093BC009091BC000D
:1027700097FFFCCF9091B900983161F794EA90935C
:10278000BC009091BC0097FFFCCF9091000190930A
:10279000BB0094E89093BC009091BC0097FFFCCFE5
:1027A000F093BB0094E89093BC009091BC0097FF1D
:1027B000FCCFE093BB0094E89093BC009091BC00E8
:1027C00097FFFCCF982F24E8911104C094E99093CF
:1027D000BC000895FA0131913093BB002093BC00F6
:1027E0003091BC0037FFFCCF9150AF01EDCFDF92AD
:1027F000EF92FF920F931F93CF93DF93D82ED92F91
:102800007B018A01C22F2C2FA801B7018D2D9D2F8E
:102810000E949613282F30E0E20EF31EC81B020F11
:10282000131FC111F0CF80E0DF91CF911F910F9165
:10283000FF90EF90DF9008950F931F93CF93DF9356
:10284000CDB7DEB72A970FB6F894DEBF0FBECDBF67
:10285000182F092F80919804811107C089E994E00D
:102860000E94DA1581E0809398040F931F938AE405
:1028700093E09F938F938E010F5F1F4F1F930F93D2
:102880000E94B91D0F900F900F900F900F900F9016
:10289000F80161918F0189E994E00E94E8158FE0C9
:1028A00097E20197F1F700C00000F80180818111E3
:1028B000EFCF6AE089E994E00E94E8158FE097E2A3
:1028C0000197F1F700C000002A960FB6F894DEBF1A
:1028D0000FBECDBFDF91CF911F910F9108950F9340
:1028E0001F93CF93DF938C0180919804811107C0CF
:1028F00089E994E00E94DA1581E080939804E80168
:10290000699189E994E00E94E8158FE097E20197C8
:10291000F1F700C0000088818111F2CF6AE089E9F7
:1029200094E00E94E8158FE097E20197F1F700C06C
:102930000000DF91CF911F910F910895FC0181E07C
:102940008083728361830895FC01F8948DB3836062
:102950008DBBA9E6B0E08C918B608C93789481E07C
:1029600080830895FC0189B190E021813281822326
:102970009323892B79F08FE39CE90197F1F700C04D
:10298000000029B130E0818192812823392381E040
:10299000232B09F480E00895CF93DF93EC010E948C
:1029A000B214882339F08881882321F01882DF91BE
:1029B000CF91089589B190E029813A8182239323B0
:1029C000892B11F481E0888380E0F1CF10927C00A4
:1029D00086E880937A00089510927A000895809195
:1029E0007C00807E80937C0080917C006770682BE7
:1029F00060937C0080917A00806480937A0080915B
:102A00007A0084FFFCCF80917A00806180937A0005
:102A1000209178008091790090E0982F8827820F8C
:102A2000911D0895CF93DF9300D000D0CDB7DEB7CE
:102A30006D527109660F771F660F771FFC01E60F55
:102A4000F71F20E030E040E854E46081718182812A
:102A500093810E9470199B01AC0160E074E284EFE5
:102A60009AE40E94E21769837A838B839C8369814D
:102A70007A818B819C810E94BA1A69837A838B83C5
:102A80009C8369817A818B819C810E945418CB013F
:102A90000F900F900F900F90DF91CF9108950E94AB
:102AA00012158093B3008093B40082E68093B00047
:102AB00085E08093B100089528E9E5E0F1E0DC01CC
:102AC00001900D922A95E1F7FC01E856FF4F29E0AD
:102AD00030E031832083DC01A656BF4F24E1EDE9CD
:102AE000F1E001900D922A95E1F762E570E00C9417
:102AF0004F1562E570E00C944F15FC01608362B9DC
:102B00000895FC01608362B908958F929F92AF92FD
:102B1000BF92CF92DF92EF92FF920F931F93CF93CA
:102B2000DF9300D0CDB7DEB77A836983D42EC52E6C
:102B3000B22EA32E780110E000E088E0982E94E0F9
:102B4000892E0E151F057CF00F900F90DF91CF910D
:102B50001F910F91FF90EF90DF90CF90BF90AF90BB
:102B60009F908F90089592B86D2D7C2DCE01019687
:102B70000E94151682B86B2D7A2DCE0101960E9407
:102B800015160F5F1F4FDDCFFC0180810895FC01FA
:102B9000618372834383548367BD48BD81EA84BDEA
:102BA00081E085BD0895FC01608365B90895FC014D
:102BB000808108951092C5008FEC8093C40010921C
:102BC000C00088E18093C10086E08093C200089530
:102BD000FC018091C00085FFFCCF60836093C6003C
:102BE00008958091C00087FFFCCF8091C6000895B2
:102BF000FC01718360830895DC01ED91FC911182E9
:102C00001082109285001092840070938900609366
:102C1000880080E48093800085E08093810010929A
:102C2000820082E280936F000895CF93DF93EC01DE
:102C30000E94FC15E881F98180819181892BE1F363
:102C4000DF91CF9108950C94E61408950F931F938C
:102C5000CF93DF9300D000D0CDB7DEB78C0182B127
:102C600060E0C8010E94EF1489839A832FE788E30C
:102C700091E0215080409040E1F700C0000082B117
:102C800060E0C8010E94EF14A981BA818A179B07EE
:102C900018F4A981BA81CD01B0E0A0E089839A83BC
:102CA000AB83BC83BC01CD010E948A182AE038E2C4
:102CB00040EA5BE369837A838B839C8369817A81B1
:102CC0008B819C810E94701969837A838B839C839A
:102CD00069817A818B819C810F900F900F900F906A
:102CE000DF91CF911F910F910895CF93DF9300D083
:102CF00000D0CDB7DEB70E9426162AE939E949E9A6
:102D00005FEB69837A838B839C8369817A818B8172
:102D10009C810E946A1A20E030E048ED51E469830A
:102D20007A838B839C8369817A818B819C810E94C9
:102D3000701969837A838B839C8369817A818B8103
:102D40009C810F900F900F900F90DF91CF9108957D
:102D5000CF93DF9300D000D0CDB7DEB70E947516B9
:102D60002CE53FE842E250E469837A838B839C83BD
:102D700069817A818B819C810E94E21769837A83C1
:102D80008B839C8369817A818B819C810F900F90CA
:102D90000F900F90DF91CF910895CDB7DEB7C85651
:102DA000D1400FB6F894DEBF0FBECDBF0E94C00069
:102DB00062E974E0CE0101960E942912BE016F5FA4
:102DC0007F4FCE0180549F4F0E945F01CE018054FF
:102DD0009F4F0E945C04CE0188549F4F0E94EC14C8
:102DE000CE0101960E946D1290E080E0C859DE4F3E
:102DF0000FB6F894DEBF0FBECDBF08955058BB2765
:102E0000AA270E9416170C9429190E941B1938F042
:102E10000E94221920F039F49F3F19F426F40C94F3
:102E2000F1180EF4E095E7FB0C94EB18E92F0E94E3
:102E30003A1958F3BA17620773078407950720F009
:102E400079F4A6F50C945C190EF4E0950B2EBA2FCC
:102E5000A02D0B01B90190010C01CA01A0011124A0
:102E6000FF27591B99F0593F50F4503E68F11A164C
:102E7000F040A22F232F342F4427585FF3CF4695DD
:102E800037952795A795F0405395C9F77EF41F16FF
:102E9000BA0B620B730B840BBAF09150A1F0FF0FC9
:102EA000BB1F661F771F881FC2F70EC0BA0F621FB5
:102EB000731F841F48F4879577956795B795F795A5
:102EC0009E3F08F0B0CF9395880F08F09927EE0F3A
:102ED0009795879508950E941B1960F080E891E00E
:102EE00009F49EEF0E94221928F040E851E071F4A5
:102EF0005EEF0CC00C94F1180C945C19E92FE0788B
:102F00000E943A1940F3092E052AB1F32617370714
:102F10004807590738F00E2E07F8E02569F0E0253C
:102F2000E0640AC0EF6307F8009407FADB01B90117
:102F30009D01DC01CA01AD01EF930E94F9170E94C7
:102F400029190E94AE175F91552339F02BED3FE010
:102F500049E450FD49EC0C94FF160895DF93DD27FA
:102F6000B92FBF7740E85FE31616170648075B07DF
:102F700018F4D92F0E9468199F938F937F936F93B2
:102F80000E94231AECE7F0E00E94F4180E9429192D
:102F90002F913F914F915F910E948319DD2351F052
:102FA0009058A2EA2AED3FE049EC5FE3D0785D2734
:102FB0000E941617DF910C9429190E94C71808F473
:102FC00081E008950E94F6170C9429190E94221995
:102FD00058F00E941B1940F029F45F3F29F00C942F
:102FE000EB1851110C945D190C94F1180E943A19C8
:102FF00068F39923B1F3552391F3951B550BBB2728
:10300000AA2762177307840738F09F5F5F4F220F6C
:10301000331F441FAA1FA9F335D00E2E3AF0E0E863
:1030200032D091505040E695001CCAF72BD0FE2FAD
:1030300029D0660F771F881FBB1F26173707480741
:10304000AB07B0E809F0BB0B802DBF01FF279358F9
:103050005F4F3AF09E3F510578F00C94EB180C94BA
:103060005D195F3FE4F3983ED4F3869577956795B5
:10307000B795F7959F5FC9F7880F911D969587952E
:1030800097F90895E1E0660F771F881FBB1F62174D
:1030900073078407BA0720F0621B730B840BBA0B0B
:1030A000EE1F88F7E09508950E945B186894B111AF
:1030B0000C945D1908950E94421988F09F5798F06A
:1030C000B92F9927B751B0F0E1F0660F771F881F2D
:1030D000991F1AF0BA95C9F714C0B13091F00E9447
:1030E0005C19B1E008950C945C19672F782F88273C
:1030F000B85F39F0B93FCCF3869577956795B3956E
:10310000D9F73EF490958095709561957F4F8F4FDC
:103110009F4F0895E89409C097FB3EF490958095E1
:10312000709561957F4F8F4F9F4F9923A9F0F92F8D
:1031300096E9BB279395F695879577956795B7950B
:10314000F111F8CFFAF4BB0F11F460FF1BC06F5FF1
:103150007F4F8F4F9F4F16C0882311F096E911C003
:10316000772321F09EE8872F762F05C0662371F024
:1031700096E8862F70E060E02AF09A95660F771F38
:10318000881FDAF7880F9695879597F90895990F14
:103190000008550FAA0BE0E8FEEF16161706E80721
:1031A000F907C0F012161306E407F50798F0621B42
:1031B000730B840B950B39F40A2661F0232B242B17
:1031C000252B21F408950A2609F4A140A6958FEF36
:1031D000811D811D089597F99F6780E870E060E088
:1031E00008959FEF80EC0895DF93CF931F930F9383
:1031F000FF92EF92DF927B018C01689406C0DA2E79
:10320000EF010E948319FE01E894A5912591359163
:1032100045915591A6F3EF010E941617FE01970103
:10322000A801DA9469F7DF90EF90FF900F911F915A
:10323000CF91DF91089500240A94161617061806F8
:103240000906089500240A941216130614060506AA
:103250000895092E0394000C11F4882352F0BB0F3B
:1032600040F4BF2B11F460FF04C06F5F7F4F8F4F9E
:103270009F4F089557FD9058440F551F59F05F3FD9
:1032800071F04795880F97FB991F61F09F3F79F088
:1032900087950895121613061406551FF2CF46950A
:1032A000F1DF08C0161617061806991FF1CF86958C
:1032B0007105610508940895E894BB276627772770
:1032C000CB0197F908950E94C71808F48FEF08956D
:1032D0009B01AC0160E070E080E89FE30C94E21792
:1032E0000E9483190C9429190E941B1938F00E941E
:1032F000221920F0952311F00C94EB180C94F1187E
:1033000011240C945D190E943A1970F3959FC1F332
:10331000950F50E0551F629FF001729FBB27F00D83
:10332000B11D639FAA27F00DB11DAA1F649F6627D8
:10333000B00DA11D661F829F2227B00DA11D621F27
:10334000739FB00DA11D621F839FA00D611D221FE1
:10335000749F3327A00D611D231F849F600D211DC5
:10336000822F762F6A2F11249F5750409AF0F1F048
:1033700088234AF0EE0FFF1FBB1F661F771F881FB1
:1033800091505040A9F79E3F510580F00C94EB18E6
:103390000C945D195F3FE4F3983ED4F386957795DE
:1033A0006795B795F795E7959F5FC1F7FE2B880F57
:1033B000911D9695879597F9089519F416F40C9434
:1033C000F1180C94271A0E944219B8F39923C9F3F3
:1033D000B6F39F57550B87FF0E94351A0024A0E6CD
:1033E00040EA900180585695979528F4805C660FC6
:1033F000771F881F20F026173707480730F4621B15
:10340000730B840B202931294A2BA6951794079416
:10341000202531254A2758F7660F771F881F20F08F
:1034200026173707480730F4620B730B840B200D07
:10343000311D411DA09581F7B901842F9158880F46
:103440009695879508959B01AC010C9470199F3F48
:1034500031F0915020F4879577956795B795880F4F
:10346000911D9695879597F9089591505040660F54
:10347000771F881FD2F7089597FB072E16F4009444
:1034800007D077FD09D00E94561A07FC05D03EF4FC
:10349000909581959F4F0895709561957F4F089500
:1034A000EE0FFF1F0590F491E02D0994AA1BBB1BA2
:1034B00051E107C0AA1FBB1FA617B70710F0A61B34
:1034C000B70B881F991F5A95A9F780959095BC0155
:1034D000CD010895FA01EE0FFF1F30962105310549
:1034E000A1F16115710561F48038BFE39B0749F1D3
:1034F00068949038810561F08038BFEF9B0741F0F8
:1035000099234AF5FF3FE1053105210519F1E894BA
:103510000894E795D901AA2329F4AB2FBE2FF85FB1
:10352000D0F310C0FF5F70F4A695E0F7F73950F0C4
:1035300019F0FF3A38F49F779F930DD00F9007FC56
:103540009058089546F00C94F11860E070E080E81F
:103550009FE308954FE79F775F934F933F932F9398
:103560000E94751B2F913F914F915F910E9470199E
:103570000C94E61A0E944219E8F09E37E8F096395A
:10358000B8F49E3848F4672F782F8827985FF9CFD2
:1035900086957795679593959539D0F3B62FB17049
:1035A0006B0F711D811D20F4879577956795939515
:1035B0000C94181B0C94271A0C945D1929F416F01E
:1035C0000C94EB180C945C190C94F1180E9442199D
:1035D000A8F39638A0F707F80F92E8942BE33AEA9D
:1035E00048EB5FE70E9486190F920F920F924DB73A
:1035F0005EB70F920E94BD1BE9EAF0E00E94F4184A
:103600004F915F91EF91FF91E595EE1FFF1F49F0FC
:10361000FE57E0684427EE0F441FFA95E1F7419505
:10362000550B0E94371B0F9007FE0C9468190895E4
:10363000882371F4772321F09850872B762F07C0C9
:10364000662311F499270DC09051862B70E060E03D
:103650002AF09A95660F771F881FDAF7880F9695DC
:10366000879597F908950C94EB180C94271A0E94EB
:103670004219D8F39923C9F3940F511DA3F3915024
:10368000504094F059F0882332F0660F771F881F5E
:1036900091505040C1F79E3F51052CF7880F911D66
:1036A0009695879597F908955F3FACF0983E9CF00A
:1036B000BB27869577956795B79508F4B160939584
:1036C000C1F7BB0F58F711F460FFE8CF6F5F7F4F72
:1036D0008F4F9F4FE3CF0C945D1916F00C94271A6F
:1036E0000C94F11868940C94EB180E944219A8F3FA
:1036F0009923C1F3AEF3DF93CF931F930F93FF9200
:10370000C92FDD2788232AF02197660F771F881F8E
:10371000DAF720E030E040E85FEB9FE3883920F003
:10372000803E38F021968F770E94FF16E1EDF0E0A1
:1037300004C00E94FF16EEEFF0E00E94F4188B0127
:10374000BE01EC01FB2E6F5771097595771F880B31
:10375000990B0E948C1828E132E741E35FE30E9455
:103760008319AF2D9801AE01FF900F911F91CF915A
:10377000DF910E9416170C942919FA01DC01AA0F97
:10378000BB1F9B01AC01BF5728F4222733274427D6
:10379000507820C0B75190F4AB2F00244695379550
:1037A0002795011CA395D2F3002071F0220F331F3F
:1037B000441FB395DAF30ED00C94FE1661307105F8
:1037C000A0E88A07B94630F49B01AC016627772749
:1037D00088279078309621F0208331834283538369
:1037E0000895CF93DF93DC01FB01CA012C91ED0119
:1037F0003081388311962083319601971816190667
:10380000ACF3DF91CF910895B0E0A0E0EAE0FCE1F5
:103810000C945D206C01D62FC72F8A017901F90124
:103820000995B80197FF15C08D2F9C2FF7010995B9
:1038300097FD08C0B801C601F701099597FD16C0AC
:10384000DC2DCD2D8D2F9C2FCDB7DEB7E8E00C946D
:1038500079208D2F9C2FF70109951816190694F3DE
:10386000B801C601F701099597FDEACFD02FC12F06
:10387000E9CFAAE0B0E0EFE3FCE10C9453208C0127
:1038800049875A87690129853A85319521953109FA
:103890003E832D8349845A84400E511E6730710542
:1038A00078F589859A85689F5001699FB00C789F4B
:1038B000B00C1124A00EB11E4A145B0420F02A960D
:1038C000E2E10C946F20720113C0470129853A850B
:1038D000821A930AB701C401F60109951816190650
:1038E00054F449855A85B401C7010E94F11B740143
:1038F0000E151F0550F3E985FA854E0E5F1EDCCFCD
:10390000CB019695879529853A85829F5001839FA3
:10391000B00C929FB00C1124A00EB11ECB010197E8
:10392000829F1001839F300C929F300C11247801EC
:10393000E20CF31C6730710509F443C0693271056C
:1039400008F46AC083E0769567958A95E1F7629FEF
:103950004001639F900C729F900C11243401660CFF
:10396000771CA801460D571DB801680D791D9601F9
:10397000C8010E94041C89839B83A501480D591D21
:10398000882799278819990998878F839601B50107
:10399000C501881999090E94041C5C016F81788512
:1039A0006E0D7F1D9601A701C701861997090E9418
:1039B000041CAC019601B50189819B810E94041C05
:1039C0005C0149855A85B501C8010E94F11B42017D
:1039D00052012701340119821A82EA14FB04A0F172
:1039E000B801C501F60109959C0118161906E4F104
:1039F000232B69F449855A85B501C3010E94F11B47
:103A0000E985FA856E0E7F1EF1E0F9831A82298519
:103A10003A85A20EB31EE1CFA70109831B83CACF4B
:103A2000232B69F449855A85B201C7010E94F11B15
:103A30002D813E81420E531E31E039831A82EB8084
:103A4000FC80EA14FB0480F489859A85280E391ECF
:103A5000200E311EE981FA81EF2BC9F582149304FF
:103A600008F02DCF74012BC0B801C701F6010995EC
:103A70009C018D819E818E0D9F1D9C838B8337FFC2
:103A8000CFCF49855A85B701C5010E94F11BEB8054
:103A9000FC8031E03983BACF570129853A85A21AD3
:103AA000B30AB701C501F60109951816190654F4B1
:103AB00049855A85B501C7010E94F11B75010E1594
:103AC0001F0550F3E985FA858E0E9F1EC7CF45016D
:103AD00086189708A301401B510B841695060CF419
:103AE000A4011416150634F4B501641B750BC80146
:103AF0000E94F11B92012E193F097901A10144197D
:103B0000550989859A85481B590B2417350708F4F0
:103B1000A9011416150634F4B101641B750BC50117
:103B20000E94F11BE985FA85E815F90548F4C401FE
:103B3000BF010E94561A9601AF01C8010E94391CAC
:103B400029853A852E153F0508F0B9CE81010E1959
:103B50001F09C701B9010E94561A9CCEFB01DC0166
:103B60000D900020E9F7119701900D920020E1F7E8
:103B70000895AEE0B0E0EFEBFDE10C9461200D891B
:103B80001E8986E08C831A8309838FEF9FE79E83CB
:103B90008D83AE01475E5F4F6F89788DCE010196B0
:103BA0000E94DC1D2F813885020F131FF80110823F
:103BB0002E96E4E00C947D20AFE0B0E0E2EEFDE173
:103BC0000C9453207C013B018A01DC0117961C9266
:103BD0001E92169713968C9181FFBEC19AE0292EF2
:103BE000FE0131964F01D70113969C91F30193FD8D
:103BF000859193FF81913F01882309F444C1853267
:103C000039F493FD859193FF81913F01853229F429
:103C1000B70190E00E94C51FE6CFB12C412C512C7A
:103C2000BFE1B51538F08B3209F188F4803201F12B
:103C3000833221F157FC3AC020ED280F2A3040F59D
:103C400056FE1FC0B29C200D1124B22E06C08D322C
:103C500091F0803379F7689450F8F30193FD8591E2
:103C600093FF81913F018111DBCF20C0689451F80F
:103C7000689452F8F2CF689453F8EFCF689454F8F0
:103C8000ECCF429C200D1124422E689455F8E5CFCC
:103C90008E3229F456FCF7C0689456F8DECF8C3685
:103CA00019F4689457F8D9CF8836B9F2982F9F7DC8
:103CB00095549330C0F0833681F18337A1F1833579
:103CC00009F05BC0D801CD90DD908D016B2D70E0C7
:103CD00056FC02C06FEF7FEFC6010E94AF1F5C0170
:103CE000689457F80AC00C5F1F4FEFE3E983AA24DA
:103CF000A394B12C6401E89457F853FE29C0342CE6
:103D0000A114B10451F5332009F46DCFB70180E25D
:103D100090E00E94C51F3A94F6CFD8018C91898318
:103D20000E5F1F4FE4CFF801C190D1908F016B2D32
:103D300070E056FC02C06FEF7FEFC6010E94BA1F11
:103D40005C01D9CFB70180E290E00E94C51F4A9480
:103D50004A141B0409F0B0F7D2CFF60157FC859145
:103D600057FE81916F01B70190E00E94C51F31108D
:103D70003A94B1E0AB1AB108C3CF843619F0893652
:103D800009F071C0F80157FE67C06191719181918E
:103D900091918F01E52DEF76DE2E97FF09C090956A
:103DA0008095709561957F4F8F4F9F4F6894D7F89E
:103DB0002AE030E0A4010E94F51FC82EC818AC2CE0
:103DC0005D2CD6FE0CC0E89450F8CB1440F4D4FE21
:103DD00005C0D2FC03C05D2D5E7E552EAB2C54FE7B
:103DE00093C0FE01EC0DF11D8081803309F085C088
:103DF000652D697E562E752D7870372E53FC93C035
:103E000050FE8DC0BC2CA41410F4B40CBA1854FE8F
:103E100090C0B70180E390E00E94C51F52FE07C02A
:103E200088E751FC88E590E0B7010E94C51FCB14DC
:103E300008F48BC0CA94D12C8FEFC81AD80AC80CCA
:103E4000D91CD6018E916D01B70190E00E94C51F6B
:103E50008C149D04B1F757CF61917191072E000C1E
:103E6000880B990B96CFD52CE894D4F82AE08537A7
:103E700029F1F52DF97FDF2E8037A1F058F4883530
:103E8000A1F08F36D1F0F701868197812F96E2E17C
:103E90000C946F208837B9F7D4FE02C06894D2F82A
:103EA00020E10CC06894D4F8F7CF54FE03C02F2F44
:103EB0002660D22E20E132E002C028E030E0F80196
:103EC000D7FE15C041915191619171914C875D87E9
:103ED0006E877F878F01A4016C857D858E859F8588
:103EE0000E94F51FC82EC818E894D7F868CF8191B2
:103EF0009191AC0170E060E0E9CF52FC02C0A39464
:103F00007ACFA394A39477CF852D867809F473CFC5
:103F1000F6CFB70180E290E00E94C51FA394A414DD
:103F2000C0F3312C74CF342C3A18A41408F46FCF9A
:103F3000F8CF852D867809F47ACF8BE251FE80E2A6
:103F400057FC8DE2B70190E070CFB70180E390E0BD
:103F50000E94C51FBA946BCF8FEF9FEF97CFFC01E4
:103F60000590615070400110D8F7809590958E0FA4
:103F70009F1F0895FC016150704001900110D8F717
:103F8000809590958E0F9F1F08950F931F93CF9349
:103F9000DF93182F092FEB018B8181FD09C01FEFE3
:103FA0000FEF812F902FDF91CF911F910F910895E7
:103FB00082FF14C02E813F818C819D812817390793
:103FC0003CF4E881F981CF010196998388831083BD
:103FD0008E819F8101969F838E83E3CFE885F9854B
:103FE000812F0995892BA1F3DACFFA01AA2728306E
:103FF00051F1203181F1E8946F936E7F6E5F7F4FB6
:104000008F4F9F4FAF4FB1E03ED0B4E03CD0670F31
:10401000781F891F9A1FA11D680F791F8A1F911D84
:10402000A11D6A0F711D811D911DA11D20D009F4D4
:1040300068943F912AE0269F11243019305D319316
:10404000DEF6CF010895462F4770405D4193B3E0FF
:104050000FD0C9F7F6CF462F4F70405D4A3318F0A6
:10406000495D31FD4052419302D0A9F7EACFB4E057
:10407000A6959795879577956795BA95C9F700970F
:104080006105710508959B01AC010A2E06945795B0
:10409000479537952795BA95C9F7620F731F841F07
:1040A000951FA01D08952F923F924F925F926F929D
:1040B0007F928F929F92AF92BF92CF92DF92EF92B8
:1040C000FF920F931F93CF93DF93CDB7DEB7CA1B39
:1040D000DB0B0FB6F894DEBF0FBECDBF09942A8864
:1040E000398848885F846E847D848C849B84AA840C
:1040F000B984C884DF80EE80FD800C811B81AA8199
:10410000B981CE0FD11D0FB6F894DEBF0FBECDBF63
:10411000ED010895F894FFCFBC04C204C504C8049F
:10412000CB04CE04D104D40404063B065E067B0611
:10413000C606D9060D07180740074409A009A409B7
:0A414000A6098D099D099509920951
:10414A00A0A102FC020000DC427B14E942A4F0F6C2
:10415A00425CCF02430A970A437BD412435C8F1B0B
:10416A00435CCF2443299C2E43000039430000447A
:10417A004366A64F4300005C437B146943A4F07670
:10418A0043A4D082430A978A437BD49243A4909B48
:10419A0043A4D0A443719DAE43B8FEB8430000C403
:1041AA004366A6CF430000DC437B14E943A4F0F640
:1041BA004300D00244AE970A441FD5124400901B14
:1041CA0044A4D02444719D2E445CFF38445CFF43D0
:1041DA00440AA74F4400005C44000000003E003E31
:1041EA00004A0045004600430041003E00410043AA
:1041FA00006465627574004849540050524F434840
:10420A0045004E4F5244004E4F52444553540053BA
:10421A00554445535400535544005355444F55454E
:10422A005354004E4F52444F55455354006D6175D7
:10423A007661697320616E676C6500415543554E1E
:10424A0000494E5445525550540045585445524E13
:10425A004500484155540044524F49540050455472
:10426A004954004752414E4400256C78003C74651D
:10427A00787420783D2739362720793D2733362729
:10428A0020666F6E742D66616D696C793D27617267
:10429A0069616C2720666F6E742D73697A653D2794
:1042AA003230272066696C6C3D27626C7565273E43
:1042BA0073656374696F6E203031202D2D657175B9
:1042CA006970652031303132202D2D4B202D20523E
:1042DA00494D3C2F746578743E003C2F7376673ED7
:1042EA00003C7376672077696474683D2731303003
:1042FA002527206865696768743D2731303025278E
:10430A0020786D6C6E733D27687474703A2F2F771E
:10431A0077772E77332E6F72672F323030302F73C4
:10432A007667272076696577626F783D2730203077
:10433A00203131353220353736273E003C726563ED
:10434A00742077696474683D273936302720686598
:10435A00696768743D273438302720783D27393615
:10436A002720793D27343827207374726F6B653D97
:10437A0027626C61636B272066696C6C3D276E6FE0
:10438A006E65272F3E002025642C256400272066B1
:10439A00696C6C3D27677265656E27207374726F4E
:1043AA006B653D27626C61636B27207374726F6B58
:1043BA00652D77696474683D2732272F3E0020787F
:1043CA003D2725642E2564270020793D2725642E64
:1043DA00256427207374726F6B653D27626C616375
:1043EA006B272066696C6C3D27626C61636B272FB3
:1043FA003E003C636972636C652063783D272564DF
:10440A00272063793D2725642720723D27313027ED
:10441A00207374726F6B653D27626C61636B272032
:10442A007374726F6B652D77696474683D273227E0
:10443A002066696C6C3D2767726579272F3E003CC0
:10444A007465787420783D2739362720793D2735D9
:10445A0035302720666F6E742D66616D696C793D03
:10446A0027617269616C2720666F6E742D73697A91
:10447A00653D273230272066696C6C3D27626C7572
:10448A0065273E41495245203A20256420706F75C0
:10449A006365732063617272656573203C2F74656E
:1044AA0078743E003C706F6C79676F6E20706F692C
:1044BA006E74733D27003C72656374207769647477
:1044CA00683D273527206865696768743D27352761
:0244DA000000E0
:00000001FF
