:100000000C947F000C94EA000C9419010C949C0051
:100010000C949C000C949C000C949C000C949C00F0
:100020000C949C000C949C000C949C000C949C00E0
:100030000C949C000C949E000C949C000C949C00CE
:100040000C949C000C949C000C949C000C949C00C0
:100050000C949C000C949C000C949C000C949C00B0
:100060000C949C000C949C000C949C000C949C00A0
:100070000C949C000C949C000C949C0007634236EA
:10008000B79BD8A71A39685618AEBAAB558C1D3C29
:10009000B7CC5763BD6DEDFD753EF6177231BF00ED
:1000A0000000803F08000000BE922449123EABAA27
:1000B000AA2ABECDCCCC4C3E00000080BEABAAAA82
:1000C000AA3E00000000BF000000803F00000000CA
:1000D00000084178D3BB4387D1133D190E3CC3BD03
:1000E0004282AD2B3E68EC8276BED98FE1A93E4CB0
:1000F00080EFFFBE01C4FF7F3F000000000011241D
:100100001FBECFEFD8E0DEBFCDBF12E0A0E0B1E070
:10011000E0EDF7E202C005900D92A433B107D9F7E4
:1001200022E0A4E3B2E001C01D92AA33B207E1F7D6
:100130000E94CB0C0C94D5130C9400008F939F93CA
:1001400081E090E090933502809334029F918F91EB
:100150001895F89483EF8AB98FEF84B98EEF81B93F
:100160001BB88DB383608DBBE9E6F0E080818B60C6
:10017000808378948DEA91E00C946D0A9B0188232A
:10018000A9F089B190E086239323892B69F08FE34E
:100190009CE90197F1F700C0000089B190E02823A5
:1001A000392381E0232BA9F480E013C049B150E04A
:1001B00046235323452B69F48FE39CE90197F1F71C
:1001C00000C0000089B190E02823392381E0232B6F
:1001D00059F708951F920F920FB60F9211242F9383
:1001E0003F934F935F936F937F938F939F93AF93BF
:1001F000BF93EF93FF9364E070E081E00E94BE0044
:10020000882331F081E090E09093370280933602AA
:10021000FF91EF91BF91AF919F918F917F916F91DE
:100220005F914F913F912F910F900FBE0F901F90B4
:1002300018951F920F920FB60F9211242F933F9390
:100240004F935F936F937F938F939F93AF93BF93DE
:10025000EF93FF9368E070E080E00E94BE00882387
:1002600031F082E090E09093370280933602FF9164
:10027000EF91BF91AF919F918F917F916F915F911E
:100280004F913F912F910F900FBE0F901F90189597
:10029000FC018FEF9FEF968385831186108615866C
:1002A000148617861686108A728B618B0895CF93F9
:1002B000DF93EC0189899A8960E204960E94D10B50
:1002C00089899A894FEF50E06FEF70E004960E94A1
:1002D000C50B8FE19EE40197F1F700C0000089890A
:1002E0009A8960E004960E94D10B9FEF29EF80E08D
:1002F000915020408040E1F700C0000089899A8930
:1003000060E204960E94D10B89899A8950E040E00E
:1003100070E060E004960E94C50B8FE19EE40197B7
:10032000F1F700C00000DF91CF910895CF93DF93E4
:10033000EC0189899A8964E004960E94D10B89892D
:100340009A894FEF50E06FEF70E004960E94C50B62
:100350008FE19EE40197F1F700C0000089899A8936
:1003600060E004960E94D10B9FEF29EF80E091504E
:1003700020408040E1F700C0000089899A8964E04C
:1003800004960E94D10B89899A8950E040E070E080
:1003900060E004960E94C50B8FE19EE40197F1F79F
:1003A00000C00000DF91CF9108953F924F925F927D
:1003B0006F927F928F929F92AF92BF92CF92DF9275
:1003C000EF92FF920F931F93CF93DF9300D000D053
:1003D000CDB7DEB77C01D62EC72E5A014901062FB4
:1003E000172F44244394512C33243394F7018189EB
:1003F000928989549F4F0E94730C69837A838B83FF
:100400009C8369817A818B819C810E94E00D3B01F4
:1004100069837A82C7014420A9F00E94570189812B
:100420009A818A159B058CF4892B79F0C3010E946F
:100430001A0A83EB91E00E946D0A015011095524BC
:10044000539405C00E949601EACF5110F2CF17FFD6
:1004500004C043240D2D1C2D512CE981FA81E8158F
:10046000F90524F6EF2B11F287EB91E00F900F9036
:100470000F900F90DF91CF911F910F91FF90EF9010
:10048000DF90CF90BF90AF909F908F907F906F90B4
:100490005F904F903F900C946D0ACF93DF93EC01E7
:1004A00089899A8960E204960E94D10B89899A8988
:1004B0004FEF50E06FEF70E004960E94C50B8FE4A1
:1004C00093EC0197F1F700C0000089899A8960E0F8
:1004D00004960E94D10B89899A8950E040E070E02F
:1004E00060E004960E94C50B8FE493EC0197F1F74E
:1004F00000C00000DF91CF910895CF93DF93EC010E
:1005000089899A8964E004960E94D10B89899A8925
:100510004FEF50E06FEF70E004960E94C50B8FE440
:1005200093EC0197F1F700C0000089899A8960E097
:1005300004960E94D10B89899A8950E040E070E0CE
:1005400060E004960E94C50B8FE493EC0197F1F7ED
:1005500000C00000DF91CF910895EF92FF920F93BA
:100560001F93CF93DF9300D000D000D0CDB7DEB77C
:100570007C01DC018D919D910D90BC91A02D898312
:100580009A83AB83BC8320E030E044E452E4BC01B6
:10059000CD010E94690D811154C080E090E0ACE370
:1005A000B2ECF70180839183A283B38320E030E033
:1005B00040E452E4D7016D917D918D919C910E9410
:1005C000FD0C20E030E040EC52E469837A838B83B9
:1005D0009C8369817A818B819C810E946E0D8B0145
:1005E0008E839D8320E030E040EE5EE369831A83D2
:1005F0008B839C8369817A818B819C810E94C80E48
:10060000181684F520E030E040E15FE369817A81EB
:100610008B819C810E94690D181624F1D7011496D4
:100620001C928EEB91E026960FB6F894DEBF0FBEBB
:10063000CDBFDF91CF911F910F91FF90EF900C9460
:100640006D0A20E030E040E452EC69817A818B81D0
:100650009C810E94690D8111A9CF80E090E0A0E407
:10066000B2E49FCF20E030E040E15FE309831A83EA
:10067000BE81BB83ED81EC8369817A818B819C8112
:100680000E94C80E87FD13C020E030E040E35FE326
:1006900069817A818B819C810E94690D18163CF0DA
:1006A00081E0D70114968C9383EC91E0BCCF20E0DD
:1006B00030E040E35FE309831A83BE81BB83ED81B1
:1006C000EC8369817A818B819C810E94C80E87FDB1
:1006D00013C020E030E040E55FE369817A818B81DF
:1006E0009C810E94690D18163CF082E0D701149697
:1006F0008C9387EC91E097CF20E030E040E55FE31A
:1007000009831A83BE81BB83ED81EC8369817A8181
:100710008B819C810E94C80E87FD13C020E030E0D1
:1007200040E75FE369817A818B819C810E94690D3A
:1007300018163CF083E0D70114968C938BEC91E073
:1007400072CF20E030E040E75FE309831A83BE8187
:10075000BB83ED81EC8369817A818B819C810E94CE
:10076000C80E87FF0CC020E030E040E85DE36981FF
:100770007A818B819C810E94690D18163CF084E07F
:10078000D70114968C9382ED91E04DCF20E030E0BC
:1007900040E85DE309831A83BE81BB83ED81EC836E
:1007A00069817A818B819C810E94C80E87FD13C06C
:1007B00020E030E040E45EE369817A818B819C81B6
:1007C0000E94690D18163CF085E0D70114968C93B1
:1007D00086ED91E028CF20E030E040E45EE309833D
:1007E0001A83BE81BB83ED81EC8369817A818B8121
:1007F0009C810E94C80E87FD13C020E030E040EAD3
:100800005EE369817A818B819C810E94690D181653
:100810003CF086E0D70114968C9383EE91E003CFF1
:1008200020E030E040EA5EE309831A83BE81BB83A7
:10083000ED81EC8369817A818B819C810E94C80E55
:1008400087FD13C020E030E040EE5EE369817A81ED
:100850008B819C810E94690D18163CF087E0D701BE
:1008600014968C938FED91E0DECE89EE91E0DBCE95
:10087000EC011B861A868A859B858130910509F4D7
:1008800040C08230910509F440C00097B1F7009153
:100890003602109137020130110551F00230110576
:1008A00029F1012B41F787EF91E00E946D0AE3CF18
:1008B0008DEF91E00E946D0A10923702109236027D
:1008C0001B870A8710E000E048E0B80189899A890F
:1008D0000E944C098FE493EC0197F1F700C00000EF
:1008E0000F5F1F4F0431110579F7C5CF86E092E005
:1008F0000E946D0A10923702109236021B870A87F7
:10090000BACFCE010E948D06B6CFCE010E94D90784
:10091000B2CFCF93DF93EC018D819E810E941A0AA2
:10092000EF81E83000F5F0E0E952FC4E0C94CD0E7A
:100930008EEB91E0DF91CF910C946D0A83EC91E006
:10094000F9CF87EC91E0F6CF8BEC91E0F3CF82ED1D
:1009500091E0F0CF86ED91E0EDCF83EE91E0EACF2C
:100960008FED91E0E7CFDF91CF910895CF93DF93A3
:10097000EC01688579854D8189899A890E944C09A5
:100980008FE493EC0197F1F700C00000688579854A
:100990006F5F7F4F4C8189899A890E944C098FE44F
:1009A00093EC0197F1F700C00000888599850296C5
:1009B00099878887DF91CF910895CF92DF92EF9248
:1009C000FF920F931F93CF93DF93CDB7DEB72A9794
:1009D0000FB6F894DEBF0FBECDBF8D839E838B0113
:1009E0007A0120E030E040E85FE3AD81BE816D91A7
:1009F0007D918D919C910E94FC0C6F8378878987F3
:100A00009A87ED81FE81608371838283938384E082
:100A1000D82ECC24C394AD81BE8151968D919C91EA
:100A200089549F4F0E94730CBFE7E8E3F1E0B15097
:100A3000E040F040E1F700C0000069837A838B83D7
:100A40009C8369817A818B819C810E94E00D6983FE
:100A50007A838B839C8329813A812D3831050CF070
:100A6000C12CDA94D110D7CFAD81BE811C968D9167
:100A70009C9104979CF0ED81FE81058316832A9654
:100A80000FB6F894DEBF0FBECDBFDF91CF911F919F
:100A90000F91FF90EF90DF90CF900895C110EBCFB2
:100AA000A701B8018D819E812A960FB6F894DEBF0A
:100AB0000FBECDBFDF91CF911F910F91FF90EF90AF
:100AC000DF90CF900C9464058F929F92AF92BF926B
:100AD000CF92DF92EF92FF920F931F93CF93DF930A
:100AE000CDB7DEB72E970FB6F894DEBF0FBECDBFE1
:100AF00089879A874B016A01A985BA8551968D919C
:100B00009C9160E204960E94D10BE985FA85818967
:100B1000928948EC50E068EC70E004960E94C50BA6
:100B2000FFE728E381E0F15020408040E1F700C07A
:100B30000000A985BA8551968D919C9140E550E0C1
:100B400060E570E004960E94C50BB12CA12CC60193
:100B50000D2C000CAA0BBB0B8D839E83AF83B88733
:100B6000A985BA8551968D919C9150E040E070E046
:100B700060E004960E94C50BEFE1FEE43197F1F7C7
:100B800000C00000A985BA8551968D919C9144E6DC
:100B900050E064E670E004960E94C50BBFEFAB1A0C
:100BA000BB0AE985FA858189928989549F4F0E9401
:100BB000730C7B018C016D817E818F8198850E94F1
:100BC000180E9701A80169837A838B839C836981BE
:100BD0007A818B819C810E94C80E18160CF05AC035
:100BE00020E030E0A901E982FA820B831C8369814D
:100BF0007A818B819C810E94690D882309F44AC007
:100C000069817A818B819C810E94E00DCB010E94D9
:100C10001A0A83EB91E00E946D0AA985BA85519664
:100C20008D919C9160E004960E94D10BE985FA8534
:100C30008189928950E040E070E060E004960E9473
:100C4000C50B18E089859A850E947D021150D1F765
:100C5000A985BA851C968D919C911D9701961D962C
:100C60009C938E931C97A601B401CD012E960FB6CE
:100C7000F894DEBF0FBECDBFDF91CF911F910F91D2
:100C8000FF90EF90DF90CF90BF90AF909F908F90AC
:100C90000C94DD0420E030E040E85FE3A985BA85EC
:100CA0006D917D918D919C910E94FD0C6B877C874D
:100CB0008D879E87E985FA8560837183828393831C
:100CC000CF010E94AD0220E030E0A901A985BA85DC
:100CD0006D917D918D919C910E94690D882351F0B9
:100CE000B5E1AB16B1040CF43BCFE985FA85158666
:100CF000148636CF2E960FB6F894DEBF0FBECDBF4A
:100D0000DF91CF911F910F91FF90EF90DF90CF90E7
:100D1000BF90AF909F908F9008950F931F93CF93A4
:100D2000DF93EC01EE85FF85E930F105E0F4E15257
:100D3000FC4E0C94CD0E89899A89FC0162817381E5
:100D400001E010E025E030E043E050E001960E9431
:100D5000830B00913602109137020130110541F0EA
:100D600002301105B1F0DF91CF911F910F910895DD
:100D700089899A8960E001960E947F0B8DEF91E04E
:100D80000E946D0A10923702109236021F870E875A
:100D9000EACF89899A8960E001960E947F0B86E0FC
:100DA00092E0EECF8EE092E00E946D0A18821982E6
:100DB0001A821B82CE010E94AD0289899A8968E05D
:100DC00001960E947F0BFFEF23ED80E3F15020405E
:100DD0008040E1F700C0000089899A8960E00196AF
:100DE0000E947F0B83E090E09F878E87BCCF83E1DA
:100DF00092E00E946D0A80E090E0A0ECB1E488836C
:100E00009983AA83BB83CE010E94AD0289899A8906
:100E100064E001960E947F0B9FEFE3EDF0E39150B9
:100E2000E040F040E1F7D6CF1D861C8643E250E05B
:100E300070E060E00E9464058D819E810196B9F4A6
:100E40004CE850E061E070E0CE010E9464058D81C5
:100E50009E81019661F489899A8950E040E070E0B2
:100E600060E004960E94C50B85E090E0BDCFCE0106
:100E70000E94AD028C818F8384E090E0B5CF8D819C
:100E80009E81892B21F489E192E00E946D0A8D8177
:100E90009E81019721F48FE192E00E946D0A86E025
:100EA00090E0A2CF85E292E0DF91CF911F910F9168
:100EB0000C946D0A2FE030E04CE850E063E070E005
:100EC0000E94D50187E090E08FCF87EB91E00E94F0
:100ED0006D0ACE010E948904CE010E94B60488E00A
:100EE00090E082CF00913602109137020130110557
:100EF00069F00230110509F036CF86E092E00E94D9
:100F00006D0A10923702109236022DCF8DEF91E0CC
:100F10000E946D0A10923702109236028FEF9FEFF7
:100F20009E838D8333CFDF92EF92FF920F931F93B7
:100F3000CF93DF930F92CDB7DEB77C01D12C89819F
:100F4000883049F40F90DF91CF911F910F91FF905E
:100F5000EF90DF9008950D2D10E0000F111FAE01EE
:100F60004F5F5F4FB801F701818992890E9486081F
:100F7000898190E00E941A0A8FE493EC0197F1F7BF
:100F800000C00000B8016F5F7F4FAE014F5F5F4F41
:100F9000F701818992890E948608898190E00E94E8
:100FA0001A0A8FE493EC0197F1F700C00000D39484
:100FB000C6CFCF93DF93EC01888981110DC0CE019C
:100FC0000E9493072FE788E391E0215080409040F2
:100FD000E1F700C00000F3CFDF91CF910895EF92C9
:100FE000FF920F931F93CF93DF93EC017C0189E075
:100FF000E80EF11C60E470E0C7010E944D0B8E0109
:101000000F5F1F4F64E0C8010E947F0B229668EEBD
:1010100073E0CE010E94130C68E370E0C7010E94E8
:101020004D0B68E0C8010E947F0B68EE73E0CE01B3
:101030000E94130CC7010E94770B60E0C8010E9458
:101040007F0B60E177E2CE01DF91CF911F910F918D
:10105000FF90EF900C94130CEF92FF920F931F935D
:10106000CF93DF93EC018B010E9475087E018FEF17
:10107000E81AF80A60E0C7010E947B0B1C821E82FE
:101080001D8218861F82CE0109960E945A0BCE013E
:1010900089549F4F0E94210CFE01E854FF4F81E0CC
:1010A000808384E090E09283818368E070E0CE01E9
:1010B00085549F4F0E949C0A0A831B8360E0C701EE
:1010C0000E947F0BCE01DF91CF911F910F91FF9076
:1010D000EF900C94EF07089580EA8093000110923E
:1010E000B90080E28093B8000895FC0180E8808315
:1010F000CF010C946C08982F9370891305C0880F4A
:10110000806A8093000108958FEF0895FA0194EAB0
:1011100024E89093BC008091BC0087FFFCCF8091B5
:1011200000018093BB002093BC008091BC0087FF2E
:10113000FCCF8091B900883161F784EA8093BC00CC
:101140008091BC0087FFFCCF809100018093BB00A1
:1011500084E88093BC008091BC0087FFFCCF709333
:10116000BB0084E88093BC008091BC0087FFFCCF6B
:101170006093BB0084E88093BC008091BC0087FF33
:10118000FCCF8091BC0087FFFCCF84EA8093BC0039
:101190008091BC0087FFFCCF809100018F5F80931E
:1011A000BB0084E88093BC008091BC0087FFFCCF2B
:1011B00084E88093BC008091BC0087FFFCCF8091C5
:1011C000BB00808384E98093BC0080E0089594EAAA
:1011D00034E89093BC008091BC0087FFFCCF8091E5
:1011E00000018093BB003093BC008091BC0087FF5E
:1011F000FCCF8091B900883161F784EA8093BC000C
:101200008091BC0087FFFCCF809100018093BB00E0
:1012100084E88093BC008091BC0087FFFCCF709372
:10122000BB0084E88093BC008091BC0087FFFCCFAA
:101230006093BB0084E88093BC008091BC0087FF72
:10124000FCCF84EA8093BC008091BC0087FFFCCF78
:10125000809100018F5F8093BB0084E88093BC0085
:101260008091BC0087FFFCCF84EC211105C084E98C
:101270008093BC0080E00895213009F484E88093D5
:10128000BC009091BC0097FFFCCFFA019091BB008D
:1012900091932150AF01E9CF94EA24E89093BC00E8
:1012A0008091BC0087FFFCCF809100018093BB0040
:1012B0002093BC008091BC0087FFFCCF8091B900D7
:1012C000883161F784EA8093BC008091BC0087FF7D
:1012D000FCCF809100018093BB0084E88093BC0028
:1012E0008091BC0087FFFCCF7093BB0084E88093A3
:1012F000BC008091BC0087FFFCCF6093BB0084E8FA
:101300008093BC008091BC0087FFFCCF4093BB0062
:1013100084E88093BC008091BC0087FFFCCF84E907
:101320008093BC0080E00895FB01260F372F311D0C
:10133000DC018C918150990B862B9F2B2817390744
:1013400018F09C012F5F3F4F822F8E1B24EA34E858
:101350002093BC009091BC0097FFFCCF90910001BE
:101360009093BB003093BC009091BC0097FFFCCFE2
:101370009091B900983161F794EA9093BC009091F4
:10138000BC0097FFFCCF909100019093BB0094E8C4
:101390009093BC009091BC0097FFFCCFF093BB00F2
:1013A00094E89093BC009091BC0097FFFCCFE09331
:1013B000BB0094E89093BC009091BC0097FFFCCFD9
:1013C000982F24E8911104C094E99093BC000895EB
:1013D000FA0131913093BB002093BC003091BC00E6
:1013E00037FFFCCF9150AF01EDCFDF92EF92FF922C
:1013F0000F931F93CF93DF93D82ED92F7B018A01B0
:10140000C22F2C2FA801B7018D2D9D2F0E9494096A
:10141000282F30E0E20EF31EC81B020F131FC1116C
:10142000F0CF80E0DF91CF911F910F91FF90EF906F
:10143000DF9008950F931F93CF93DF93CDB7DEB75F
:101440002A970FB6F894DEBF0FBECDBF182F092F15
:1014500080913802811107C089E392E00E94D80B85
:1014600081E0809338020F931F9381E392E09F9372
:101470008F938E010F5F1F4F1F930F930E940411D4
:101480000F900F900F900F900F900F90F8016191B7
:101490008F0189E392E00E94E60B8FE097E20197CB
:1014A000F1F700C00000F80180818111EFCF6AE000
:1014B00089E392E00E94E60B8FE097E20197F1F753
:1014C00000C000002A960FB6F894DEBF0FBECDBF55
:1014D000DF91CF911F910F9108950F931F93CF9399
:1014E000DF938C0180913802811107C089E392E07B
:1014F0000E94D80B81E080933802E801699189E36A
:1015000092E00E94E60B8FE097E20197F1F700C0AE
:10151000000088818111F2CF6AE089E392E00E94A5
:10152000E60B8FE097E20197F1F700C00000DF9132
:10153000CF911F910F910895FC0181E08083728308
:1015400061830895FC01F8948DB383608DBBA9E697
:10155000B0E08C918B608C93789481E080830895C7
:10156000FC0189B190E02181328182239323892B70
:1015700079F08FE39CE90197F1F700C0000029B1F1
:1015800030E0818192812823392381E0232B09F4E3
:1015900080E00895CF93DF93EC010E94B00A882386
:1015A00039F08881882321F01882DF91CF91089546
:1015B00089B190E029813A8182239323892B11F408
:1015C00081E0888380E0F1CF10927C0086E88093F0
:1015D0007A00089510927A00089580917C00807EB0
:1015E00080937C0080917C006770682B60937C0006
:1015F00080917A00806480937A0080917A0084FFE1
:10160000FCCF80917A00806180937A0020917800ED
:101610008091790090E0982F8827820F911D08957E
:10162000CF93DF9300D000D0CDB7DEB76D527109F4
:10163000660F771F660F771FFC01E60FF71F20E08C
:1016400030E040E854E460817181828193810E949E
:10165000D30E9B01AC0160E074E284EF9AE40E9437
:101660006E0D69837A838B839C8369817A818B81F8
:101670009C810E94900F69837A838B839C8369810C
:101680007A818B819C810E94E00DCB010F900F909D
:101690000F900F90DF91CF9108950E94100B8093CF
:1016A000B3008093B40082E68093B00085E080931D
:1016B000B100089528E9E1E0F1E0DC0101900D922C
:1016C0002A95E1F7FC01E856FF4F29E030E031832D
:1016D0002083DC01A656BF4F24E1E9E9F1E0019047
:1016E0000D922A95E1F762E570E00C944D0B62E5EE
:1016F00070E00C944D0BFC01608362B90895FC010D
:10170000608362B908958F929F92AF92BF92CF92F9
:10171000DF92EF92FF920F931F93CF93DF9300D04E
:10172000CDB7DEB77A836983D42EC52EB22EA32E11
:10173000780110E000E088E0982E94E0892E0E15E4
:101740001F057CF00F900F90DF91CF911F910F91AB
:10175000FF90EF90DF90CF90BF90AF909F908F90D1
:10176000089592B86D2D7C2DCE0101960E94130C28
:1017700082B86B2D7A2DCE0101960E94130C0F5F5B
:101780001F4FDDCFFC0180810895FC0161837283CE
:101790004383548367BD48BD81EA84BD81E085BD34
:1017A0000895FC01608365B90895FC018081089566
:1017B0001092C5008FEC8093C4001092C00088E1A5
:1017C0008093C10086E08093C2000895FC0180915F
:1017D000C00085FFFCCF60836093C60008958091B0
:1017E000C00087FFFCCF8091C6000895FC01718383
:1017F00060830895DC01ED91FC91118210821092BA
:10180000850010928400709389006093880080E4C2
:101810008093800085E0809381001092820082E2B4
:1018200080936F000895CF93DF93EC010E94FA0B31
:10183000E881F98180819181892BE1F3DF91CF915A
:1018400008950C94E40A08950F931F93CF93DF93A8
:1018500000D000D0CDB7DEB78C0182B160E0C80106
:101860000E94ED0A89839A832FE788E391E0215053
:1018700080409040E1F700C0000082B160E0C80104
:101880000E94ED0AA981BA818A179B0718F4A981E1
:10189000BA81CD01B0E0A0E089839A83AB83BC8399
:1018A000BC01CD010E94160E2AE038E240EA5BE35B
:1018B00069837A838B839C8369817A818B819C8104
:1018C0000E94D30E69837A838B839C8369817A819A
:1018D0008B819C810F900F900F900F90DF91CF9193
:1018E0001F910F910895CF93DF9300D000D0CDB713
:1018F000DEB70E94240C2AE939E949E95FEB6983E4
:101900007A838B839C8369817A818B819C810E94FD
:10191000400F20E030E048ED51E469837A838B8307
:101920009C8369817A818B819C810E94D30E69831B
:101930007A838B839C8369817A818B819C810F90D0
:101940000F900F900F90DF91CF910895CF93DF9379
:1019500000D000D0CDB7DEB70E94730C2CE53FE875
:1019600042E250E469837A838B839C8369817A8124
:101970008B819C810E946E0D69837A838B839C830B
:1019800069817A818B819C810F900F900F900F90CD
:10199000DF91CF910895CDB7DEB7C15DD1090FB604
:1019A000F894DEBF0FBECDBF0E94A90064E372E0D1
:1019B000CE0101960E942C08BE016F5F7F4FCE01C1
:1019C00081549F4F0E944801CE0181549F4F0E9435
:1019D0003804CE0188549F4F0E94EA0ACE01019636
:1019E0000E946B0890E080E0CF52DF4F0FB6F89472
:1019F000DEBF0FBECDBF08955058BB27AA270E9457
:101A0000140D0C948E0E0E94800E38F00E94870EEA
:101A100020F039F49F3F19F426F40C947D0E0EF457
:101A2000E095E7FB0C94770EE92F0E949F0E58F388
:101A3000BA17620773078407950720F079F4A6F5B3
:101A40000C94C10E0EF4E0950B2EBA2FA02D0B01B5
:101A5000B90190010C01CA01A0011124FF27591BF3
:101A600099F0593F50F4503E68F11A16F040A22FF9
:101A7000232F342F4427585FF3CF4695379527956A
:101A8000A795F0405395C9F77EF41F16BA0B620B69
:101A9000730B840BBAF09150A1F0FF0FBB1F661FB0
:101AA000771F881FC2F70EC0BA0F621F731F841FF3
:101AB00048F4879577956795B795F7959E3F08F019
:101AC000B0CF9395880F08F09927EE0F97958795DB
:101AD00008950E94530E08F481E008950E94820D3B
:101AE0000C948E0E0E94870E58F00E94800E40F0DB
:101AF00029F45F3F29F00C94770E51110C94C20E1B
:101B00000C947D0E0E949F0E68F39923B1F3552328
:101B100091F3951B550BBB27AA2762177307840700
:101B200038F09F5F5F4F220F331F441FAA1FA9F396
:101B300035D00E2E3AF0E0E832D091505040E69584
:101B4000001CCAF72BD0FE2F29D0660F771F881FE5
:101B5000BB1F261737074807AB07B0E809F0BB0BD8
:101B6000802DBF01FF2793585F4F3AF09E3F5105EC
:101B700078F00C94770E0C94C20E5F3FE4F3983E1D
:101B8000D4F3869577956795B795F7959F5FC9F7D5
:101B9000880F911D9695879597F90895E1E0660F56
:101BA000771F881FBB1F621773078407BA0720F0CF
:101BB000621B730B840BBA0BEE1F88F7E095089538
:101BC0000E94E70D6894B1110C94C20E08950E9412
:101BD000A70E88F09F5798F0B92F9927B751B0F00A
:101BE000E1F0660F771F881F991F1AF0BA95C9F7A1
:101BF00014C0B13091F00E94C10EB1E008950C9470
:101C0000C10E672F782F8827B85F39F0B93FCCF322
:101C1000869577956795B395D9F73EF4909580951D
:101C2000709561957F4F8F4F9F4F0895E89409C03D
:101C300097FB3EF490958095709561957F4F8F4FFF
:101C40009F4F9923A9F0F92F96E9BB279395F69515
:101C5000879577956795B795F111F8CFFAF4BB0F93
:101C600011F460FF1BC06F5F7F4F8F4F9F4F16C0F7
:101C7000882311F096E911C0772321F09EE8872F81
:101C8000762F05C0662371F096E8862F70E060E03D
:101C90002AF09A95660F771F881FDAF7880F9695B6
:101CA000879597F90895990F0008550FAA0BE0E85A
:101CB000FEEF16161706E807F907C0F0121613060E
:101CC000E407F50798F0621B730B840B950B39F44E
:101CD0000A2661F0232B242B252B21F408950A26B4
:101CE00009F4A140A6958FEF811D811D089597F9F4
:101CF0009F6780E870E060E008959FEF80EC0895B2
:101D000000240A94161617061806090608950024DA
:101D10000A9412161306140605060895092E039454
:101D2000000C11F4882352F0BB0F40F4BF2B11F4C8
:101D300060FF04C06F5F7F4F8F4F9F4F089557FD27
:101D40009058440F551F59F05F3F71F04795880F29
:101D500097FB991F61F09F3F79F0879508951216C0
:101D600013061406551FF2CF4695F1DF08C016166C
:101D700017061806991FF1CF86957105610508941D
:101D80000895E894BB2766277727CB0197F9089534
:101D90000E94530E08F48FEF0895EE0FFF1F059079
:101DA000F491E02D09940E94E60E0C948E0E0E9490
:101DB000800E38F00E94870E20F0952311F00C94CD
:101DC000770E0C947D0E11240C94C20E0E949F0E6F
:101DD00070F3959FC1F3950F50E0551F629FF0017E
:101DE000729FBB27F00DB11D639FAA27F00DB11D97
:101DF000AA1F649F6627B00DA11D661F829F222720
:101E0000B00DA11D621F739FB00DA11D621F839FA6
:101E1000A00D611D221F749F3327A00D611D231F7C
:101E2000849F600D211D822F762F6A2F11249F57CA
:101E300050409AF0F1F088234AF0EE0FFF1FBB1FCD
:101E4000661F771F881F91505040A9F79E3F51058C
:101E500080F00C94770E0C94C20E5F3FE4F3983E32
:101E6000D4F3869577956795B795F795E7959F5F36
:101E7000C1F7FE2B880F911D9695879597F90895C8
:101E8000FA01EE0FFF1F309621053105A1F1611512
:101E9000710561F48038BFE39B0749F1689490387D
:101EA000810561F08038BFEF9B0741F099234AF527
:101EB000FF3FE1053105210519F1E8940894E79504
:101EC000D901AA2329F4AB2FBE2FF85FD0F310C09D
:101ED000FF5F70F4A695E0F7F73950F019F0FF3A7C
:101EE00038F49F779F930DD00F9007FC905808957A
:101EF00046F00C947D0E60E070E080E89FE308956A
:101F00004FE79F775F934F933F932F930E948810E3
:101F10002F913F914F915F910E94D30E0C94BC0F73
:101F20000E94A70EE8F09E37E8F09639B8F49E3884
:101F300048F4672F782F8827985FF9CF8695779593
:101F4000679593959539D0F3B62FB1706B0F711DCE
:101F5000811D20F487957795679593950C94EE0FE6
:101F60000C9409100C94C20E29F416F00C94770E00
:101F70000C94C10E0C947D0E0E94A70EA8F3963807
:101F8000A0F707F80F92E8942BE33AEA48EB5FE7F3
:101F90000E94E90E0F920F920F924DB75EB70F920B
:101FA0000E94D010ECE7F0E00E9417104F915F9173
:101FB000EF91FF91E595EE1FFF1F49F0FE57E06896
:101FC0004427EE0F441FFA95E1F74195550B0E9407
:101FD0004A100F9007FE0C943E100895882371F468
:101FE000772321F09850872B762F07C0662311F4B2
:101FF00099270DC09051862B70E060E02AF09A95E9
:10200000660F771F881FDAF7880F9695879597F9DF
:1020100008959F3F31F0915020F48795779567950B
:10202000B795880F911D9695879597F90895DF9339
:10203000CF931F930F93FF92EF92DF927B018C015E
:10204000689406C0DA2EEF010E94E60EFE01E894C5
:10205000A5912591359145915591A6F3EF010E94E7
:10206000140DFE019701A801DA9469F7DF90EF9053
:10207000FF900F911F91CF91DF9108959B01AC01CB
:1020800060E070E080E89FE30C946E0D0C94770E96
:102090000C9409100E94A70ED8F39923C9F3940F4A
:1020A000511DA3F39150504094F059F0882332F021
:1020B000660F771F881F91505040C1F79E3F510512
:1020C0002CF7880F911D9695879597F908955F3F96
:1020D000ACF0983E9CF0BB27869577956795B795B1
:1020E00008F4B1609395C1F7BB0F58F711F460FF86
:1020F000E8CF6F5F7F4F8F4F9F4FE3CF0C94C20E9F
:1021000016F00C9409100C947D0E68940C94770EC4
:102110000E94A70EA8F39923C1F3AEF3DF93CF93E8
:102120001F930F93FF92C92FDD2788232AF0219751
:10213000660F771F881FDAF720E030E040E85FEB9A
:102140009FE3883920F0803E38F021968F770E94F7
:10215000FD0CE4EAF0E004C00E94FD0CE1EDF0E0CB
:102160000E9417108B01BE01EC01FB2E6F57710905
:102170007595771F880B990B0E94180E28E132E79E
:1021800041E35FE30E94E60EAF2D9801AE01FF90A0
:102190000F911F91CF91DF910E94140D0C948E0E20
:1021A000FA01DC01AA0FBB1F9B01AC01BF5728F449
:1021B000222733274427507820C0B75190F4AB2F03
:1021C0000024469537952795011CA395D2F300204E
:1021D00071F0220F331F441FB395DAF30ED00C9425
:1021E000FC0C61307105A0E88A07B94630F49B0108
:1021F000AC016627772788279078309621F02083D6
:102200003183428353830895AEE0B0E0EAE0F1E128
:102210000C94AC130D891E8986E08C831A83098384
:102220008FEF9FE79E838D83AE01475E5F4F6F897F
:10223000788DCE0101960E9427112F813885020FDB
:10224000131FF80110822E96E4E00C94C813AFE03F
:10225000B0E0EDE2F1E10C949E137C013B018A01B8
:10226000DC0117961C921E92169713968C9181FF93
:10227000BEC19AE0292EFE0131964F01D701139677
:102280009C91F30193FD859193FF81913F018823F8
:1022900009F444C1853239F493FD859193FF81910E
:1022A0003F01853229F4B70190E00E941013E6CF78
:1022B000B12C412C512CBFE1B51538F08B3209F10E
:1022C00088F4803201F1833221F157FC3AC020EDCD
:1022D000280F2A3040F556FE1FC0B29C200D112455
:1022E000B22E06C08D3291F0803379F7689450F8A1
:1022F000F30193FD859193FF81913F018111DBCF24
:1023000020C0689451F8689452F8F2CF689453F85A
:10231000EFCF689454F8ECCF429C200D1124422E4C
:10232000689455F8E5CF8E3229F456FCF7C06894CE
:1023300056F8DECF8C3619F4689457F8D9CF883622
:10234000B9F2982F9F7D95549330C0F0833681F178
:102350008337A1F1833509F05BC0D801CD90DD90C2
:102360008D016B2D70E056FC02C06FEF7FEFC60150
:102370000E94FA125C01689457F80AC00C5F1F4F64
:10238000EFE3E983AA24A394B12C6401E89457F8FD
:1023900053FE29C0342CA114B10451F5332009F4A3
:1023A0006DCFB70180E290E00E9410133A94F6CF0F
:1023B000D8018C9189830E5F1F4FE4CFF801C19043
:1023C000D1908F016B2D70E056FC02C06FEF7FEF54
:1023D000C6010E9405135C01D9CFB70180E290E0ED
:1023E0000E9410134A944A141B0409F0B0F7D2CF8C
:1023F000F60157FC859157FE81916F01B70190E07E
:102400000E94101331103A94B1E0AB1AB108C3CF57
:10241000843619F0893609F071C0F80157FE67C09B
:1024200061917191819191918F01E52DEF76DE2E71
:1024300097FF09C090958095709561957F4F8F4F5C
:102440009F4F6894D7F82AE030E0A4010E9440131F
:10245000C82EC818AC2C5D2CD6FE0CC0E89450F8E1
:10246000CB1440F4D4FE05C0D2FC03C05D2D5E7ECB
:10247000552EAB2C54FE93C0FE01EC0DF11D808156
:10248000803309F085C0652D697E562E752D7870D4
:10249000372E53FC93C050FE8DC0BC2CA41410F4F6
:1024A000B40CBA1854FE90C0B70180E390E00E94CB
:1024B000101352FE07C088E751FC88E590E0B70191
:1024C0000E941013CB1408F48BC0CA94D12C8FEF48
:1024D000C81AD80AC80CD91CD6018E916D01B70153
:1024E00090E00E9410138C149D04B1F757CF6191B6
:1024F0007191072E000C880B990B96CFD52CE89480
:10250000D4F82AE0853729F1F52DF97FDF2E8037C1
:10251000A1F058F48835A1F08F36D1F0F70186810B
:1025200097812F96E2E10C94BA138837B9F7D4FE5D
:1025300002C06894D2F820E10CC06894D4F8F7CFB8
:1025400054FE03C02F2F2660D22E20E132E002C0BD
:1025500028E030E0F801D7FE15C04191519161911A
:1025600071914C875D876E877F878F01A4016C8591
:102570007D858E859F850E944013C82EC818E894DB
:10258000D7F868CF81919191AC0170E060E0E9CF1C
:1025900052FC02C0A3947ACFA394A39477CF852D45
:1025A000867809F473CFF6CFB70180E290E00E94FD
:1025B0001013A394A414C0F3312C74CF342C3A1804
:1025C000A41408F46FCFF8CF852D867809F47ACF5C
:1025D0008BE251FE80E257FC8DE2B70190E070CFB4
:1025E000B70180E390E00E941013BA946BCF8FEF95
:1025F0009FEF97CFFC010590615070400110D8F714
:10260000809590958E0F9F1F0895FC01615070403A
:1026100001900110D8F7809590958E0F9F1F089517
:102620000F931F93CF93DF93182F092FEB018B810B
:1026300081FD09C01FEF0FEF812F902FDF91CF9108
:102640001F910F91089582FF14C02E813F818C81CC
:102650009D81281739073CF4E881F981CF01019663
:102660009983888310838E819F8101969F838E83B7
:10267000E3CFE885F985812F0995892BA1F3DACF7E
:10268000FA01AA27283051F1203181F1E8946F93A3
:102690006E7F6E5F7F4F8F4F9F4FAF4FB1E03ED049
:1026A000B4E03CD0670F781F891F9A1FA11D680FE7
:1026B000791F8A1F911DA11D6A0F711D811D911D1A
:1026C000A11D20D009F468943F912AE0269F11248F
:1026D0003019305D3193DEF6CF010895462F4770F3
:1026E000405D4193B3E00FD0C9F7F6CF462F4F704E
:1026F000405D4A3318F0495D31FD4052419302D0AC
:10270000A9F7EACFB4E0A695979587957795679551
:10271000BA95C9F700976105710508959B01AC0151
:102720000A2E06945795479537952795BA95C9F778
:10273000620F731F841F951FA01D08952F923F9253
:102740004F925F926F927F928F929F92AF92BF92C1
:10275000CF92DF92EF92FF920F931F93CF93DF936D
:10276000CDB7DEB7CA1BDB0B0FB6F894DEBF0FBECA
:10277000CDBF09942A88398848885F846E847D8417
:102780008C849B84AA84B984C884DF80EE80FD8019
:102790000C811B81AA81B981CE0FD11D0FB6F8948F
:1027A000DEBF0FBECDBFED010895F894FFCF9804B2
:1027B0009E04A104A404A704AA04AD04B0049B06CB
:1027C000D206F70614073F0752075A076507720734
:1027D000A00000DC427B14E942A4F0F6425CCF0288
:1027E000430A970A437BD412435C8F1B435CCF247C
:1027F00043299C2E43000039430000444366A64F02
:102800004300005C437B146943A4F07643A4D08268
:10281000430A978A437BD49243A4909B43A4D0A4B9
:1028200043719DAE43B8FEB8430000C44366A6CFD3
:10283000430000DC437B14E943A4F0F64300D002DC
:1028400044AE970A441FD5124400901B44A4D024E0
:1028500044719D2E445CFF38445CFF43440AA74FFB
:102860004400005C44000000003E003E004A004579
:10287000004600430041003E0041004300646562A1
:102880007574004849540050524F434845004E4F1C
:102890005244004E4F5244455354005355444553FF
:1028A0005400535544005355444F55455354004E1E
:1028B0004F52444F55455354006D617576616973AD
:1028C00020616E676C6500415543554E00494E547A
:1028D00045525550540045585445524E45004841C4
:1028E00055540044524F49540050455449540047F0
:1028F00052414E4400696C20792061207269656EF6
:04290000002564004A
:00000001FF
