:100000000C943E000C945B000C945B000C945B0021
:100010000C945B000C945B000C945B000C945B00F4
:100020000C945B000C945B000C945B000C945B00E4
:100030000C945B000C9465000C945B000C945B00CA
:100040000C945B000C945B000C945B000C945B00C4
:100050000C945B000C945B000C945B000C945B00B4
:100060000C945B000C945B000C945B000C945B00A4
:100070000C945B000C945B000C945B0011241FBE7D
:10008000CFEFD8E0DEBFCDBF11E0A0E0B1E0E4E407
:10009000FAE002C005900D92AE3AB107D9F721E01F
:1000A000AEEAB1E001C01D92A03BB207E1F70E94A9
:1000B0005B030C9420050C940000F8948FEF8AB930
:1000C00084B981B91BB8789408958F939F9381E088
:1000D00090E09093AF018093AE019F918F9118951E
:1000E000EF92FF920F931F93CF93DF93EC017C016C
:1000F00089E0E80EF11C60E470E0C7010E94B802DC
:100100008E010F5F1F4F61E0C8010E94EA02229634
:1001100068EE73E0CE010E944D0368E370E0C70112
:100120000E94B80262E0C8010E94EA0268EE73E031
:10013000CE010E944D03C7010E94E20260E0C801A7
:100140000E94EA0260E177E2CE01DF91CF911F9138
:100150000F91FF90EF900C944D030F931F93CF934B
:10016000DF93EC018B010E94D6001C821E821D824F
:1001700018861F82CE0109960E94C5020A831B833E
:1001800060E0CE0101960E94EA02CE01DF91CF919C
:100190001F910F910C947000089580EA80930001E4
:1001A0001092B90080E28093B8000895FC0180E8C5
:1001B0008083CF010C94CD00982F9370891305C0D4
:1001C000880F806A8093000108958FEF0895FA01E7
:1001D00094EA24E89093BC008091BC0087FFFCCF98
:1001E000809100018093BB002093BC008091BC00F3
:1001F00087FFFCCF8091B900883161F784EA809352
:10020000BC008091BC0087FFFCCF809100018093EF
:10021000BB0084E88093BC008091BC0087FFFCCFCA
:100220007093BB0084E88093BC008091BC0087FF82
:10023000FCCF6093BB0084E88093BC008091BC003D
:1002400087FFFCCF8091BC0087FFFCCF84EA8093BE
:10025000BC008091BC0087FFFCCF809100018F5FC4
:100260008093BB0084E88093BC008091BC0087FF32
:10027000FCCF84E88093BC008091BC0087FFFCCF5A
:100280008091BB00808384E98093BC0080E0089566
:1002900094EA34E89093BC008091BC0087FFFCCFC7
:1002A000809100018093BB003093BC008091BC0022
:1002B00087FFFCCF8091B900883161F784EA809391
:1002C000BC008091BC0087FFFCCF8091000180932F
:1002D000BB0084E88093BC008091BC0087FFFCCF0A
:1002E0007093BB0084E88093BC008091BC0087FFC2
:1002F000FCCF6093BB0084E88093BC008091BC007D
:1003000087FFFCCF84EA8093BC008091BC0087FF0C
:10031000FCCF809100018F5F8093BB0084E88093C5
:10032000BC008091BC0087FFFCCF84EC211105C08C
:1003300084E98093BC0080E00895213009F484E8CA
:100340008093BC009091BC0097FFFCCFFA01909184
:10035000BB0091932150AF01E9CF94EA24E8909338
:10036000BC008091BC0087FFFCCF8091000180938E
:10037000BB002093BC008091BC0087FFFCCF809124
:10038000B900883161F784EA8093BC008091BC0099
:1003900087FFFCCF809100018093BB0084E88093AD
:1003A000BC008091BC0087FFFCCF7093BB0084E849
:1003B0008093BC008091BC0087FFFCCF6093BB00A2
:1003C00084E88093BC008091BC0087FFFCCF409301
:1003D000BB0084E88093BC008091BC0087FFFCCF09
:1003E00084E98093BC0080E00895FB01260F372F3D
:1003F000311DDC018C918150990B862B9F2B281786
:10040000390718F09C012F5F3F4F822F8E1B24EA83
:1004100034E82093BC009091BC0097FFFCCF9091F2
:1004200000019093BB003093BC009091BC0097FFFB
:10043000FCCF9091B900983161F794EA9093BC0099
:100440009091BC0097FFFCCF909100019093BB006E
:1004500094E89093BC009091BC0097FFFCCFF09380
:10046000BB0094E89093BC009091BC0097FFFCCF38
:10047000E093BB0094E89093BC009091BC0097FF80
:10048000FCCF982F24E8911104C094E99093BC000C
:100490000895FA0131913093BB002093BC00309154
:1004A000BC0037FFFCCF9150AF01EDCFDF92EF9250
:1004B000FF920F931F93CF93DF93D82ED92F7B01F9
:1004C0008A01C22F2C2FA801B7018D2D9D2F0E94CC
:1004D000F501282F30E0E20EF31EC81B020F131F98
:1004E000C111F0CF80E0DF91CF911F910F91FF906C
:1004F000EF90DF900895CF93DF9300D000D0CDB779
:10050000DEB76D527109660F771F660F771FFC010A
:10051000E60FF71F20E030E040E854E4608171818D
:10052000828193810E9466049B01AC0160E074E2C9
:1005300084EF9AE40E946D0369837A838B839C83A2
:1005400069817A818B819C810E94D30469837A833B
:100550008B839C8369817A818B819C810E94DF03DC
:10056000CB010F900F900F900F90DF91CF910895D6
:100570000E947B028093B3008093B40082E6809354
:10058000B00085E08093B100089528E9E1E0F1E052
:10059000DC0101900D922A95E1F7FC01E856FF4F2E
:1005A00029E030E031832083DC01A656BF4F24E1EF
:1005B000E9E9F1E001900D922A95E1F762E570E03A
:1005C0000C94B80262E570E00C94B802FC01608300
:1005D00062B90895FC01608362B908958F929F9279
:1005E000AF92BF92CF92DF92EF92FF920F931F9341
:1005F000CF93DF9300D0CDB7DEB77A836983D42E53
:10060000C52EB22EA32E780110E000E082E0982ED5
:10061000882483940E151F057CF00F900F90DF91B6
:10062000CF911F910F91FF90EF90DF90CF90BF90EF
:10063000AF909F908F90089592B86D2D7C2DCE0134
:1006400001960E944D0382B86B2D7A2DCE01019642
:100650000E944D030F5F1F4FDDCFFC018081089585
:10066000FC01718360830895DC01ED91FC9111829E
:10067000108210928500109284007093890060931C
:10068000880080E48093800085E080938100109250
:10069000820082E280936F000895CF93DF93EC0194
:1006A0000E943403E881F98180819181892BE1F3F3
:1006B000DF91CF910895CDB7DEB7C75BD1090FB6F3
:1006C000F894DEBF0FBECDBF0E945D006EEA71E000
:1006D000CE0101960E94AD00FFCF0E9481030C94D1
:1006E0002C040E94250458F00E941E0440F029F4B6
:1006F0005F3F29F00C94150451110C9460040C9484
:100700001B040E943D0468F39923B1F3552391F330
:10071000951B550BBB27AA2762177307840738F070
:100720009F5F5F4F220F331F441FAA1FA9F335D0CD
:100730000E2E3AF0E0E832D091505040E695001C81
:10074000CAF72BD0FE2F29D0660F771F881FBB1F3B
:10075000261737074807AB07B0E809F0BB0B802D19
:10076000BF01FF2793585F4F3AF09E3F510578F045
:100770000C9415040C9460045F3FE4F3983ED4F3AA
:10078000869577956795B795F7959F5FC9F7880F19
:10079000911D9695879597F90895E1E0660F771F6B
:1007A000881FBB1F621773078407BA0720F0621BFC
:1007B000730B840BBA0BEE1F88F7E09508950E9427
:1007C000E6036894B1110C94600408950E944504F6
:1007D00088F09F5798F0B92F9927B751B0F0E1F002
:1007E000660F771F881F991F1AF0BA95C9F714C0B2
:1007F000B13091F00E945F04B1E008950C945F0461
:10080000672F782F8827B85F39F0B93FCCF38695EA
:1008100077956795B395D9F73EF490958095709547
:1008200061957F4F8F4F9F4F089597F99F6780E89D
:1008300070E060E008959FEF80EC089500240A9432
:100840001616170618060906089500240A941216AB
:100850001306140605060895092E0394000C11F4DE
:10086000882352F0BB0F40F4BF2B11F460FF04C08B
:100870006F5F7F4F8F4F9F4F089557FD9058440FE4
:10088000551F59F05F3F71F04795880F97FB991FEF
:1008900061F09F3F79F087950895121613061406AC
:1008A000551FF2CF4695F1DF08C016161706180639
:1008B000991FF1CF86957105610508940895E89414
:1008C000BB2766277727CB0197F908950E94790403
:1008D0000C942C040E941E0438F00E94250420F081
:1008E000952311F00C9415040C941B0411240C9402
:1008F00060040E943D0470F3959FC1F3950F50E092
:10090000551F629FF001729FBB27F00DB11D639FC1
:10091000AA27F00DB11DAA1F649F6627B00DA11D67
:10092000661F829F2227B00DA11D621F739FB00D0D
:10093000A11D621F839FA00D611D221F749F33277D
:10094000A00D611D231F849F600D211D822F762F16
:100950006A2F11249F5750409AF0F1F088234AF0F3
:10096000EE0FFF1FBB1F661F771F881F915050405F
:10097000A9F79E3F510580F00C9415040C94600477
:100980005F3FE4F3983ED4F3869577956795B795E6
:10099000F795E7959F5FC1F7FE2B880F911D969500
:1009A000879597F908950E944504E8F09E37E8F08E
:1009B0009639B8F49E3848F4672F782F8827985FC7
:1009C000F9CF86957795679593959539D0F3B62F9E
:1009D000B1706B0F711D811D20F487957795679518
:1009E00093950C94F7040C9412050C9460048823DE
:1009F00071F4772321F09850872B762F07C0662358
:100A000011F499270DC09051862B70E060E02AF018
:100A10009A95660F771F881FDAF7880F9695879546
:100A200097F908959F3F31F0915020F4879577957D
:100A30006795B795880F911D9695879597F90895B5
:040A4000F894FFCF58
:100A4400A00000DC427B14E942A4F0F6425CCF0231
:100A5400430A970A437BD412435C8F1B435CCF2425
:100A640043299C2E43000039430000444366A64FAB
:100A74004300005C437B146943A4F07643A4D08212
:100A8400430A978A437BD49243A4909B43A4D0A463
:100A940043719DAE43B8FEB8430000C44366A6CF7D
:100AA400430000DC437B14E943A4F0F64300D00286
:100AB40044AE970A441FD5124400901B44A4D0248A
:100AC40044719D2E445CFF38445CFF43440AA74FA5
:100AD4004400005C44000000003E003E004A004523
:0E0AE400004600430041003E00410043000078
:00000001FF
