:100000000C943E000C9448000C9448000C9448005A
:100010000C9448000C9448000C9448000C94480040
:100020000C9448000C9448000C9448000C94480030
:100030000C9448000C9448000C9448000C94480020
:100040000C9448000C9448000C9448000C94480010
:100050000C9448000C9448000C9448000C94480000
:100060000C9448000C9448000C9448000C944800F0
:100070000C9448000C9448000C94480011241FBEB6
:10008000CFEFD8E0DEBFCDBF0E9460000C948300AC
:100090000C940000909389008093880090938B00CB
:1000A00080938A00E0E8F0E08081816A808382E0CA
:1000B000809381001092820008958FEF8AB908958D
:1000C0008FEF8AB9D0E0C0E0CE010E944A002FEF46
:1000D00080E792E0215080409040E1F700C00000AE
:1000E0002196CF3FD10581F7CE010E944A002FEF24
:1000F00080E792E0215080409040E1F700C000008E
:0A010000219791F7DFCFF894FFCFAD
:00000001FF
