:100000000C943E000C9448000C9448000C9448005A
:100010000C9448000C9448000C9448000C94480040
:100020000C9448000C9448000C9448000C94480030
:100030000C9448000C9448000C9448000C94480020
:100040000C9448000C9448000C9448000C94480010
:100050000C9448000C9448000C9448000C94480000
:100060000C9448000C9448000C9448000C944800F0
:100070000C9448000C9448000C94480011241FBEB6
:10008000CFEFD8E0DEBFCDBF0E945E000C948500AC
:100090000C9400004A9B0BC08FE39CE90197F1F799
:1000A00000C0000089B182FB882780F9089580E0B4
:1000B000089581B1836081B9529808950E945900D2
:1000C000C1E00E944A008823E1F30E944A008111A6
:1000D000FCCF0E944A008823E1F30E944A0081116C
:1000E000FCCF0E944A008823E1F30E944A0081115C
:1000F000FCCFC2B92FEF83ED90E3215080409040B8
:0E010000E1F700C0000012B8DCCFF894FFCF8A
:00000001FF
