:100000000C947F000C949C000C949C000C949C001D
:100010000C949C000C949C000C949C000C949C00F0
:100020000C949C000C949C000C949C000C949C00E0
:100030000C949C000C949C000C949C000C949C00D0
:100040000C949C000C949C000C949C000C949C00C0
:100050000C949C000C949C000C949C000C949C00B0
:100060000C949C000C949C000C949C000C949C00A0
:100070000C949C000C949C000C949C0007634236EA
:10008000B79BD8A71A39685618AEBAAB558C1D3C29
:10009000B7CC5763BD6DEDFD753EF6177231BF00ED
:1000A0000000803F08000000BE922449123EABAA27
:1000B000AA2ABECDCCCC4C3E00000080BEABAAAA82
:1000C000AA3E00000000BF000000803F00000000CA
:1000D00000084178D3BB4387D1133D190E3CC3BD03
:1000E0004282AD2B3E68EC8276BED98FE1A93E4CB0
:1000F00080EFFFBE01C4FF7F3F000000000011241D
:100100001FBECFEFD8E0DEBFCDBF11E0A0E0B1E071
:10011000E6E9F7E102C005900D92A63BB107D9F7D9
:1001200021E0A6EBB1E001C01D92A83BB207E1F7C8
:100130000E9463030C94C90B0C940000ECE7F0E000
:10014000808180648083EAE7F0E080818768808333
:10015000089590917C00907F8F70982B90937C00F5
:1001600080917A00806480937A0080917A0086FD85
:10017000FCCF80917800909179000895CF93DF9320
:1001800000D000D0CDB7DEB76D527109660F771F72
:10019000660F771F860F971FFC01208131814281F6
:1001A000538160E074E284EF9AE40E946D056983F4
:1001B0007A838B839C8369817A818B819C810E9465
:1001C000840769837A838B839C8369817A818B819D
:1001D0009C810E94DF05CB010F900F900F900F9034
:1001E000DF91CF9108950E94BE008093B300809369
:1001F000B40082E68093B00085E08093B10008955A
:1002000028E9E0E0F1E0DC0101900D922A95E1F7A8
:10021000FC01E856FF4F29E030E031832083DC0108
:10022000A656BF4F24E1E8E9F1E001900D922A952E
:10023000E1F762E570E00C94F30062E570E00C9485
:10024000F300F8948FEF8AB984B911B817B878948D
:100250008CEA91E00C9434032F923F924F925F927C
:100260006F927F928F929F92AF92BF92CF92DF92C6
:10027000EF92FF920F931F93CF93DF93CDB7DEB72B
:1002800028970FB6F894DEBF0FBECDBF2A013B0101
:100290001901AD82BE829C01990F440B550B298335
:1002A0003A834B835C83CA01B9010E94170692010D
:1002B000A30169837A838B839C8369817A818B8193
:1002C0009C810E94FB046F8378875C019201A301EB
:1002D00009831A832B823C8269817A818B819C817C
:1002E0000E94FB049B01AC018F81898388858A83EE
:1002F000AB82BC8269817A818B819C810E946D0571
:100300005B018C019601A70189829A828D818B8382
:100310008E818C8369817A818B819C810E94FB0410
:100320009B01AC01A982BA820B831C8369817A810B
:100330008B819C810E94C7069601A70169837A83FD
:100340008B839C8369817A818B819C810E94FC04D0
:1003500069837A838B839C8369817A818B819C8179
:1003600028960FB6F894DEBF0FBECDBFDF91CF91B8
:100370001F910F91FF90EF90DF90CF90BF90AF90C3
:100380009F908F907F906F905F904F903F902F90B5
:100390000895FC0181E08083728361830895FC01EC
:1003A000F894E89AA9E6B0E08C9181608C937894F7
:1003B00081E080830895FC0189B190E02181328140
:1003C00082239323892B79F08FE39CE90197F1F73E
:1003D00000C0000029B130E08181928128233923B7
:1003E00081E0232B09F480E00895CF93DF93EC01A3
:1003F0000E94DB01882339F08881882321F018824C
:10040000DF91CF91089589B190E029813A818223CB
:100410009323892B11F481E0888380E0F1CFFC01E4
:10042000718360830895DC01ED91FC91118210824B
:100430001092850010928400709389006093880068
:1004400080E48093800085E0809381001092820098
:1004500082E280936F000895CF93DF93EC010E94B6
:100460001302E881F98180819181892BE1F3DF9189
:10047000CF9108951092C5008FEC8093C400109224
:10048000C00088E18093C10086E08093C200089597
:10049000FC018091C00085FFFCCF60836093C600A3
:1004A00008958091C00087FFFCCF8091C600089519
:1004B00010927C0086E880937A00089510927A006A
:1004C000089580917C00807E80937C0080917C00E8
:1004D0006770682B60937C0080917A0080648093C1
:1004E0007A0080917A0084FFFCCF80917A0080614D
:1004F00080937A00209178008091790090E0982F85
:100500008827820F911D0895FC01618372834383C4
:10051000548367BD48BD81EA84BD81E085BD0895EF
:10052000FC01608365B90895FC0180810895FC0198
:10053000608362B90895FC01608362B908958F9267
:100540009F92AF92BF92CF92DF92EF92FF920F9362
:100550001F93CF93DF9300D0CDB7DEB77A83698343
:10056000D42EC52EB22EA32E780110E000E082E03A
:10057000982E882483940E151F057CF00F900F9001
:10058000DF91CF911F910F91FF90EF90DF90CF906F
:10059000BF90AF909F908F90089592B86D2D7C2D55
:1005A000CE0101960E942C0282B86B2D7A2DCE01CD
:1005B00001960E942C020F5F1F4FDDCFFC0180814E
:1005C00008950F931F93CF93DF93CDB7DEB72A978C
:1005D0000FB6F894DEBF0FBECDBF182F092F809144
:1005E000B601811107C087EB91E00E943A0281E0D9
:1005F0008093B6010F931F9382EB91E09F938F93AB
:100600008E010F5F1F4F1F930F930E94F8080F90EA
:100610000F900F900F900F900F90F80161918F0144
:1006200087EB91E00E9448028FE097E20197F1F793
:1006300000C00000F80180818111EFCF6AE087EBF4
:1006400091E00E9448028FE097E20197F1F700C025
:1006500000002A960FB6F894DEBF0FBECDBFDF9123
:10066000CF911F910F9108950F931F93CF93DF9315
:100670008C018091B601811107C087EB91E00E9447
:100680003A0281E08093B601E801699187EB91E03D
:100690000E9448028FE097E20197F1F700C0000046
:1006A00088818111F2CF6AE087EB91E00E944802D5
:1006B0008FE097E20197F1F700C00000DF91CF9142
:1006C0001F910F910895CDB7DEB7C85BD1090FB662
:1006D000F894DEBF0FBECDBF0E9421010E949E0094
:1006E0009E012F5F3F4F5901C9010E9400018E01F9
:1006F0000C541F4FC8010E9458027E013FEAE30ECE
:10070000F11CF7011082128211821482138260E2BE
:10071000C7010E949002912C93E0C92ED12C350183
:10072000502E412E1E2D0F2D82B160E0852D942D6F
:100730000E9461029C0150E040E0CB54DF4F2883CF
:1007400039834A835B83C55BD040CA01B9010E94EB
:1007500015062AE939E949E85BE3CB54DF4F6883A2
:10076000C55BD040CA54DF4F7883C65BD040C954C4
:10077000DF4F8883C75BD040C854DF4F9883C85B86
:10078000D040CB54DF4F688179818A819B81C55BE2
:10079000D0400E94C7062DED34E246E95FEBCB5412
:1007A000DF4F6883C55BD040CA54DF4F7883C65B98
:1007B000D040C954DF4F8883C75BD040C854DF4F57
:1007C0009883C85BD040CB54DF4F688179818A81A0
:1007D0009B81C55BD0400E9434072DE637EE4FEE7B
:1007E00051E4CB54DF4F6883C55BD040CA54DF4F20
:1007F0007883C65BD040C954DF4F8883C75BD04045
:10080000C854DF4F9883C85BD040CB54DF4F68811A
:1008100079818A819B81C55BD0400E94C7062CE507
:100820003FE842E250E4CB54DF4F6883C55BD040E1
:10083000CA54DF4F7883C65BD040C954DF4F8883EA
:10084000C75BD040C854DF4F9883C85BD040CB54BF
:10085000DF4F688179818A819B81C55BD0400E948E
:100860006D055B017C01CB54DF4F6883C55BD040D5
:10087000CA54DF4FB882C65BD040C954DF4F88836B
:10088000C75BD040C854DF4FF882C85BD040CB5420
:10089000DF4F688179818A819B81C55BD0400E944E
:1008A000DF05CB010E94E1024FEF50E06FEF70E0F7
:1008B000812F902F0E9484028FE39CE90197F1F72A
:1008C00000C00000812F902F0E949402882E60E0CB
:1008D000812F902F0E949002EFE3FCE93197F1F70E
:1008E00000C00000682D812F902F0E94900250E0E0
:1008F00040E070E060E0812F902F0E948402FFE7CB
:1009000028E331E0F15020403040E1F700C0000022
:1009100020E030E040EA51E4CB54DF4FA882C55BD1
:10092000D040CA54DF4FB882C65BD040C954DF4FB5
:10093000E882C75BD040C854DF4FF882C85BD04024
:10094000CB54DF4F688179818A819B81C55BD04020
:100950000E94680587FF11C067E370E0C3010E9431
:10096000F3008FE19EE40197F1F700C0000091E0F1
:10097000C91AD1089924939402C09110F8CFEFEFCF
:10098000CE16DE0681F4812F902F0E94940264E03F
:10099000803209F060E2812F902F0E949002912C0A
:1009A00083E0C82ED12C20E030E040EA50E4CB5464
:1009B000DF4FA882C55BD040CA54DF4FB882C65B08
:1009C000D040C954DF4FE882C75BD040C854DF4FE6
:1009D000F882C85BD040CB54DF4F688179818A812F
:1009E0009B81C55BD0400E94680587FDFFCFC30196
:1009F0000E941D0199CE5058BB27AA270E941305BB
:100A00000C948D060E947F0638F00E94860620F026
:100A100039F49F3F19F426F40C947C060EF4E0950B
:100A2000E7FB0C947606E92F0E949E0658F3BA174E
:100A3000620773078407950720F079F4A6F50C94F4
:100A4000C0060EF4E0950B2EBA2FA02D0B01B901B4
:100A500090010C01CA01A0011124FF27591B99F034
:100A6000593F50F4503E68F11A16F040A22F232F40
:100A7000342F4427585FF3CF469537952795A79590
:100A8000F0405395C9F77EF41F16BA0B620B730B37
:100A9000840BBAF09150A1F0FF0FBB1F661F771FA8
:100AA000881FC2F70EC0BA0F621F731F841F48F45D
:100AB000879577956795B795F7959E3F08F0B0CFE6
:100AC0009395880F08F09927EE0F979587950895CD
:100AD0000E94520608F481E008950E9481050C945A
:100AE0008D060E94860658F00E947F0640F029F489
:100AF0005F3F29F00C94760651110C94C1060C94BA
:100B00007C060E949E0668F39923B1F3552391F366
:100B1000951B550BBB27AA2762177307840738F06C
:100B20009F5F5F4F220F331F441FAA1FA9F335D0C9
:100B30000E2E3AF0E0E832D091505040E695001C7D
:100B4000CAF72BD0FE2F29D0660F771F881FBB1F37
:100B5000261737074807AB07B0E809F0BB0B802D15
:100B6000BF01FF2793585F4F3AF09E3F510578F041
:100B70000C9476060C94C1065F3FE4F3983ED4F3E0
:100B8000869577956795B795F7959F5FC9F7880F15
:100B9000911D9695879597F90895E1E0660F771F67
:100BA000881FBB1F621773078407BA0720F0621BF8
:100BB000730B840BBA0BEE1F88F7E09508950E9423
:100BC000E6056894B1110C94C10608950E94A6062A
:100BD00088F09F5798F0B92F9927B751B0F0E1F0FE
:100BE000660F771F881F991F1AF0BA95C9F714C0AE
:100BF000B13091F00E94C006B1E008950C94C00697
:100C0000672F782F8827B85F39F0B93FCCF38695E6
:100C100077956795B395D9F73EF490958095709543
:100C200061957F4F8F4F9F4F0895E89409C097FBC0
:100C30003EF490958095709561957F4F8F4F9F4FB3
:100C40009923A9F0F92F96E9BB279395F6958795F7
:100C500077956795B795F111F8CFFAF4BB0F11F4BA
:100C600060FF1BC06F5F7F4F8F4F9F4F16C0882361
:100C700011F096E911C0772321F09EE8872F762F97
:100C800005C0662371F096E8862F70E060E02AF0D8
:100C90009A95660F771F881FDAF7880F96958795C4
:100CA00097F90895990F0008550FAA0BE0E8FEEF99
:100CB00016161706E807F907C0F012161306E40720
:100CC000F50798F0621B730B840B950B39F40A2619
:100CD00061F0232B242B252B21F408950A2609F4F7
:100CE000A140A6958FEF811D811D089597F99F67FB
:100CF00080E870E060E008959FEF80EC08950024A4
:100D00000A941616170618060906089500240A9470
:100D100012161306140605060895092E0394000CF6
:100D200011F4882352F0BB0F40F4BF2B11F460FF85
:100D300004C06F5F7F4F8F4F9F4F089557FD9058AE
:100D4000440F551F59F05F3F71F04795880F97FB8F
:100D5000991F61F09F3F79F0879508951216130649
:100D60001406551FF2CF4695F1DF08C01616170678
:100D70001806991FF1CF86957105610508940895AD
:100D8000E894BB2766277727CB0197F908950E943F
:100D9000DA060C948D060E947F0638F00E948606C3
:100DA00020F0952311F00C9476060C947C06112407
:100DB0000C94C1060E949E0670F3959FC1F3950F97
:100DC00050E0551F629FF001729FBB27F00DB11DCF
:100DD000639FAA27F00DB11DAA1F649F6627B00D5F
:100DE000A11D661F829F2227B00DA11D621F739F48
:100DF000B00DA11D621F839FA00D611D221F749F56
:100E00003327A00D611D231F849F600D211D822F9C
:100E1000762F6A2F11249F5750409AF0F1F08823C3
:100E20004AF0EE0FFF1FBB1F661F771F881F9150F0
:100E30005040A9F79E3F510580F00C9476060C9423
:100E4000C1065F3FE4F3983ED4F3869577956795A6
:100E5000B795F795E7959F5FC1F7FE2B880F911D1A
:100E60009695879597F90895FA01EE0FFF1F309632
:100E700021053105A1F16115710561F48038BFE3E9
:100E80009B0749F168949038810561F08038BFEF85
:100E90009B0741F099234AF5FF3FE1053105210504
:100EA00019F1E8940894E795D901AA2329F4AB2F06
:100EB000BE2FF85FD0F310C0FF5F70F4A695E0F787
:100EC000F73950F019F0FF3A38F49F779F930DD01F
:100ED0000F9007FC9058089546F00C947C0660E053
:100EE00070E080E89FE308954FE79F775F934F930B
:100EF0003F932F930E947C082F913F914F915F91D8
:100F00000E94C7060C94B0070E94A606E8F09E3720
:100F1000E8F09639B8F49E3848F4672F782F882780
:100F2000985FF9CF86957795679593959539D0F326
:100F3000B62FB1706B0F711D811D20F487957795C9
:100F4000679593950C94E2070C94FD070C94C106E9
:100F500029F416F00C9476060C94C0060C947C06CA
:100F60000E94A606A8F39638A0F707F80F92E89417
:100F70002BE33AEA48EB5FE70E94DD060F920F92FF
:100F80000F924DB75EB70F920E94C408ECE7F0E0F5
:100F90000E940B084F915F91EF91FF91E595EE1F35
:100FA000FF1F49F0FE57E0684427EE0F441FFA95F3
:100FB000E1F74195550B0E943E080F9007FE0C94F7
:100FC00032080895882371F4772321F09850872BF5
:100FD000762F07C0662311F499270DC09051862BF8
:100FE00070E060E02AF09A95660F771F881FDAF7A5
:100FF000880F9695879597F908959F3F31F0915006
:1010000020F4879577956795B795880F911D9695EC
:10101000879597F90895DF93CF931F930F93FF92CE
:10102000EF92DF927B018C01689406C0DA2EEF010B
:101030000E94DA06FE01E894A5912591359145912B
:101040005591A6F3EF010E941305FE019701A80137
:10105000DA9469F7DF90EF90FF900F911F91CF9195
:10106000DF9108959B01AC0160E070E080E89FE3B0
:101070000C946D050C9476060C94FD070E94A60650
:10108000D8F39923C9F3940F511DA3F39150504005
:1010900094F059F0882332F0660F771F881F915023
:1010A0005040C1F79E3F51052CF7880F911D969532
:1010B000879597F908955F3FACF0983E9CF0BB2769
:1010C000869577956795B79508F4B1609395C1F7C4
:1010D000BB0F58F711F460FFE8CF6F5F7F4F8F4F62
:1010E0009F4FE3CF0C94C10616F00C94FD070C94AF
:1010F0007C0668940C9476060E94A606A8F39923B1
:10110000C1F3AEF3DF93CF931F930F93FF92C92FD9
:10111000DD2788232AF02197660F771F881FDAF7CB
:1011200020E030E040E85FEB9FE3883920F0803E2C
:1011300038F021968F770E94FC04E4EAF0E004C0C6
:101140000E94FC04E1EDF0E00E940B088B01BE015F
:10115000EC01FB2E6F5771097595771F880B990B62
:101160000E94170628E132E741E35FE30E94DA06B6
:10117000AF2D9801AE01FF900F911F91CF91DF919C
:101180000E9413050C948D06FA01DC01AA0FBB1F07
:101190009B01AC01BF5728F42227332744275078FE
:1011A00020C0B75190F4AB2F002446953795279572
:1011B000011CA395D2F3002071F0220F331F441FAE
:1011C000B395DAF30ED00C94FB0461307105A0E8FE
:1011D0008A07B94630F49B01AC0166277727882738
:1011E0009078309621F02083318342835383089591
:1011F000AEE0B0E0EEEFF8E00C94A00B0D891E8994
:1012000086E08C831A8309838FEF9FE79E838D830B
:10121000AE01475E5F4F6F89788DCE0101960E94C7
:101220001B092F813885020F131FF80110822E969B
:10123000E4E00C94BC0BAFE0B0E0E1E2F9E00C9428
:10124000920B7C013B018A01DC0117961C921E92D5
:10125000169713968C9181FFBEC19AE0292EFE014C
:1012600031964F01D70113969C91F30193FD85911F
:1012700093FF81913F01882309F444C1853239F4F9
:1012800093FD859193FF81913F01853229F4B70148
:1012900090E00E94040BE6CFB12C412C512CBFE111
:1012A000B51538F08B3209F188F4803201F18332C0
:1012B00021F157FC3AC020ED280F2A3040F556FEA8
:1012C0001FC0B29C200D1124B22E06C08D3291F0A9
:1012D000803379F7689450F8F30193FD859193FF7B
:1012E00081913F018111DBCF20C0689451F868944F
:1012F00052F8F2CF689453F8EFCF689454F8ECCFDB
:10130000429C200D1124422E689455F8E5CF8E3270
:1013100029F456FCF7C0689456F8DECF8C3619F4E1
:10132000689457F8D9CF8836B9F2982F9F7D955495
:101330009330C0F0833681F18337A1F1833509F012
:101340005BC0D801CD90DD908D016B2D70E056FC17
:1013500002C06FEF7FEFC6010E94EE0A5C01689445
:1013600057F80AC00C5F1F4FEFE3E983AA24A39448
:10137000B12C6401E89457F853FE29C0342CA11411
:10138000B10451F5332009F46DCFB70180E290E04C
:101390000E94040B3A94F6CFD8018C9189830E5F9A
:1013A0001F4FE4CFF801C190D1908F016B2D70E0F9
:1013B00056FC02C06FEF7FEFC6010E94F90A5C0184
:1013C000D9CFB70180E290E00E94040B4A944A14FE
:1013D0001B0409F0B0F7D2CFF60157FC859157FEF8
:1013E00081916F01B70190E00E94040B31103A9493
:1013F000B1E0AB1AB108C3CF843619F0893609F0D1
:1014000071C0F80157FE67C061917191819191910E
:101410008F01E52DEF76DE2E97FF09C09095809520
:10142000709561957F4F8F4F9F4F6894D7F82AE052
:1014300030E0A4010E94340BC82EC818AC2C5D2CDF
:10144000D6FE0CC0E89450F8CB1440F4D4FE05C08E
:10145000D2FC03C05D2D5E7E552EAB2C54FE93C096
:10146000FE01EC0DF11D8081803309F085C0652DF2
:10147000697E562E752D7870372E53FC93C050FE22
:101480008DC0BC2CA41410F4B40CBA1854FE90C037
:10149000B70180E390E00E94040B52FE07C088E78A
:1014A00051FC88E590E0B7010E94040BCB1408F4CE
:1014B0008BC0CA94D12C8FEFC81AD80AC80CD91C7B
:1014C000D6018E916D01B70190E00E94040B8C143F
:1014D0009D04B1F757CF61917191072E000C880BD5
:1014E000990B96CFD52CE894D4F82AE0853729F1CA
:1014F000F52DF97FDF2E8037A1F058F48835A1F063
:101500008F36D1F0F701868197812F96E2E10C9416
:10151000AE0B8837B9F7D4FE02C06894D2F820E148
:101520000CC06894D4F8F7CF54FE03C02F2F266068
:10153000D22E20E132E002C028E030E0F801D7FEF0
:1015400015C041915191619171914C875D876E8772
:101550007F878F01A4016C857D858E859F850E9484
:10156000340BC82EC818E894D7F868CF81919191B0
:10157000AC0170E060E0E9CF52FC02C0A3947ACFE6
:10158000A394A39477CF852D867809F473CFF6CFF3
:10159000B70180E290E00E94040BA394A414C0F36E
:1015A000312C74CF342C3A18A41408F46FCFF8CF30
:1015B000852D867809F47ACF8BE251FE80E257FCC4
:1015C0008DE2B70190E070CFB70180E390E00E9418
:1015D000040BBA946BCF8FEF9FEF97CFFC01059070
:1015E000615070400110D8F7809590958E0F9F1F25
:1015F0000895FC016150704001900110D8F780956A
:1016000090958E0F9F1F08950F931F93CF93DF9395
:10161000182F092FEB018B8181FD09C01FEF0FEF00
:10162000812F902FDF91CF911F910F91089582FF0D
:1016300014C02E813F818C819D81281739073CF48D
:10164000E881F981CF0101969983888310838E8187
:101650009F8101969F838E83E3CFE885F985812F53
:101660000995892BA1F3DACFFA01AA27283051F185
:10167000203181F1E8946F936E7F6E5F7F4F8F4FC3
:101680009F4FAF4FB1E03ED0B4E03CD0670F781F22
:10169000891F9A1FA11D680F791F8A1F911DA11D07
:1016A0006A0F711D811D911DA11D20D009F4689440
:1016B0003F912AE0269F11243019305D3193DEF6E8
:1016C000CF010895462F4770405D4193B3E00FD09E
:1016D000C9F7F6CF462F4F70405D4A3318F0495D89
:1016E00031FD4052419302D0A9F7EACFB4E0A6956C
:1016F0009795879577956795BA95C9F7009761058E
:10170000710508959B01AC010A2E069457954795E3
:1017100037952795BA95C9F7620F731F841F951FD8
:10172000A01D08952F923F924F925F926F927F92E9
:101730008F929F92AF92BF92CF92DF92EF92FF92E1
:101740000F931F93CF93DF93CDB7DEB7CA1BDB0B8D
:101750000FB6F894DEBF0FBECDBF09942A88398832
:1017600048885F846E847D848C849B84AA84B98439
:10177000C884DF80EE80FD800C811B81AA81B98145
:10178000CE0FD11D0FB6F894DEBF0FBECDBFED0159
:061790000895F894FFCF5C
:101796000000DC427B14E942A4F0F6425CCF02432F
:1017A6000A970A437BD412435C8F1B435CCF2443C6
:1017B600299C2E43000039430000444366A64F434C
:1017C60000005C437B146943A4F07643A4D08243B3
:1017D6000A978A437BD49243A4909B43A4D0A44304
:1017E600719DAE43B8FEB8430000C44366A6CF431E
:1017F6000000DC437B14E943A4F0F64300D0024426
:10180600AE970A441FD5124400901B44A4D024442A
:10181600719D2E445CFF38445CFF43440AA74F4445
:1018260000005C44000000003E003E004A00450007
:101836004600430041003E00410043006465627576
:061846007400256400009F
:00000001FF
