:100000000C943E000C9453000C9453000C94530039
:100010000C9453000C9453000C9453000C94530014
:100020000C9453000C9453000C9453000C94530004
:100030000C9453000C9453000C9453000C945300F4
:100040000C9453000C9453000C9453000C945300E4
:100050000C9453000C9453000C9453000C945300D4
:100060000C9453000C9453000C9453000C945300C4
:100070000C9453000C9453000C94530011241FBE95
:10008000CFEFD8E0DEBFCDBF11E0A0E0B1E0E8E700
:10009000F4E002C005900D92AE35B107D9F70E9489
:1000A00009020C943A020C94000081B1836081B97A
:1000B00052980895089580EA80935C011092B900E7
:1000C00080E28093B8000895FC0180E88083CF012E
:1000D0000C945B00982F9370891305C0880F806A79
:1000E00080935C0108958FEF0895FA0194EA24E863
:1000F0009093BC008091BC0087FFFCCF80915C0195
:100100008093BB002093BC008091BC0087FFFCCF94
:100110008091B900883161F784EA8093BC008091B6
:10012000BC0087FFFCCF80915C018093BB0084E81A
:100130008093BC008091BC0087FFFCCF7093BB0014
:1001400084E88093BC008091BC0087FFFCCF609363
:10015000BB0084E88093BC008091BC0087FFFCCF8B
:100160008091BC0087FFFCCF84EA8093BC00809123
:10017000BC0087FFFCCF80915C018F5F8093BB0048
:1001800084E88093BC008091BC0087FFFCCF84E8AA
:100190008093BC008091BC0087FFFCCF8091BB00A6
:1001A000808384E98093BC0080E0089594EA34E879
:1001B0009093BC008091BC0087FFFCCF80915C01D4
:1001C0008093BB003093BC008091BC0087FFFCCFC4
:1001D0008091B900883161F784EA8093BC008091F6
:1001E000BC0087FFFCCF80915C018093BB0084E85A
:1001F0008093BC008091BC0087FFFCCF7093BB0054
:1002000084E88093BC008091BC0087FFFCCF6093A2
:10021000BB0084E88093BC008091BC0087FFFCCFCA
:1002200084EA8093BC008091BC0087FFFCCF809162
:100230005C018F5F8093BB0084E88093BC00809159
:10024000BC0087FFFCCF84EC211105C084E98093BA
:10025000BC0080E00895213009F484E88093BC005C
:100260009091BC0097FFFCCFFA019091BB00919355
:100270002150AF01E9CF94EA24E89093BC0080912B
:10028000BC0087FFFCCF80915C018093BB00209372
:10029000BC008091BC0087FFFCCF8091B900883101
:1002A00061F784EA8093BC008091BC0087FFFCCF9B
:1002B00080915C018093BB0084E88093BC008091B6
:1002C000BC0087FFFCCF7093BB0084E88093BC0028
:1002D0008091BC0087FFFCCF6093BB0084E88093D3
:1002E000BC008091BC0087FFFCCF4093BB0084E83A
:1002F0008093BC008091BC0087FFFCCF84E9809391
:10030000BC0080E00895FB01260F372F311DDC0172
:100310008C918150990B862B9F2B2817390718F049
:100320009C012F5F3F4F822F8E1B24EA34E82093DD
:10033000BC009091BC0097FFFCCF90915C01909322
:10034000BB003093BC009091BC0097FFFCCF909114
:10035000B900983161F794EA9093BC009091BC0089
:1003600097FFFCCF90915C019093BB0094E8909331
:10037000BC009091BC0097FFFCCFF093BB0094E8C9
:100380009093BC009091BC0097FFFCCFE093BB0022
:1003900094E89093BC009091BC0097FFFCCF982FFD
:1003A00024E8911104C094E99093BC000895FA01E7
:1003B00031913093BB002093BC003091BC0037FFDB
:1003C000FCCF9150AF01EDCFDF92EF92FF920F93F0
:1003D0001F93CF93DF93D82ED92F7B018A01C22F91
:1003E0002C2FA801B7018D2D9D2F0E948301282F4E
:1003F00030E0E20EF31EC81B020F131FC111F0CF35
:1004000080E0DF91CF911F910F91FF90EF90DF90EF
:1004100008950F92CDB7DEB70E945500CE01019628
:100420007C010E9464002EE24EE251E070E060E048
:10043000C7010E94E4018FE097E20197F1F700C045
:100440000000C70121E00E32110531F40E945A006C
:1004500090E080E00F900895F801E25DFE4F40814A
:10046000F801E050FF4F30814313F0CF22B90F5F06
:080470001F4FE9CFF894FFCF04
:100478003300000000000000000000000000000041
:100488000000000000000000000000000000000064
:1004980000000000000000000000000000002A50DA
:1004A8002A4F2A4C2A592A542A452A432A482A4E8E
:1004B8002A492A512A552A452A202A4D2A4F2A4EA6
:0E04C8002A542A522A452A412A4C2A00A00012
:00000001FF
